{
	"MODIFERES/Intro.sol": {
		"Both": {
			"abi": [
				{
					"inputs": [
						{
							"internalType": "uint256",
							"name": "no",
							"type": "uint256"
						},
						{
							"internalType": "string",
							"name": "name",
							"type": "string"
						},
						{
							"internalType": "uint256",
							"name": "age",
							"type": "uint256"
						}
					],
					"name": "Get",
					"outputs": [],
					"stateMutability": "nonpayable",
					"type": "function"
				}
			],
			"devdoc": {
				"kind": "dev",
				"methods": {},
				"version": 1
			},
			"evm": {
				"assembly": "    /* \"MODIFERES/Intro.sol\":727:1278  contract Both... */\n  mstore(0x40, 0x80)\n  callvalue\n  dup1\n  iszero\n  tag_1\n  jumpi\n  0x00\n  dup1\n  revert\ntag_1:\n  pop\n  dataSize(sub_0)\n  dup1\n  dataOffset(sub_0)\n  0x00\n  codecopy\n  0x00\n  return\nstop\n\nsub_0: assembly {\n        /* \"MODIFERES/Intro.sol\":727:1278  contract Both... */\n      mstore(0x40, 0x80)\n      callvalue\n      dup1\n      iszero\n      tag_1\n      jumpi\n      0x00\n      dup1\n      revert\n    tag_1:\n      pop\n      jumpi(tag_2, lt(calldatasize, 0x04))\n      shr(0xe0, calldataload(0x00))\n      dup1\n      0x8fa50dc3\n      eq\n      tag_3\n      jumpi\n    tag_2:\n      0x00\n      dup1\n      revert\n        /* \"MODIFERES/Intro.sol\":1118:1275  function Get(uint no,string memory name,uint age) public Check(5) Check2(2)... */\n    tag_3:\n      tag_4\n      0x04\n      dup1\n      calldatasize\n      sub\n      dup2\n      add\n      swap1\n      tag_5\n      swap2\n      swap1\n      tag_6\n      jump\t// in\n    tag_5:\n      tag_7\n      jump\t// in\n    tag_4:\n      stop\n    tag_7:\n        /* \"MODIFERES/Intro.sol\":1181:1182  5 */\n      0x05\n        /* \"MODIFERES/Intro.sol\":968:970  10 */\n      0x0a\n        /* \"MODIFERES/Intro.sol\":963:967  _age */\n      dup2\n        /* \"MODIFERES/Intro.sol\":963:970  _age<10 */\n      lt\n        /* \"MODIFERES/Intro.sol\":955:982  require(_age<10,\"fuck off\") */\n      tag_9\n      jumpi\n      mload(0x40)\n      0x08c379a000000000000000000000000000000000000000000000000000000000\n      dup2\n      mstore\n      0x04\n      add\n      tag_10\n      swap1\n      tag_11\n      jump\t// in\n    tag_10:\n      mload(0x40)\n      dup1\n      swap2\n      sub\n      swap1\n      revert\n    tag_9:\n        /* \"MODIFERES/Intro.sol\":1191:1192  2 */\n      0x02\n        /* \"MODIFERES/Intro.sol\":1065:1066  5 */\n      0x05\n        /* \"MODIFERES/Intro.sol\":1061:1064  _no */\n      dup2\n        /* \"MODIFERES/Intro.sol\":1061:1066  _no<5 */\n      lt\n        /* \"MODIFERES/Intro.sol\":1053:1089  require(_no<5,\"check the condition\") */\n      tag_13\n      jumpi\n      mload(0x40)\n      0x08c379a000000000000000000000000000000000000000000000000000000000\n      dup2\n      mstore\n      0x04\n      add\n      tag_14\n      swap1\n      tag_15\n      jump\t// in\n    tag_14:\n      mload(0x40)\n      dup1\n      swap2\n      sub\n      swap1\n      revert\n    tag_13:\n        /* \"MODIFERES/Intro.sol\":1218:1221  age */\n      dup3\n        /* \"MODIFERES/Intro.sol\":1211:1213  s1 */\n      0x00\n        /* \"MODIFERES/Intro.sol\":1211:1217  s1.age */\n      0x02\n      add\n        /* \"MODIFERES/Intro.sol\":1211:1221  s1.age=age */\n      dup2\n      swap1\n      sstore\n      pop\n        /* \"MODIFERES/Intro.sol\":1241:1245  name */\n      dup4\n        /* \"MODIFERES/Intro.sol\":1233:1235  s1 */\n      0x00\n        /* \"MODIFERES/Intro.sol\":1233:1240  s1.name */\n      0x01\n      add\n        /* \"MODIFERES/Intro.sol\":1233:1245  s1.name=name */\n      swap1\n      dup2\n      tag_17\n      swap2\n      swap1\n      tag_18\n      jump\t// in\n    tag_17:\n      pop\n        /* \"MODIFERES/Intro.sol\":1263:1265  no */\n      dup5\n        /* \"MODIFERES/Intro.sol\":1257:1259  s1 */\n      0x00\n        /* \"MODIFERES/Intro.sol\":1257:1262  s1.no */\n      dup1\n      add\n        /* \"MODIFERES/Intro.sol\":1257:1265  s1.no=no */\n      dup2\n      swap1\n      sstore\n      pop\n        /* \"MODIFERES/Intro.sol\":993:994  _ */\n      pop\n        /* \"MODIFERES/Intro.sol\":1118:1275  function Get(uint no,string memory name,uint age) public Check(5) Check2(2)... */\n      pop\n      pop\n      pop\n      pop\n      jump\t// out\n        /* \"#utility.yul\":7:82   */\n    tag_19:\n        /* \"#utility.yul\":40:46   */\n      0x00\n        /* \"#utility.yul\":73:75   */\n      0x40\n        /* \"#utility.yul\":67:76   */\n      mload\n        /* \"#utility.yul\":57:76   */\n      swap1\n      pop\n        /* \"#utility.yul\":7:82   */\n      swap1\n      jump\t// out\n        /* \"#utility.yul\":88:205   */\n    tag_20:\n        /* \"#utility.yul\":197:198   */\n      0x00\n        /* \"#utility.yul\":194:195   */\n      dup1\n        /* \"#utility.yul\":187:199   */\n      revert\n        /* \"#utility.yul\":211:328   */\n    tag_21:\n        /* \"#utility.yul\":320:321   */\n      0x00\n        /* \"#utility.yul\":317:318   */\n      dup1\n        /* \"#utility.yul\":310:322   */\n      revert\n        /* \"#utility.yul\":334:411   */\n    tag_22:\n        /* \"#utility.yul\":371:378   */\n      0x00\n        /* \"#utility.yul\":400:405   */\n      dup2\n        /* \"#utility.yul\":389:405   */\n      swap1\n      pop\n        /* \"#utility.yul\":334:411   */\n      swap2\n      swap1\n      pop\n      jump\t// out\n        /* \"#utility.yul\":417:539   */\n    tag_23:\n        /* \"#utility.yul\":490:514   */\n      tag_64\n        /* \"#utility.yul\":508:513   */\n      dup2\n        /* \"#utility.yul\":490:514   */\n      tag_22\n      jump\t// in\n    tag_64:\n        /* \"#utility.yul\":483:488   */\n      dup2\n        /* \"#utility.yul\":480:515   */\n      eq\n        /* \"#utility.yul\":470:533   */\n      tag_65\n      jumpi\n        /* \"#utility.yul\":529:530   */\n      0x00\n        /* \"#utility.yul\":526:527   */\n      dup1\n        /* \"#utility.yul\":519:531   */\n      revert\n        /* \"#utility.yul\":470:533   */\n    tag_65:\n        /* \"#utility.yul\":417:539   */\n      pop\n      jump\t// out\n        /* \"#utility.yul\":545:684   */\n    tag_24:\n        /* \"#utility.yul\":591:596   */\n      0x00\n        /* \"#utility.yul\":629:635   */\n      dup2\n        /* \"#utility.yul\":616:636   */\n      calldataload\n        /* \"#utility.yul\":607:636   */\n      swap1\n      pop\n        /* \"#utility.yul\":645:678   */\n      tag_67\n        /* \"#utility.yul\":672:677   */\n      dup2\n        /* \"#utility.yul\":645:678   */\n      tag_23\n      jump\t// in\n    tag_67:\n        /* \"#utility.yul\":545:684   */\n      swap3\n      swap2\n      pop\n      pop\n      jump\t// out\n        /* \"#utility.yul\":690:807   */\n    tag_25:\n        /* \"#utility.yul\":799:800   */\n      0x00\n        /* \"#utility.yul\":796:797   */\n      dup1\n        /* \"#utility.yul\":789:801   */\n      revert\n        /* \"#utility.yul\":813:930   */\n    tag_26:\n        /* \"#utility.yul\":922:923   */\n      0x00\n        /* \"#utility.yul\":919:920   */\n      dup1\n        /* \"#utility.yul\":912:924   */\n      revert\n        /* \"#utility.yul\":936:1038   */\n    tag_27:\n        /* \"#utility.yul\":977:983   */\n      0x00\n        /* \"#utility.yul\":1028:1030   */\n      0x1f\n        /* \"#utility.yul\":1024:1031   */\n      not\n        /* \"#utility.yul\":1019:1021   */\n      0x1f\n        /* \"#utility.yul\":1012:1017   */\n      dup4\n        /* \"#utility.yul\":1008:1022   */\n      add\n        /* \"#utility.yul\":1004:1032   */\n      and\n        /* \"#utility.yul\":994:1032   */\n      swap1\n      pop\n        /* \"#utility.yul\":936:1038   */\n      swap2\n      swap1\n      pop\n      jump\t// out\n        /* \"#utility.yul\":1044:1224   */\n    tag_28:\n        /* \"#utility.yul\":1092:1169   */\n      0x4e487b7100000000000000000000000000000000000000000000000000000000\n        /* \"#utility.yul\":1089:1090   */\n      0x00\n        /* \"#utility.yul\":1082:1170   */\n      mstore\n        /* \"#utility.yul\":1189:1193   */\n      0x41\n        /* \"#utility.yul\":1186:1187   */\n      0x04\n        /* \"#utility.yul\":1179:1194   */\n      mstore\n        /* \"#utility.yul\":1213:1217   */\n      0x24\n        /* \"#utility.yul\":1210:1211   */\n      0x00\n        /* \"#utility.yul\":1203:1218   */\n      revert\n        /* \"#utility.yul\":1230:1511   */\n    tag_29:\n        /* \"#utility.yul\":1313:1340   */\n      tag_73\n        /* \"#utility.yul\":1335:1339   */\n      dup3\n        /* \"#utility.yul\":1313:1340   */\n      tag_27\n      jump\t// in\n    tag_73:\n        /* \"#utility.yul\":1305:1311   */\n      dup2\n        /* \"#utility.yul\":1301:1341   */\n      add\n        /* \"#utility.yul\":1443:1449   */\n      dup2\n        /* \"#utility.yul\":1431:1441   */\n      dup2\n        /* \"#utility.yul\":1428:1450   */\n      lt\n        /* \"#utility.yul\":1407:1425   */\n      0xffffffffffffffff\n        /* \"#utility.yul\":1395:1405   */\n      dup3\n        /* \"#utility.yul\":1392:1426   */\n      gt\n        /* \"#utility.yul\":1389:1451   */\n      or\n        /* \"#utility.yul\":1386:1474   */\n      iszero\n      tag_74\n      jumpi\n        /* \"#utility.yul\":1454:1472   */\n      tag_75\n      tag_28\n      jump\t// in\n    tag_75:\n        /* \"#utility.yul\":1386:1474   */\n    tag_74:\n        /* \"#utility.yul\":1494:1504   */\n      dup1\n        /* \"#utility.yul\":1490:1492   */\n      0x40\n        /* \"#utility.yul\":1483:1505   */\n      mstore\n        /* \"#utility.yul\":1273:1511   */\n      pop\n        /* \"#utility.yul\":1230:1511   */\n      pop\n      pop\n      jump\t// out\n        /* \"#utility.yul\":1517:1646   */\n    tag_30:\n        /* \"#utility.yul\":1551:1557   */\n      0x00\n        /* \"#utility.yul\":1578:1598   */\n      tag_77\n      tag_19\n      jump\t// in\n    tag_77:\n        /* \"#utility.yul\":1568:1598   */\n      swap1\n      pop\n        /* \"#utility.yul\":1607:1640   */\n      tag_78\n        /* \"#utility.yul\":1635:1639   */\n      dup3\n        /* \"#utility.yul\":1627:1633   */\n      dup3\n        /* \"#utility.yul\":1607:1640   */\n      tag_29\n      jump\t// in\n    tag_78:\n        /* \"#utility.yul\":1517:1646   */\n      swap2\n      swap1\n      pop\n      jump\t// out\n        /* \"#utility.yul\":1652:1960   */\n    tag_31:\n        /* \"#utility.yul\":1714:1718   */\n      0x00\n        /* \"#utility.yul\":1804:1822   */\n      0xffffffffffffffff\n        /* \"#utility.yul\":1796:1802   */\n      dup3\n        /* \"#utility.yul\":1793:1823   */\n      gt\n        /* \"#utility.yul\":1790:1846   */\n      iszero\n      tag_80\n      jumpi\n        /* \"#utility.yul\":1826:1844   */\n      tag_81\n      tag_28\n      jump\t// in\n    tag_81:\n        /* \"#utility.yul\":1790:1846   */\n    tag_80:\n        /* \"#utility.yul\":1864:1893   */\n      tag_82\n        /* \"#utility.yul\":1886:1892   */\n      dup3\n        /* \"#utility.yul\":1864:1893   */\n      tag_27\n      jump\t// in\n    tag_82:\n        /* \"#utility.yul\":1856:1893   */\n      swap1\n      pop\n        /* \"#utility.yul\":1948:1952   */\n      0x20\n        /* \"#utility.yul\":1942:1946   */\n      dup2\n        /* \"#utility.yul\":1938:1953   */\n      add\n        /* \"#utility.yul\":1930:1953   */\n      swap1\n      pop\n        /* \"#utility.yul\":1652:1960   */\n      swap2\n      swap1\n      pop\n      jump\t// out\n        /* \"#utility.yul\":1966:2112   */\n    tag_32:\n        /* \"#utility.yul\":2063:2069   */\n      dup3\n        /* \"#utility.yul\":2058:2061   */\n      dup2\n        /* \"#utility.yul\":2053:2056   */\n      dup4\n        /* \"#utility.yul\":2040:2070   */\n      calldatacopy\n        /* \"#utility.yul\":2104:2105   */\n      0x00\n        /* \"#utility.yul\":2095:2101   */\n      dup4\n        /* \"#utility.yul\":2090:2093   */\n      dup4\n        /* \"#utility.yul\":2086:2102   */\n      add\n        /* \"#utility.yul\":2079:2106   */\n      mstore\n        /* \"#utility.yul\":1966:2112   */\n      pop\n      pop\n      pop\n      jump\t// out\n        /* \"#utility.yul\":2118:2543   */\n    tag_33:\n        /* \"#utility.yul\":2196:2201   */\n      0x00\n        /* \"#utility.yul\":2221:2287   */\n      tag_85\n        /* \"#utility.yul\":2237:2286   */\n      tag_86\n        /* \"#utility.yul\":2279:2285   */\n      dup5\n        /* \"#utility.yul\":2237:2286   */\n      tag_31\n      jump\t// in\n    tag_86:\n        /* \"#utility.yul\":2221:2287   */\n      tag_30\n      jump\t// in\n    tag_85:\n        /* \"#utility.yul\":2212:2287   */\n      swap1\n      pop\n        /* \"#utility.yul\":2310:2316   */\n      dup3\n        /* \"#utility.yul\":2303:2308   */\n      dup2\n        /* \"#utility.yul\":2296:2317   */\n      mstore\n        /* \"#utility.yul\":2348:2352   */\n      0x20\n        /* \"#utility.yul\":2341:2346   */\n      dup2\n        /* \"#utility.yul\":2337:2353   */\n      add\n        /* \"#utility.yul\":2386:2389   */\n      dup5\n        /* \"#utility.yul\":2377:2383   */\n      dup5\n        /* \"#utility.yul\":2372:2375   */\n      dup5\n        /* \"#utility.yul\":2368:2384   */\n      add\n        /* \"#utility.yul\":2365:2390   */\n      gt\n        /* \"#utility.yul\":2362:2474   */\n      iszero\n      tag_87\n      jumpi\n        /* \"#utility.yul\":2393:2472   */\n      tag_88\n      tag_26\n      jump\t// in\n    tag_88:\n        /* \"#utility.yul\":2362:2474   */\n    tag_87:\n        /* \"#utility.yul\":2483:2537   */\n      tag_89\n        /* \"#utility.yul\":2530:2536   */\n      dup5\n        /* \"#utility.yul\":2525:2528   */\n      dup3\n        /* \"#utility.yul\":2520:2523   */\n      dup6\n        /* \"#utility.yul\":2483:2537   */\n      tag_32\n      jump\t// in\n    tag_89:\n        /* \"#utility.yul\":2202:2543   */\n      pop\n        /* \"#utility.yul\":2118:2543   */\n      swap4\n      swap3\n      pop\n      pop\n      pop\n      jump\t// out\n        /* \"#utility.yul\":2563:2903   */\n    tag_34:\n        /* \"#utility.yul\":2619:2624   */\n      0x00\n        /* \"#utility.yul\":2668:2671   */\n      dup3\n        /* \"#utility.yul\":2661:2665   */\n      0x1f\n        /* \"#utility.yul\":2653:2659   */\n      dup4\n        /* \"#utility.yul\":2649:2666   */\n      add\n        /* \"#utility.yul\":2645:2672   */\n      slt\n        /* \"#utility.yul\":2635:2757   */\n      tag_91\n      jumpi\n        /* \"#utility.yul\":2676:2755   */\n      tag_92\n      tag_25\n      jump\t// in\n    tag_92:\n        /* \"#utility.yul\":2635:2757   */\n    tag_91:\n        /* \"#utility.yul\":2793:2799   */\n      dup2\n        /* \"#utility.yul\":2780:2800   */\n      calldataload\n        /* \"#utility.yul\":2818:2897   */\n      tag_93\n        /* \"#utility.yul\":2893:2896   */\n      dup5\n        /* \"#utility.yul\":2885:2891   */\n      dup3\n        /* \"#utility.yul\":2878:2882   */\n      0x20\n        /* \"#utility.yul\":2870:2876   */\n      dup7\n        /* \"#utility.yul\":2866:2883   */\n      add\n        /* \"#utility.yul\":2818:2897   */\n      tag_33\n      jump\t// in\n    tag_93:\n        /* \"#utility.yul\":2809:2897   */\n      swap2\n      pop\n        /* \"#utility.yul\":2625:2903   */\n      pop\n        /* \"#utility.yul\":2563:2903   */\n      swap3\n      swap2\n      pop\n      pop\n      jump\t// out\n        /* \"#utility.yul\":2909:3708   */\n    tag_6:\n        /* \"#utility.yul\":2996:3002   */\n      0x00\n        /* \"#utility.yul\":3004:3010   */\n      dup1\n        /* \"#utility.yul\":3012:3018   */\n      0x00\n        /* \"#utility.yul\":3061:3063   */\n      0x60\n        /* \"#utility.yul\":3049:3058   */\n      dup5\n        /* \"#utility.yul\":3040:3047   */\n      dup7\n        /* \"#utility.yul\":3036:3059   */\n      sub\n        /* \"#utility.yul\":3032:3064   */\n      slt\n        /* \"#utility.yul\":3029:3148   */\n      iszero\n      tag_95\n      jumpi\n        /* \"#utility.yul\":3067:3146   */\n      tag_96\n      tag_20\n      jump\t// in\n    tag_96:\n        /* \"#utility.yul\":3029:3148   */\n    tag_95:\n        /* \"#utility.yul\":3187:3188   */\n      0x00\n        /* \"#utility.yul\":3212:3265   */\n      tag_97\n        /* \"#utility.yul\":3257:3264   */\n      dup7\n        /* \"#utility.yul\":3248:3254   */\n      dup3\n        /* \"#utility.yul\":3237:3246   */\n      dup8\n        /* \"#utility.yul\":3233:3255   */\n      add\n        /* \"#utility.yul\":3212:3265   */\n      tag_24\n      jump\t// in\n    tag_97:\n        /* \"#utility.yul\":3202:3265   */\n      swap4\n      pop\n        /* \"#utility.yul\":3158:3275   */\n      pop\n        /* \"#utility.yul\":3342:3344   */\n      0x20\n        /* \"#utility.yul\":3331:3340   */\n      dup5\n        /* \"#utility.yul\":3327:3345   */\n      add\n        /* \"#utility.yul\":3314:3346   */\n      calldataload\n        /* \"#utility.yul\":3373:3391   */\n      0xffffffffffffffff\n        /* \"#utility.yul\":3365:3371   */\n      dup2\n        /* \"#utility.yul\":3362:3392   */\n      gt\n        /* \"#utility.yul\":3359:3476   */\n      iszero\n      tag_98\n      jumpi\n        /* \"#utility.yul\":3395:3474   */\n      tag_99\n      tag_21\n      jump\t// in\n    tag_99:\n        /* \"#utility.yul\":3359:3476   */\n    tag_98:\n        /* \"#utility.yul\":3500:3563   */\n      tag_100\n        /* \"#utility.yul\":3555:3562   */\n      dup7\n        /* \"#utility.yul\":3546:3552   */\n      dup3\n        /* \"#utility.yul\":3535:3544   */\n      dup8\n        /* \"#utility.yul\":3531:3553   */\n      add\n        /* \"#utility.yul\":3500:3563   */\n      tag_34\n      jump\t// in\n    tag_100:\n        /* \"#utility.yul\":3490:3563   */\n      swap3\n      pop\n        /* \"#utility.yul\":3285:3573   */\n      pop\n        /* \"#utility.yul\":3612:3614   */\n      0x40\n        /* \"#utility.yul\":3638:3691   */\n      tag_101\n        /* \"#utility.yul\":3683:3690   */\n      dup7\n        /* \"#utility.yul\":3674:3680   */\n      dup3\n        /* \"#utility.yul\":3663:3672   */\n      dup8\n        /* \"#utility.yul\":3659:3681   */\n      add\n        /* \"#utility.yul\":3638:3691   */\n      tag_24\n      jump\t// in\n    tag_101:\n        /* \"#utility.yul\":3628:3691   */\n      swap2\n      pop\n        /* \"#utility.yul\":3583:3701   */\n      pop\n        /* \"#utility.yul\":2909:3708   */\n      swap3\n      pop\n      swap3\n      pop\n      swap3\n      jump\t// out\n        /* \"#utility.yul\":3714:3883   */\n    tag_35:\n        /* \"#utility.yul\":3798:3809   */\n      0x00\n        /* \"#utility.yul\":3832:3838   */\n      dup3\n        /* \"#utility.yul\":3827:3830   */\n      dup3\n        /* \"#utility.yul\":3820:3839   */\n      mstore\n        /* \"#utility.yul\":3872:3876   */\n      0x20\n        /* \"#utility.yul\":3867:3870   */\n      dup3\n        /* \"#utility.yul\":3863:3877   */\n      add\n        /* \"#utility.yul\":3848:3877   */\n      swap1\n      pop\n        /* \"#utility.yul\":3714:3883   */\n      swap3\n      swap2\n      pop\n      pop\n      jump\t// out\n        /* \"#utility.yul\":3889:4047   */\n    tag_36:\n        /* \"#utility.yul\":4029:4039   */\n      0x6675636b206f6666000000000000000000000000000000000000000000000000\n        /* \"#utility.yul\":4025:4026   */\n      0x00\n        /* \"#utility.yul\":4017:4023   */\n      dup3\n        /* \"#utility.yul\":4013:4027   */\n      add\n        /* \"#utility.yul\":4006:4040   */\n      mstore\n        /* \"#utility.yul\":3889:4047   */\n      pop\n      jump\t// out\n        /* \"#utility.yul\":4053:4418   */\n    tag_37:\n        /* \"#utility.yul\":4195:4198   */\n      0x00\n        /* \"#utility.yul\":4216:4282   */\n      tag_105\n        /* \"#utility.yul\":4280:4281   */\n      0x08\n        /* \"#utility.yul\":4275:4278   */\n      dup4\n        /* \"#utility.yul\":4216:4282   */\n      tag_35\n      jump\t// in\n    tag_105:\n        /* \"#utility.yul\":4209:4282   */\n      swap2\n      pop\n        /* \"#utility.yul\":4291:4384   */\n      tag_106\n        /* \"#utility.yul\":4380:4383   */\n      dup3\n        /* \"#utility.yul\":4291:4384   */\n      tag_36\n      jump\t// in\n    tag_106:\n        /* \"#utility.yul\":4409:4411   */\n      0x20\n        /* \"#utility.yul\":4404:4407   */\n      dup3\n        /* \"#utility.yul\":4400:4412   */\n      add\n        /* \"#utility.yul\":4393:4412   */\n      swap1\n      pop\n        /* \"#utility.yul\":4053:4418   */\n      swap2\n      swap1\n      pop\n      jump\t// out\n        /* \"#utility.yul\":4424:4843   */\n    tag_11:\n        /* \"#utility.yul\":4590:4594   */\n      0x00\n        /* \"#utility.yul\":4628:4630   */\n      0x20\n        /* \"#utility.yul\":4617:4626   */\n      dup3\n        /* \"#utility.yul\":4613:4631   */\n      add\n        /* \"#utility.yul\":4605:4631   */\n      swap1\n      pop\n        /* \"#utility.yul\":4677:4686   */\n      dup2\n        /* \"#utility.yul\":4671:4675   */\n      dup2\n        /* \"#utility.yul\":4667:4687   */\n      sub\n        /* \"#utility.yul\":4663:4664   */\n      0x00\n        /* \"#utility.yul\":4652:4661   */\n      dup4\n        /* \"#utility.yul\":4648:4665   */\n      add\n        /* \"#utility.yul\":4641:4688   */\n      mstore\n        /* \"#utility.yul\":4705:4836   */\n      tag_108\n        /* \"#utility.yul\":4831:4835   */\n      dup2\n        /* \"#utility.yul\":4705:4836   */\n      tag_37\n      jump\t// in\n    tag_108:\n        /* \"#utility.yul\":4697:4836   */\n      swap1\n      pop\n        /* \"#utility.yul\":4424:4843   */\n      swap2\n      swap1\n      pop\n      jump\t// out\n        /* \"#utility.yul\":4849:5018   */\n    tag_38:\n        /* \"#utility.yul\":4989:5010   */\n      0x636865636b2074686520636f6e646974696f6e00000000000000000000000000\n        /* \"#utility.yul\":4985:4986   */\n      0x00\n        /* \"#utility.yul\":4977:4983   */\n      dup3\n        /* \"#utility.yul\":4973:4987   */\n      add\n        /* \"#utility.yul\":4966:5011   */\n      mstore\n        /* \"#utility.yul\":4849:5018   */\n      pop\n      jump\t// out\n        /* \"#utility.yul\":5024:5390   */\n    tag_39:\n        /* \"#utility.yul\":5166:5169   */\n      0x00\n        /* \"#utility.yul\":5187:5254   */\n      tag_111\n        /* \"#utility.yul\":5251:5253   */\n      0x13\n        /* \"#utility.yul\":5246:5249   */\n      dup4\n        /* \"#utility.yul\":5187:5254   */\n      tag_35\n      jump\t// in\n    tag_111:\n        /* \"#utility.yul\":5180:5254   */\n      swap2\n      pop\n        /* \"#utility.yul\":5263:5356   */\n      tag_112\n        /* \"#utility.yul\":5352:5355   */\n      dup3\n        /* \"#utility.yul\":5263:5356   */\n      tag_38\n      jump\t// in\n    tag_112:\n        /* \"#utility.yul\":5381:5383   */\n      0x20\n        /* \"#utility.yul\":5376:5379   */\n      dup3\n        /* \"#utility.yul\":5372:5384   */\n      add\n        /* \"#utility.yul\":5365:5384   */\n      swap1\n      pop\n        /* \"#utility.yul\":5024:5390   */\n      swap2\n      swap1\n      pop\n      jump\t// out\n        /* \"#utility.yul\":5396:5815   */\n    tag_15:\n        /* \"#utility.yul\":5562:5566   */\n      0x00\n        /* \"#utility.yul\":5600:5602   */\n      0x20\n        /* \"#utility.yul\":5589:5598   */\n      dup3\n        /* \"#utility.yul\":5585:5603   */\n      add\n        /* \"#utility.yul\":5577:5603   */\n      swap1\n      pop\n        /* \"#utility.yul\":5649:5658   */\n      dup2\n        /* \"#utility.yul\":5643:5647   */\n      dup2\n        /* \"#utility.yul\":5639:5659   */\n      sub\n        /* \"#utility.yul\":5635:5636   */\n      0x00\n        /* \"#utility.yul\":5624:5633   */\n      dup4\n        /* \"#utility.yul\":5620:5637   */\n      add\n        /* \"#utility.yul\":5613:5660   */\n      mstore\n        /* \"#utility.yul\":5677:5808   */\n      tag_114\n        /* \"#utility.yul\":5803:5807   */\n      dup2\n        /* \"#utility.yul\":5677:5808   */\n      tag_39\n      jump\t// in\n    tag_114:\n        /* \"#utility.yul\":5669:5808   */\n      swap1\n      pop\n        /* \"#utility.yul\":5396:5815   */\n      swap2\n      swap1\n      pop\n      jump\t// out\n        /* \"#utility.yul\":5821:5920   */\n    tag_40:\n        /* \"#utility.yul\":5873:5879   */\n      0x00\n        /* \"#utility.yul\":5907:5912   */\n      dup2\n        /* \"#utility.yul\":5901:5913   */\n      mload\n        /* \"#utility.yul\":5891:5913   */\n      swap1\n      pop\n        /* \"#utility.yul\":5821:5920   */\n      swap2\n      swap1\n      pop\n      jump\t// out\n        /* \"#utility.yul\":5926:6106   */\n    tag_41:\n        /* \"#utility.yul\":5974:6051   */\n      0x4e487b7100000000000000000000000000000000000000000000000000000000\n        /* \"#utility.yul\":5971:5972   */\n      0x00\n        /* \"#utility.yul\":5964:6052   */\n      mstore\n        /* \"#utility.yul\":6071:6075   */\n      0x22\n        /* \"#utility.yul\":6068:6069   */\n      0x04\n        /* \"#utility.yul\":6061:6076   */\n      mstore\n        /* \"#utility.yul\":6095:6099   */\n      0x24\n        /* \"#utility.yul\":6092:6093   */\n      0x00\n        /* \"#utility.yul\":6085:6100   */\n      revert\n        /* \"#utility.yul\":6112:6432   */\n    tag_42:\n        /* \"#utility.yul\":6156:6162   */\n      0x00\n        /* \"#utility.yul\":6193:6194   */\n      0x02\n        /* \"#utility.yul\":6187:6191   */\n      dup3\n        /* \"#utility.yul\":6183:6195   */\n      div\n        /* \"#utility.yul\":6173:6195   */\n      swap1\n      pop\n        /* \"#utility.yul\":6240:6241   */\n      0x01\n        /* \"#utility.yul\":6234:6238   */\n      dup3\n        /* \"#utility.yul\":6230:6242   */\n      and\n        /* \"#utility.yul\":6261:6279   */\n      dup1\n        /* \"#utility.yul\":6251:6332   */\n      tag_118\n      jumpi\n        /* \"#utility.yul\":6317:6321   */\n      0x7f\n        /* \"#utility.yul\":6309:6315   */\n      dup3\n        /* \"#utility.yul\":6305:6322   */\n      and\n        /* \"#utility.yul\":6295:6322   */\n      swap2\n      pop\n        /* \"#utility.yul\":6251:6332   */\n    tag_118:\n        /* \"#utility.yul\":6379:6381   */\n      0x20\n        /* \"#utility.yul\":6371:6377   */\n      dup3\n        /* \"#utility.yul\":6368:6382   */\n      lt\n        /* \"#utility.yul\":6348:6366   */\n      dup2\n        /* \"#utility.yul\":6345:6383   */\n      sub\n        /* \"#utility.yul\":6342:6426   */\n      tag_119\n      jumpi\n        /* \"#utility.yul\":6398:6416   */\n      tag_120\n      tag_41\n      jump\t// in\n    tag_120:\n        /* \"#utility.yul\":6342:6426   */\n    tag_119:\n        /* \"#utility.yul\":6163:6432   */\n      pop\n        /* \"#utility.yul\":6112:6432   */\n      swap2\n      swap1\n      pop\n      jump\t// out\n        /* \"#utility.yul\":6438:6579   */\n    tag_43:\n        /* \"#utility.yul\":6487:6491   */\n      0x00\n        /* \"#utility.yul\":6510:6513   */\n      dup2\n        /* \"#utility.yul\":6502:6513   */\n      swap1\n      pop\n        /* \"#utility.yul\":6533:6536   */\n      dup2\n        /* \"#utility.yul\":6530:6531   */\n      0x00\n        /* \"#utility.yul\":6523:6537   */\n      mstore\n        /* \"#utility.yul\":6567:6571   */\n      0x20\n        /* \"#utility.yul\":6564:6565   */\n      0x00\n        /* \"#utility.yul\":6554:6572   */\n      keccak256\n        /* \"#utility.yul\":6546:6572   */\n      swap1\n      pop\n        /* \"#utility.yul\":6438:6579   */\n      swap2\n      swap1\n      pop\n      jump\t// out\n        /* \"#utility.yul\":6585:6678   */\n    tag_44:\n        /* \"#utility.yul\":6622:6628   */\n      0x00\n        /* \"#utility.yul\":6669:6671   */\n      0x20\n        /* \"#utility.yul\":6664:6666   */\n      0x1f\n        /* \"#utility.yul\":6657:6662   */\n      dup4\n        /* \"#utility.yul\":6653:6667   */\n      add\n        /* \"#utility.yul\":6649:6672   */\n      div\n        /* \"#utility.yul\":6639:6672   */\n      swap1\n      pop\n        /* \"#utility.yul\":6585:6678   */\n      swap2\n      swap1\n      pop\n      jump\t// out\n        /* \"#utility.yul\":6684:6791   */\n    tag_45:\n        /* \"#utility.yul\":6728:6736   */\n      0x00\n        /* \"#utility.yul\":6778:6783   */\n      dup3\n        /* \"#utility.yul\":6772:6776   */\n      dup3\n        /* \"#utility.yul\":6768:6784   */\n      shl\n        /* \"#utility.yul\":6747:6784   */\n      swap1\n      pop\n        /* \"#utility.yul\":6684:6791   */\n      swap3\n      swap2\n      pop\n      pop\n      jump\t// out\n        /* \"#utility.yul\":6797:7190   */\n    tag_46:\n        /* \"#utility.yul\":6866:6872   */\n      0x00\n        /* \"#utility.yul\":6916:6917   */\n      0x08\n        /* \"#utility.yul\":6904:6914   */\n      dup4\n        /* \"#utility.yul\":6900:6918   */\n      mul\n        /* \"#utility.yul\":6939:7036   */\n      tag_125\n        /* \"#utility.yul\":6969:7035   */\n      0xffffffffffffffffffffffffffffffffffffffffffffffffffffffffffffffff\n        /* \"#utility.yul\":6958:6967   */\n      dup3\n        /* \"#utility.yul\":6939:7036   */\n      tag_45\n      jump\t// in\n    tag_125:\n        /* \"#utility.yul\":7057:7096   */\n      tag_126\n        /* \"#utility.yul\":7087:7095   */\n      dup7\n        /* \"#utility.yul\":7076:7085   */\n      dup4\n        /* \"#utility.yul\":7057:7096   */\n      tag_45\n      jump\t// in\n    tag_126:\n        /* \"#utility.yul\":7045:7096   */\n      swap6\n      pop\n        /* \"#utility.yul\":7129:7133   */\n      dup1\n        /* \"#utility.yul\":7125:7134   */\n      not\n        /* \"#utility.yul\":7118:7123   */\n      dup5\n        /* \"#utility.yul\":7114:7135   */\n      and\n        /* \"#utility.yul\":7105:7135   */\n      swap4\n      pop\n        /* \"#utility.yul\":7178:7182   */\n      dup1\n        /* \"#utility.yul\":7168:7176   */\n      dup7\n        /* \"#utility.yul\":7164:7183   */\n      and\n        /* \"#utility.yul\":7157:7162   */\n      dup5\n        /* \"#utility.yul\":7154:7184   */\n      or\n        /* \"#utility.yul\":7144:7184   */\n      swap3\n      pop\n        /* \"#utility.yul\":6873:7190   */\n      pop\n      pop\n        /* \"#utility.yul\":6797:7190   */\n      swap4\n      swap3\n      pop\n      pop\n      pop\n      jump\t// out\n        /* \"#utility.yul\":7196:7256   */\n    tag_47:\n        /* \"#utility.yul\":7224:7227   */\n      0x00\n        /* \"#utility.yul\":7245:7250   */\n      dup2\n        /* \"#utility.yul\":7238:7250   */\n      swap1\n      pop\n        /* \"#utility.yul\":7196:7256   */\n      swap2\n      swap1\n      pop\n      jump\t// out\n        /* \"#utility.yul\":7262:7404   */\n    tag_48:\n        /* \"#utility.yul\":7312:7321   */\n      0x00\n        /* \"#utility.yul\":7345:7398   */\n      tag_129\n        /* \"#utility.yul\":7363:7397   */\n      tag_130\n        /* \"#utility.yul\":7372:7396   */\n      tag_131\n        /* \"#utility.yul\":7390:7395   */\n      dup5\n        /* \"#utility.yul\":7372:7396   */\n      tag_22\n      jump\t// in\n    tag_131:\n        /* \"#utility.yul\":7363:7397   */\n      tag_47\n      jump\t// in\n    tag_130:\n        /* \"#utility.yul\":7345:7398   */\n      tag_22\n      jump\t// in\n    tag_129:\n        /* \"#utility.yul\":7332:7398   */\n      swap1\n      pop\n        /* \"#utility.yul\":7262:7404   */\n      swap2\n      swap1\n      pop\n      jump\t// out\n        /* \"#utility.yul\":7410:7485   */\n    tag_49:\n        /* \"#utility.yul\":7453:7456   */\n      0x00\n        /* \"#utility.yul\":7474:7479   */\n      dup2\n        /* \"#utility.yul\":7467:7479   */\n      swap1\n      pop\n        /* \"#utility.yul\":7410:7485   */\n      swap2\n      swap1\n      pop\n      jump\t// out\n        /* \"#utility.yul\":7491:7760   */\n    tag_50:\n        /* \"#utility.yul\":7601:7640   */\n      tag_134\n        /* \"#utility.yul\":7632:7639   */\n      dup4\n        /* \"#utility.yul\":7601:7640   */\n      tag_48\n      jump\t// in\n    tag_134:\n        /* \"#utility.yul\":7662:7753   */\n      tag_135\n        /* \"#utility.yul\":7711:7752   */\n      tag_136\n        /* \"#utility.yul\":7735:7751   */\n      dup3\n        /* \"#utility.yul\":7711:7752   */\n      tag_49\n      jump\t// in\n    tag_136:\n        /* \"#utility.yul\":7703:7709   */\n      dup5\n        /* \"#utility.yul\":7696:7700   */\n      dup5\n        /* \"#utility.yul\":7690:7701   */\n      sload\n        /* \"#utility.yul\":7662:7753   */\n      tag_46\n      jump\t// in\n    tag_135:\n        /* \"#utility.yul\":7656:7660   */\n      dup3\n        /* \"#utility.yul\":7649:7754   */\n      sstore\n        /* \"#utility.yul\":7567:7760   */\n      pop\n        /* \"#utility.yul\":7491:7760   */\n      pop\n      pop\n      pop\n      jump\t// out\n        /* \"#utility.yul\":7766:7839   */\n    tag_51:\n        /* \"#utility.yul\":7811:7814   */\n      0x00\n        /* \"#utility.yul\":7766:7839   */\n      swap1\n      jump\t// out\n        /* \"#utility.yul\":7845:8034   */\n    tag_52:\n        /* \"#utility.yul\":7922:7954   */\n      tag_139\n      tag_51\n      jump\t// in\n    tag_139:\n        /* \"#utility.yul\":7963:8028   */\n      tag_140\n        /* \"#utility.yul\":8021:8027   */\n      dup2\n        /* \"#utility.yul\":8013:8019   */\n      dup5\n        /* \"#utility.yul\":8007:8011   */\n      dup5\n        /* \"#utility.yul\":7963:8028   */\n      tag_50\n      jump\t// in\n    tag_140:\n        /* \"#utility.yul\":7898:8034   */\n      pop\n        /* \"#utility.yul\":7845:8034   */\n      pop\n      pop\n      jump\t// out\n        /* \"#utility.yul\":8040:8226   */\n    tag_53:\n        /* \"#utility.yul\":8100:8220   */\n    tag_142:\n        /* \"#utility.yul\":8117:8120   */\n      dup2\n        /* \"#utility.yul\":8110:8115   */\n      dup2\n        /* \"#utility.yul\":8107:8121   */\n      lt\n        /* \"#utility.yul\":8100:8220   */\n      iszero\n      tag_144\n      jumpi\n        /* \"#utility.yul\":8171:8210   */\n      tag_145\n        /* \"#utility.yul\":8208:8209   */\n      0x00\n        /* \"#utility.yul\":8201:8206   */\n      dup3\n        /* \"#utility.yul\":8171:8210   */\n      tag_52\n      jump\t// in\n    tag_145:\n        /* \"#utility.yul\":8144:8145   */\n      0x01\n        /* \"#utility.yul\":8137:8142   */\n      dup2\n        /* \"#utility.yul\":8133:8146   */\n      add\n        /* \"#utility.yul\":8124:8146   */\n      swap1\n      pop\n        /* \"#utility.yul\":8100:8220   */\n      jump(tag_142)\n    tag_144:\n        /* \"#utility.yul\":8040:8226   */\n      pop\n      pop\n      jump\t// out\n        /* \"#utility.yul\":8232:8775   */\n    tag_54:\n        /* \"#utility.yul\":8333:8335   */\n      0x1f\n        /* \"#utility.yul\":8328:8331   */\n      dup3\n        /* \"#utility.yul\":8325:8336   */\n      gt\n        /* \"#utility.yul\":8322:8768   */\n      iszero\n      tag_147\n      jumpi\n        /* \"#utility.yul\":8367:8405   */\n      tag_148\n        /* \"#utility.yul\":8399:8404   */\n      dup2\n        /* \"#utility.yul\":8367:8405   */\n      tag_43\n      jump\t// in\n    tag_148:\n        /* \"#utility.yul\":8451:8480   */\n      tag_149\n        /* \"#utility.yul\":8469:8479   */\n      dup5\n        /* \"#utility.yul\":8451:8480   */\n      tag_44\n      jump\t// in\n    tag_149:\n        /* \"#utility.yul\":8441:8449   */\n      dup2\n        /* \"#utility.yul\":8437:8481   */\n      add\n        /* \"#utility.yul\":8634:8636   */\n      0x20\n        /* \"#utility.yul\":8622:8632   */\n      dup6\n        /* \"#utility.yul\":8619:8637   */\n      lt\n        /* \"#utility.yul\":8616:8665   */\n      iszero\n      tag_150\n      jumpi\n        /* \"#utility.yul\":8655:8663   */\n      dup2\n        /* \"#utility.yul\":8640:8663   */\n      swap1\n      pop\n        /* \"#utility.yul\":8616:8665   */\n    tag_150:\n        /* \"#utility.yul\":8678:8758   */\n      tag_151\n        /* \"#utility.yul\":8734:8756   */\n      tag_152\n        /* \"#utility.yul\":8752:8755   */\n      dup6\n        /* \"#utility.yul\":8734:8756   */\n      tag_44\n      jump\t// in\n    tag_152:\n        /* \"#utility.yul\":8724:8732   */\n      dup4\n        /* \"#utility.yul\":8720:8757   */\n      add\n        /* \"#utility.yul\":8707:8718   */\n      dup3\n        /* \"#utility.yul\":8678:8758   */\n      tag_53\n      jump\t// in\n    tag_151:\n        /* \"#utility.yul\":8337:8768   */\n      pop\n      pop\n        /* \"#utility.yul\":8322:8768   */\n    tag_147:\n        /* \"#utility.yul\":8232:8775   */\n      pop\n      pop\n      pop\n      jump\t// out\n        /* \"#utility.yul\":8781:8898   */\n    tag_55:\n        /* \"#utility.yul\":8835:8843   */\n      0x00\n        /* \"#utility.yul\":8885:8890   */\n      dup3\n        /* \"#utility.yul\":8879:8883   */\n      dup3\n        /* \"#utility.yul\":8875:8891   */\n      shr\n        /* \"#utility.yul\":8854:8891   */\n      swap1\n      pop\n        /* \"#utility.yul\":8781:8898   */\n      swap3\n      swap2\n      pop\n      pop\n      jump\t// out\n        /* \"#utility.yul\":8904:9073   */\n    tag_56:\n        /* \"#utility.yul\":8948:8954   */\n      0x00\n        /* \"#utility.yul\":8981:9032   */\n      tag_155\n        /* \"#utility.yul\":9029:9030   */\n      0x00\n        /* \"#utility.yul\":9025:9031   */\n      not\n        /* \"#utility.yul\":9017:9022   */\n      dup5\n        /* \"#utility.yul\":9014:9015   */\n      0x08\n        /* \"#utility.yul\":9010:9023   */\n      mul\n        /* \"#utility.yul\":8981:9032   */\n      tag_55\n      jump\t// in\n    tag_155:\n        /* \"#utility.yul\":8977:9033   */\n      not\n        /* \"#utility.yul\":9062:9066   */\n      dup1\n        /* \"#utility.yul\":9056:9060   */\n      dup4\n        /* \"#utility.yul\":9052:9067   */\n      and\n        /* \"#utility.yul\":9042:9067   */\n      swap2\n      pop\n        /* \"#utility.yul\":8955:9073   */\n      pop\n        /* \"#utility.yul\":8904:9073   */\n      swap3\n      swap2\n      pop\n      pop\n      jump\t// out\n        /* \"#utility.yul\":9078:9373   */\n    tag_57:\n        /* \"#utility.yul\":9154:9158   */\n      0x00\n        /* \"#utility.yul\":9300:9329   */\n      tag_157\n        /* \"#utility.yul\":9325:9328   */\n      dup4\n        /* \"#utility.yul\":9319:9323   */\n      dup4\n        /* \"#utility.yul\":9300:9329   */\n      tag_56\n      jump\t// in\n    tag_157:\n        /* \"#utility.yul\":9292:9329   */\n      swap2\n      pop\n        /* \"#utility.yul\":9362:9365   */\n      dup3\n        /* \"#utility.yul\":9359:9360   */\n      0x02\n        /* \"#utility.yul\":9355:9366   */\n      mul\n        /* \"#utility.yul\":9349:9353   */\n      dup3\n        /* \"#utility.yul\":9346:9367   */\n      or\n        /* \"#utility.yul\":9338:9367   */\n      swap1\n      pop\n        /* \"#utility.yul\":9078:9373   */\n      swap3\n      swap2\n      pop\n      pop\n      jump\t// out\n        /* \"#utility.yul\":9378:10773   */\n    tag_18:\n        /* \"#utility.yul\":9495:9532   */\n      tag_159\n        /* \"#utility.yul\":9528:9531   */\n      dup3\n        /* \"#utility.yul\":9495:9532   */\n      tag_40\n      jump\t// in\n    tag_159:\n        /* \"#utility.yul\":9597:9615   */\n      0xffffffffffffffff\n        /* \"#utility.yul\":9589:9595   */\n      dup2\n        /* \"#utility.yul\":9586:9616   */\n      gt\n        /* \"#utility.yul\":9583:9639   */\n      iszero\n      tag_160\n      jumpi\n        /* \"#utility.yul\":9619:9637   */\n      tag_161\n      tag_28\n      jump\t// in\n    tag_161:\n        /* \"#utility.yul\":9583:9639   */\n    tag_160:\n        /* \"#utility.yul\":9663:9701   */\n      tag_162\n        /* \"#utility.yul\":9695:9699   */\n      dup3\n        /* \"#utility.yul\":9689:9700   */\n      sload\n        /* \"#utility.yul\":9663:9701   */\n      tag_42\n      jump\t// in\n    tag_162:\n        /* \"#utility.yul\":9748:9815   */\n      tag_163\n        /* \"#utility.yul\":9808:9814   */\n      dup3\n        /* \"#utility.yul\":9800:9806   */\n      dup3\n        /* \"#utility.yul\":9794:9798   */\n      dup6\n        /* \"#utility.yul\":9748:9815   */\n      tag_54\n      jump\t// in\n    tag_163:\n        /* \"#utility.yul\":9842:9843   */\n      0x00\n        /* \"#utility.yul\":9866:9870   */\n      0x20\n        /* \"#utility.yul\":9853:9870   */\n      swap1\n      pop\n        /* \"#utility.yul\":9898:9900   */\n      0x1f\n        /* \"#utility.yul\":9890:9896   */\n      dup4\n        /* \"#utility.yul\":9887:9901   */\n      gt\n        /* \"#utility.yul\":9915:9916   */\n      0x01\n        /* \"#utility.yul\":9910:10528   */\n      dup2\n      eq\n      tag_165\n      jumpi\n        /* \"#utility.yul\":10572:10573   */\n      0x00\n        /* \"#utility.yul\":10589:10595   */\n      dup5\n        /* \"#utility.yul\":10586:10663   */\n      iszero\n      tag_166\n      jumpi\n        /* \"#utility.yul\":10638:10647   */\n      dup3\n        /* \"#utility.yul\":10633:10636   */\n      dup8\n        /* \"#utility.yul\":10629:10648   */\n      add\n        /* \"#utility.yul\":10623:10649   */\n      mload\n        /* \"#utility.yul\":10614:10649   */\n      swap1\n      pop\n        /* \"#utility.yul\":10586:10663   */\n    tag_166:\n        /* \"#utility.yul\":10689:10756   */\n      tag_167\n        /* \"#utility.yul\":10749:10755   */\n      dup6\n        /* \"#utility.yul\":10742:10747   */\n      dup3\n        /* \"#utility.yul\":10689:10756   */\n      tag_57\n      jump\t// in\n    tag_167:\n        /* \"#utility.yul\":10683:10687   */\n      dup7\n        /* \"#utility.yul\":10676:10757   */\n      sstore\n        /* \"#utility.yul\":10545:10767   */\n      pop\n        /* \"#utility.yul\":9880:10767   */\n      jump(tag_164)\n        /* \"#utility.yul\":9910:10528   */\n    tag_165:\n        /* \"#utility.yul\":9962:9966   */\n      0x1f\n        /* \"#utility.yul\":9958:9967   */\n      not\n        /* \"#utility.yul\":9950:9956   */\n      dup5\n        /* \"#utility.yul\":9946:9968   */\n      and\n        /* \"#utility.yul\":9996:10033   */\n      tag_168\n        /* \"#utility.yul\":10028:10032   */\n      dup7\n        /* \"#utility.yul\":9996:10033   */\n      tag_43\n      jump\t// in\n    tag_168:\n        /* \"#utility.yul\":10055:10056   */\n      0x00\n        /* \"#utility.yul\":10069:10277   */\n    tag_169:\n        /* \"#utility.yul\":10083:10090   */\n      dup3\n        /* \"#utility.yul\":10080:10081   */\n      dup2\n        /* \"#utility.yul\":10077:10091   */\n      lt\n        /* \"#utility.yul\":10069:10277   */\n      iszero\n      tag_171\n      jumpi\n        /* \"#utility.yul\":10162:10171   */\n      dup5\n        /* \"#utility.yul\":10157:10160   */\n      dup10\n        /* \"#utility.yul\":10153:10172   */\n      add\n        /* \"#utility.yul\":10147:10173   */\n      mload\n        /* \"#utility.yul\":10139:10145   */\n      dup3\n        /* \"#utility.yul\":10132:10174   */\n      sstore\n        /* \"#utility.yul\":10213:10214   */\n      0x01\n        /* \"#utility.yul\":10205:10211   */\n      dup3\n        /* \"#utility.yul\":10201:10215   */\n      add\n        /* \"#utility.yul\":10191:10215   */\n      swap2\n      pop\n        /* \"#utility.yul\":10260:10262   */\n      0x20\n        /* \"#utility.yul\":10249:10258   */\n      dup6\n        /* \"#utility.yul\":10245:10263   */\n      add\n        /* \"#utility.yul\":10232:10263   */\n      swap5\n      pop\n        /* \"#utility.yul\":10106:10110   */\n      0x20\n        /* \"#utility.yul\":10103:10104   */\n      dup2\n        /* \"#utility.yul\":10099:10111   */\n      add\n        /* \"#utility.yul\":10094:10111   */\n      swap1\n      pop\n        /* \"#utility.yul\":10069:10277   */\n      jump(tag_169)\n    tag_171:\n        /* \"#utility.yul\":10305:10311   */\n      dup7\n        /* \"#utility.yul\":10296:10303   */\n      dup4\n        /* \"#utility.yul\":10293:10312   */\n      lt\n        /* \"#utility.yul\":10290:10469   */\n      iszero\n      tag_172\n      jumpi\n        /* \"#utility.yul\":10363:10372   */\n      dup5\n        /* \"#utility.yul\":10358:10361   */\n      dup10\n        /* \"#utility.yul\":10354:10373   */\n      add\n        /* \"#utility.yul\":10348:10374   */\n      mload\n        /* \"#utility.yul\":10406:10454   */\n      tag_173\n        /* \"#utility.yul\":10448:10452   */\n      0x1f\n        /* \"#utility.yul\":10440:10446   */\n      dup10\n        /* \"#utility.yul\":10436:10453   */\n      and\n        /* \"#utility.yul\":10425:10434   */\n      dup3\n        /* \"#utility.yul\":10406:10454   */\n      tag_56\n      jump\t// in\n    tag_173:\n        /* \"#utility.yul\":10398:10404   */\n      dup4\n        /* \"#utility.yul\":10391:10455   */\n      sstore\n        /* \"#utility.yul\":10313:10469   */\n      pop\n        /* \"#utility.yul\":10290:10469   */\n    tag_172:\n        /* \"#utility.yul\":10515:10516   */\n      0x01\n        /* \"#utility.yul\":10511:10512   */\n      0x02\n        /* \"#utility.yul\":10503:10509   */\n      dup9\n        /* \"#utility.yul\":10499:10513   */\n      mul\n        /* \"#utility.yul\":10495:10517   */\n      add\n        /* \"#utility.yul\":10489:10493   */\n      dup9\n        /* \"#utility.yul\":10482:10518   */\n      sstore\n        /* \"#utility.yul\":9917:10528   */\n      pop\n      pop\n      pop\n        /* \"#utility.yul\":9880:10767   */\n    tag_164:\n      pop\n        /* \"#utility.yul\":9470:10773   */\n      pop\n      pop\n      pop\n        /* \"#utility.yul\":9378:10773   */\n      pop\n      pop\n      jump\t// out\n\n    auxdata: 0xa2646970667358221220dfe69d5bd1d8829498e6e1c054d8abc3b1633b52429d6495069ea5d8ffaf8d3b64736f6c63430008160033\n}\n",
				"bytecode": {
					"linkReferences": {},
					"object": "608060405234801561000f575f80fd5b506106d28061001d5f395ff3fe608060405234801561000f575f80fd5b5060043610610029575f3560e01c80638fa50dc31461002d575b5f80fd5b6100476004803603810190610042919061027d565b610049565b005b6005600a811061008e576040517f08c379a000000000000000000000000000000000000000000000000000000000815260040161008590610343565b60405180910390fd5b6002600581106100d3576040517f08c379a00000000000000000000000000000000000000000000000000000000081526004016100ca906103ab565b60405180910390fd5b825f60020181905550835f60010190816100ed91906105cd565b50845f8001819055505050505050565b5f604051905090565b5f80fd5b5f80fd5b5f819050919050565b6101208161010e565b811461012a575f80fd5b50565b5f8135905061013b81610117565b92915050565b5f80fd5b5f80fd5b5f601f19601f8301169050919050565b7f4e487b71000000000000000000000000000000000000000000000000000000005f52604160045260245ffd5b61018f82610149565b810181811067ffffffffffffffff821117156101ae576101ad610159565b5b80604052505050565b5f6101c06100fd565b90506101cc8282610186565b919050565b5f67ffffffffffffffff8211156101eb576101ea610159565b5b6101f482610149565b9050602081019050919050565b828183375f83830152505050565b5f61022161021c846101d1565b6101b7565b90508281526020810184848401111561023d5761023c610145565b5b610248848285610201565b509392505050565b5f82601f83011261026457610263610141565b5b813561027484826020860161020f565b91505092915050565b5f805f6060848603121561029457610293610106565b5b5f6102a18682870161012d565b935050602084013567ffffffffffffffff8111156102c2576102c161010a565b5b6102ce86828701610250565b92505060406102df8682870161012d565b9150509250925092565b5f82825260208201905092915050565b7f6675636b206f66660000000000000000000000000000000000000000000000005f82015250565b5f61032d6008836102e9565b9150610338826102f9565b602082019050919050565b5f6020820190508181035f83015261035a81610321565b9050919050565b7f636865636b2074686520636f6e646974696f6e000000000000000000000000005f82015250565b5f6103956013836102e9565b91506103a082610361565b602082019050919050565b5f6020820190508181035f8301526103c281610389565b9050919050565b5f81519050919050565b7f4e487b71000000000000000000000000000000000000000000000000000000005f52602260045260245ffd5b5f600282049050600182168061041757607f821691505b60208210810361042a576104296103d3565b5b50919050565b5f819050815f5260205f209050919050565b5f6020601f8301049050919050565b5f82821b905092915050565b5f6008830261048c7fffffffffffffffffffffffffffffffffffffffffffffffffffffffffffffffff82610451565b6104968683610451565b95508019841693508086168417925050509392505050565b5f819050919050565b5f6104d16104cc6104c78461010e565b6104ae565b61010e565b9050919050565b5f819050919050565b6104ea836104b7565b6104fe6104f6826104d8565b84845461045d565b825550505050565b5f90565b610512610506565b61051d8184846104e1565b505050565b5b81811015610540576105355f8261050a565b600181019050610523565b5050565b601f8211156105855761055681610430565b61055f84610442565b8101602085101561056e578190505b61058261057a85610442565b830182610522565b50505b505050565b5f82821c905092915050565b5f6105a55f198460080261058a565b1980831691505092915050565b5f6105bd8383610596565b9150826002028217905092915050565b6105d6826103c9565b67ffffffffffffffff8111156105ef576105ee610159565b5b6105f98254610400565b610604828285610544565b5f60209050601f831160018114610635575f8415610623578287015190505b61062d85826105b2565b865550610694565b601f19841661064386610430565b5f5b8281101561066a57848901518255600182019150602085019450602081019050610645565b868310156106875784890151610683601f891682610596565b8355505b6001600288020188555050505b50505050505056fea2646970667358221220dfe69d5bd1d8829498e6e1c054d8abc3b1633b52429d6495069ea5d8ffaf8d3b64736f6c63430008160033",
					"opcodes": "PUSH1 0x80 PUSH1 0x40 MSTORE CALLVALUE DUP1 ISZERO PUSH2 0xF JUMPI PUSH0 DUP1 REVERT JUMPDEST POP PUSH2 0x6D2 DUP1 PUSH2 0x1D PUSH0 CODECOPY PUSH0 RETURN INVALID PUSH1 0x80 PUSH1 0x40 MSTORE CALLVALUE DUP1 ISZERO PUSH2 0xF JUMPI PUSH0 DUP1 REVERT JUMPDEST POP PUSH1 0x4 CALLDATASIZE LT PUSH2 0x29 JUMPI PUSH0 CALLDATALOAD PUSH1 0xE0 SHR DUP1 PUSH4 0x8FA50DC3 EQ PUSH2 0x2D JUMPI JUMPDEST PUSH0 DUP1 REVERT JUMPDEST PUSH2 0x47 PUSH1 0x4 DUP1 CALLDATASIZE SUB DUP2 ADD SWAP1 PUSH2 0x42 SWAP2 SWAP1 PUSH2 0x27D JUMP JUMPDEST PUSH2 0x49 JUMP JUMPDEST STOP JUMPDEST PUSH1 0x5 PUSH1 0xA DUP2 LT PUSH2 0x8E JUMPI PUSH1 0x40 MLOAD PUSH32 0x8C379A000000000000000000000000000000000000000000000000000000000 DUP2 MSTORE PUSH1 0x4 ADD PUSH2 0x85 SWAP1 PUSH2 0x343 JUMP JUMPDEST PUSH1 0x40 MLOAD DUP1 SWAP2 SUB SWAP1 REVERT JUMPDEST PUSH1 0x2 PUSH1 0x5 DUP2 LT PUSH2 0xD3 JUMPI PUSH1 0x40 MLOAD PUSH32 0x8C379A000000000000000000000000000000000000000000000000000000000 DUP2 MSTORE PUSH1 0x4 ADD PUSH2 0xCA SWAP1 PUSH2 0x3AB JUMP JUMPDEST PUSH1 0x40 MLOAD DUP1 SWAP2 SUB SWAP1 REVERT JUMPDEST DUP3 PUSH0 PUSH1 0x2 ADD DUP2 SWAP1 SSTORE POP DUP4 PUSH0 PUSH1 0x1 ADD SWAP1 DUP2 PUSH2 0xED SWAP2 SWAP1 PUSH2 0x5CD JUMP JUMPDEST POP DUP5 PUSH0 DUP1 ADD DUP2 SWAP1 SSTORE POP POP POP POP POP POP JUMP JUMPDEST PUSH0 PUSH1 0x40 MLOAD SWAP1 POP SWAP1 JUMP JUMPDEST PUSH0 DUP1 REVERT JUMPDEST PUSH0 DUP1 REVERT JUMPDEST PUSH0 DUP2 SWAP1 POP SWAP2 SWAP1 POP JUMP JUMPDEST PUSH2 0x120 DUP2 PUSH2 0x10E JUMP JUMPDEST DUP2 EQ PUSH2 0x12A JUMPI PUSH0 DUP1 REVERT JUMPDEST POP JUMP JUMPDEST PUSH0 DUP2 CALLDATALOAD SWAP1 POP PUSH2 0x13B DUP2 PUSH2 0x117 JUMP JUMPDEST SWAP3 SWAP2 POP POP JUMP JUMPDEST PUSH0 DUP1 REVERT JUMPDEST PUSH0 DUP1 REVERT JUMPDEST PUSH0 PUSH1 0x1F NOT PUSH1 0x1F DUP4 ADD AND SWAP1 POP SWAP2 SWAP1 POP JUMP JUMPDEST PUSH32 0x4E487B7100000000000000000000000000000000000000000000000000000000 PUSH0 MSTORE PUSH1 0x41 PUSH1 0x4 MSTORE PUSH1 0x24 PUSH0 REVERT JUMPDEST PUSH2 0x18F DUP3 PUSH2 0x149 JUMP JUMPDEST DUP2 ADD DUP2 DUP2 LT PUSH8 0xFFFFFFFFFFFFFFFF DUP3 GT OR ISZERO PUSH2 0x1AE JUMPI PUSH2 0x1AD PUSH2 0x159 JUMP JUMPDEST JUMPDEST DUP1 PUSH1 0x40 MSTORE POP POP POP JUMP JUMPDEST PUSH0 PUSH2 0x1C0 PUSH2 0xFD JUMP JUMPDEST SWAP1 POP PUSH2 0x1CC DUP3 DUP3 PUSH2 0x186 JUMP JUMPDEST SWAP2 SWAP1 POP JUMP JUMPDEST PUSH0 PUSH8 0xFFFFFFFFFFFFFFFF DUP3 GT ISZERO PUSH2 0x1EB JUMPI PUSH2 0x1EA PUSH2 0x159 JUMP JUMPDEST JUMPDEST PUSH2 0x1F4 DUP3 PUSH2 0x149 JUMP JUMPDEST SWAP1 POP PUSH1 0x20 DUP2 ADD SWAP1 POP SWAP2 SWAP1 POP JUMP JUMPDEST DUP3 DUP2 DUP4 CALLDATACOPY PUSH0 DUP4 DUP4 ADD MSTORE POP POP POP JUMP JUMPDEST PUSH0 PUSH2 0x221 PUSH2 0x21C DUP5 PUSH2 0x1D1 JUMP JUMPDEST PUSH2 0x1B7 JUMP JUMPDEST SWAP1 POP DUP3 DUP2 MSTORE PUSH1 0x20 DUP2 ADD DUP5 DUP5 DUP5 ADD GT ISZERO PUSH2 0x23D JUMPI PUSH2 0x23C PUSH2 0x145 JUMP JUMPDEST JUMPDEST PUSH2 0x248 DUP5 DUP3 DUP6 PUSH2 0x201 JUMP JUMPDEST POP SWAP4 SWAP3 POP POP POP JUMP JUMPDEST PUSH0 DUP3 PUSH1 0x1F DUP4 ADD SLT PUSH2 0x264 JUMPI PUSH2 0x263 PUSH2 0x141 JUMP JUMPDEST JUMPDEST DUP2 CALLDATALOAD PUSH2 0x274 DUP5 DUP3 PUSH1 0x20 DUP7 ADD PUSH2 0x20F JUMP JUMPDEST SWAP2 POP POP SWAP3 SWAP2 POP POP JUMP JUMPDEST PUSH0 DUP1 PUSH0 PUSH1 0x60 DUP5 DUP7 SUB SLT ISZERO PUSH2 0x294 JUMPI PUSH2 0x293 PUSH2 0x106 JUMP JUMPDEST JUMPDEST PUSH0 PUSH2 0x2A1 DUP7 DUP3 DUP8 ADD PUSH2 0x12D JUMP JUMPDEST SWAP4 POP POP PUSH1 0x20 DUP5 ADD CALLDATALOAD PUSH8 0xFFFFFFFFFFFFFFFF DUP2 GT ISZERO PUSH2 0x2C2 JUMPI PUSH2 0x2C1 PUSH2 0x10A JUMP JUMPDEST JUMPDEST PUSH2 0x2CE DUP7 DUP3 DUP8 ADD PUSH2 0x250 JUMP JUMPDEST SWAP3 POP POP PUSH1 0x40 PUSH2 0x2DF DUP7 DUP3 DUP8 ADD PUSH2 0x12D JUMP JUMPDEST SWAP2 POP POP SWAP3 POP SWAP3 POP SWAP3 JUMP JUMPDEST PUSH0 DUP3 DUP3 MSTORE PUSH1 0x20 DUP3 ADD SWAP1 POP SWAP3 SWAP2 POP POP JUMP JUMPDEST PUSH32 0x6675636B206F6666000000000000000000000000000000000000000000000000 PUSH0 DUP3 ADD MSTORE POP JUMP JUMPDEST PUSH0 PUSH2 0x32D PUSH1 0x8 DUP4 PUSH2 0x2E9 JUMP JUMPDEST SWAP2 POP PUSH2 0x338 DUP3 PUSH2 0x2F9 JUMP JUMPDEST PUSH1 0x20 DUP3 ADD SWAP1 POP SWAP2 SWAP1 POP JUMP JUMPDEST PUSH0 PUSH1 0x20 DUP3 ADD SWAP1 POP DUP2 DUP2 SUB PUSH0 DUP4 ADD MSTORE PUSH2 0x35A DUP2 PUSH2 0x321 JUMP JUMPDEST SWAP1 POP SWAP2 SWAP1 POP JUMP JUMPDEST PUSH32 0x636865636B2074686520636F6E646974696F6E00000000000000000000000000 PUSH0 DUP3 ADD MSTORE POP JUMP JUMPDEST PUSH0 PUSH2 0x395 PUSH1 0x13 DUP4 PUSH2 0x2E9 JUMP JUMPDEST SWAP2 POP PUSH2 0x3A0 DUP3 PUSH2 0x361 JUMP JUMPDEST PUSH1 0x20 DUP3 ADD SWAP1 POP SWAP2 SWAP1 POP JUMP JUMPDEST PUSH0 PUSH1 0x20 DUP3 ADD SWAP1 POP DUP2 DUP2 SUB PUSH0 DUP4 ADD MSTORE PUSH2 0x3C2 DUP2 PUSH2 0x389 JUMP JUMPDEST SWAP1 POP SWAP2 SWAP1 POP JUMP JUMPDEST PUSH0 DUP2 MLOAD SWAP1 POP SWAP2 SWAP1 POP JUMP JUMPDEST PUSH32 0x4E487B7100000000000000000000000000000000000000000000000000000000 PUSH0 MSTORE PUSH1 0x22 PUSH1 0x4 MSTORE PUSH1 0x24 PUSH0 REVERT JUMPDEST PUSH0 PUSH1 0x2 DUP3 DIV SWAP1 POP PUSH1 0x1 DUP3 AND DUP1 PUSH2 0x417 JUMPI PUSH1 0x7F DUP3 AND SWAP2 POP JUMPDEST PUSH1 0x20 DUP3 LT DUP2 SUB PUSH2 0x42A JUMPI PUSH2 0x429 PUSH2 0x3D3 JUMP JUMPDEST JUMPDEST POP SWAP2 SWAP1 POP JUMP JUMPDEST PUSH0 DUP2 SWAP1 POP DUP2 PUSH0 MSTORE PUSH1 0x20 PUSH0 KECCAK256 SWAP1 POP SWAP2 SWAP1 POP JUMP JUMPDEST PUSH0 PUSH1 0x20 PUSH1 0x1F DUP4 ADD DIV SWAP1 POP SWAP2 SWAP1 POP JUMP JUMPDEST PUSH0 DUP3 DUP3 SHL SWAP1 POP SWAP3 SWAP2 POP POP JUMP JUMPDEST PUSH0 PUSH1 0x8 DUP4 MUL PUSH2 0x48C PUSH32 0xFFFFFFFFFFFFFFFFFFFFFFFFFFFFFFFFFFFFFFFFFFFFFFFFFFFFFFFFFFFFFFFF DUP3 PUSH2 0x451 JUMP JUMPDEST PUSH2 0x496 DUP7 DUP4 PUSH2 0x451 JUMP JUMPDEST SWAP6 POP DUP1 NOT DUP5 AND SWAP4 POP DUP1 DUP7 AND DUP5 OR SWAP3 POP POP POP SWAP4 SWAP3 POP POP POP JUMP JUMPDEST PUSH0 DUP2 SWAP1 POP SWAP2 SWAP1 POP JUMP JUMPDEST PUSH0 PUSH2 0x4D1 PUSH2 0x4CC PUSH2 0x4C7 DUP5 PUSH2 0x10E JUMP JUMPDEST PUSH2 0x4AE JUMP JUMPDEST PUSH2 0x10E JUMP JUMPDEST SWAP1 POP SWAP2 SWAP1 POP JUMP JUMPDEST PUSH0 DUP2 SWAP1 POP SWAP2 SWAP1 POP JUMP JUMPDEST PUSH2 0x4EA DUP4 PUSH2 0x4B7 JUMP JUMPDEST PUSH2 0x4FE PUSH2 0x4F6 DUP3 PUSH2 0x4D8 JUMP JUMPDEST DUP5 DUP5 SLOAD PUSH2 0x45D JUMP JUMPDEST DUP3 SSTORE POP POP POP POP JUMP JUMPDEST PUSH0 SWAP1 JUMP JUMPDEST PUSH2 0x512 PUSH2 0x506 JUMP JUMPDEST PUSH2 0x51D DUP2 DUP5 DUP5 PUSH2 0x4E1 JUMP JUMPDEST POP POP POP JUMP JUMPDEST JUMPDEST DUP2 DUP2 LT ISZERO PUSH2 0x540 JUMPI PUSH2 0x535 PUSH0 DUP3 PUSH2 0x50A JUMP JUMPDEST PUSH1 0x1 DUP2 ADD SWAP1 POP PUSH2 0x523 JUMP JUMPDEST POP POP JUMP JUMPDEST PUSH1 0x1F DUP3 GT ISZERO PUSH2 0x585 JUMPI PUSH2 0x556 DUP2 PUSH2 0x430 JUMP JUMPDEST PUSH2 0x55F DUP5 PUSH2 0x442 JUMP JUMPDEST DUP2 ADD PUSH1 0x20 DUP6 LT ISZERO PUSH2 0x56E JUMPI DUP2 SWAP1 POP JUMPDEST PUSH2 0x582 PUSH2 0x57A DUP6 PUSH2 0x442 JUMP JUMPDEST DUP4 ADD DUP3 PUSH2 0x522 JUMP JUMPDEST POP POP JUMPDEST POP POP POP JUMP JUMPDEST PUSH0 DUP3 DUP3 SHR SWAP1 POP SWAP3 SWAP2 POP POP JUMP JUMPDEST PUSH0 PUSH2 0x5A5 PUSH0 NOT DUP5 PUSH1 0x8 MUL PUSH2 0x58A JUMP JUMPDEST NOT DUP1 DUP4 AND SWAP2 POP POP SWAP3 SWAP2 POP POP JUMP JUMPDEST PUSH0 PUSH2 0x5BD DUP4 DUP4 PUSH2 0x596 JUMP JUMPDEST SWAP2 POP DUP3 PUSH1 0x2 MUL DUP3 OR SWAP1 POP SWAP3 SWAP2 POP POP JUMP JUMPDEST PUSH2 0x5D6 DUP3 PUSH2 0x3C9 JUMP JUMPDEST PUSH8 0xFFFFFFFFFFFFFFFF DUP2 GT ISZERO PUSH2 0x5EF JUMPI PUSH2 0x5EE PUSH2 0x159 JUMP JUMPDEST JUMPDEST PUSH2 0x5F9 DUP3 SLOAD PUSH2 0x400 JUMP JUMPDEST PUSH2 0x604 DUP3 DUP3 DUP6 PUSH2 0x544 JUMP JUMPDEST PUSH0 PUSH1 0x20 SWAP1 POP PUSH1 0x1F DUP4 GT PUSH1 0x1 DUP2 EQ PUSH2 0x635 JUMPI PUSH0 DUP5 ISZERO PUSH2 0x623 JUMPI DUP3 DUP8 ADD MLOAD SWAP1 POP JUMPDEST PUSH2 0x62D DUP6 DUP3 PUSH2 0x5B2 JUMP JUMPDEST DUP7 SSTORE POP PUSH2 0x694 JUMP JUMPDEST PUSH1 0x1F NOT DUP5 AND PUSH2 0x643 DUP7 PUSH2 0x430 JUMP JUMPDEST PUSH0 JUMPDEST DUP3 DUP2 LT ISZERO PUSH2 0x66A JUMPI DUP5 DUP10 ADD MLOAD DUP3 SSTORE PUSH1 0x1 DUP3 ADD SWAP2 POP PUSH1 0x20 DUP6 ADD SWAP5 POP PUSH1 0x20 DUP2 ADD SWAP1 POP PUSH2 0x645 JUMP JUMPDEST DUP7 DUP4 LT ISZERO PUSH2 0x687 JUMPI DUP5 DUP10 ADD MLOAD PUSH2 0x683 PUSH1 0x1F DUP10 AND DUP3 PUSH2 0x596 JUMP JUMPDEST DUP4 SSTORE POP JUMPDEST PUSH1 0x1 PUSH1 0x2 DUP9 MUL ADD DUP9 SSTORE POP POP POP JUMPDEST POP POP POP POP POP POP JUMP INVALID LOG2 PUSH5 0x6970667358 0x22 SLT KECCAK256 0xDF 0xE6 SWAP14 JUMPDEST 0xD1 0xD8 DUP3 SWAP5 SWAP9 0xE6 0xE1 0xC0 SLOAD 0xD8 0xAB 0xC3 0xB1 PUSH4 0x3B52429D PUSH5 0x95069EA5D8 SELFDESTRUCT 0xAF DUP14 EXTCODESIZE PUSH5 0x736F6C6343 STOP ADDMOD AND STOP CALLER "
				},
				"gasEstimates": {
					"creation": {
						"codeDepositCost": "349200",
						"executionCost": "384",
						"totalCost": "349584"
					},
					"external": {
						"Get(uint256,string,uint256)": "infinite"
					}
				},
				"methodIdentifiers": {
					"Get(uint256,string,uint256)": "8fa50dc3"
				}
			},
			"storageLayout": {
				"storage": [
					{
						"astId": 68,
						"contract": "MODIFERES/Intro.sol:Both",
						"label": "s1",
						"offset": 0,
						"slot": "0",
						"type": "t_struct(Student)65_storage"
					}
				],
				"types": {
					"t_string_storage": {
						"encoding": "bytes",
						"label": "string",
						"numberOfBytes": "32"
					},
					"t_struct(Student)65_storage": {
						"encoding": "inplace",
						"label": "struct Both.Student",
						"members": [
							{
								"astId": 60,
								"contract": "MODIFERES/Intro.sol:Both",
								"label": "no",
								"offset": 0,
								"slot": "0",
								"type": "t_uint256"
							},
							{
								"astId": 62,
								"contract": "MODIFERES/Intro.sol:Both",
								"label": "name",
								"offset": 0,
								"slot": "1",
								"type": "t_string_storage"
							},
							{
								"astId": 64,
								"contract": "MODIFERES/Intro.sol:Both",
								"label": "age",
								"offset": 0,
								"slot": "2",
								"type": "t_uint256"
							}
						],
						"numberOfBytes": "96"
					},
					"t_uint256": {
						"encoding": "inplace",
						"label": "uint256",
						"numberOfBytes": "32"
					}
				}
			},
			"userdoc": {
				"kind": "user",
				"methods": {},
				"version": 1
			}
		}
	}
}