{
	"data": {
		"bytecode": {
			"linkReferences": {},
			"object": "608060405234801561000f575f80fd5b506103a58061001d5f395ff3fe608060405234801561000f575f80fd5b506004361061004a575f3560e01c8063157b51671461004e578063262a9dff1461006d5780637b8239fa1461008b578063946644cd146100aa575b5f80fd5b6100566100c9565b6040516100649291906102ba565b60405180910390f35b610075610137565b60405161008291906102e8565b60405180910390f35b61009361013c565b6040516100a19291906102ba565b60405180910390f35b6100b26101aa565b6040516100c09291906102ba565b60405180910390f35b5f60605f5b60058112156100f657805f546100e4919061032e565b5f8190555080806001019150506100ce565b505f546040518060400160405280600581526020017f68656c6c6f000000000000000000000000000000000000000000000000000000815250915091509091565b5f5481565b5f60605f5b600581121561016957805f54610157919061032e565b5f819055508080600101915050610141565b505f546040518060400160405280600581526020017f68656c6c6f000000000000000000000000000000000000000000000000000000815250915091509091565b5f60605f5b60058112156101d757805f546101c5919061032e565b5f8190555080806001019150506101af565b505f546040518060400160405280600581526020017f68656c6c6f000000000000000000000000000000000000000000000000000000815250915091509091565b5f819050919050565b61022a81610218565b82525050565b5f81519050919050565b5f82825260208201905092915050565b5f5b8381101561026757808201518184015260208101905061024c565b5f8484015250505050565b5f601f19601f8301169050919050565b5f61028c82610230565b610296818561023a565b93506102a681856020860161024a565b6102af81610272565b840191505092915050565b5f6040820190506102cd5f830185610221565b81810360208301526102df8184610282565b90509392505050565b5f6020820190506102fb5f830184610221565b92915050565b7f4e487b71000000000000000000000000000000000000000000000000000000005f52601160045260245ffd5b5f61033882610218565b915061034383610218565b92508282019050828112155f8312168382125f84121516171561036957610368610301565b5b9291505056fea2646970667358221220fed4453939b71ee4ea0385f924f7b78bffab6704b31f0e1cd4b69c87ec4c1cc364736f6c63430008160033",
			"opcodes": "PUSH1 0x80 PUSH1 0x40 MSTORE CALLVALUE DUP1 ISZERO PUSH2 0xF JUMPI PUSH0 DUP1 REVERT JUMPDEST POP PUSH2 0x3A5 DUP1 PUSH2 0x1D PUSH0 CODECOPY PUSH0 RETURN INVALID PUSH1 0x80 PUSH1 0x40 MSTORE CALLVALUE DUP1 ISZERO PUSH2 0xF JUMPI PUSH0 DUP1 REVERT JUMPDEST POP PUSH1 0x4 CALLDATASIZE LT PUSH2 0x4A JUMPI PUSH0 CALLDATALOAD PUSH1 0xE0 SHR DUP1 PUSH4 0x157B5167 EQ PUSH2 0x4E JUMPI DUP1 PUSH4 0x262A9DFF EQ PUSH2 0x6D JUMPI DUP1 PUSH4 0x7B8239FA EQ PUSH2 0x8B JUMPI DUP1 PUSH4 0x946644CD EQ PUSH2 0xAA JUMPI JUMPDEST PUSH0 DUP1 REVERT JUMPDEST PUSH2 0x56 PUSH2 0xC9 JUMP JUMPDEST PUSH1 0x40 MLOAD PUSH2 0x64 SWAP3 SWAP2 SWAP1 PUSH2 0x2BA JUMP JUMPDEST PUSH1 0x40 MLOAD DUP1 SWAP2 SUB SWAP1 RETURN JUMPDEST PUSH2 0x75 PUSH2 0x137 JUMP JUMPDEST PUSH1 0x40 MLOAD PUSH2 0x82 SWAP2 SWAP1 PUSH2 0x2E8 JUMP JUMPDEST PUSH1 0x40 MLOAD DUP1 SWAP2 SUB SWAP1 RETURN JUMPDEST PUSH2 0x93 PUSH2 0x13C JUMP JUMPDEST PUSH1 0x40 MLOAD PUSH2 0xA1 SWAP3 SWAP2 SWAP1 PUSH2 0x2BA JUMP JUMPDEST PUSH1 0x40 MLOAD DUP1 SWAP2 SUB SWAP1 RETURN JUMPDEST PUSH2 0xB2 PUSH2 0x1AA JUMP JUMPDEST PUSH1 0x40 MLOAD PUSH2 0xC0 SWAP3 SWAP2 SWAP1 PUSH2 0x2BA JUMP JUMPDEST PUSH1 0x40 MLOAD DUP1 SWAP2 SUB SWAP1 RETURN JUMPDEST PUSH0 PUSH1 0x60 PUSH0 JUMPDEST PUSH1 0x5 DUP2 SLT ISZERO PUSH2 0xF6 JUMPI DUP1 PUSH0 SLOAD PUSH2 0xE4 SWAP2 SWAP1 PUSH2 0x32E JUMP JUMPDEST PUSH0 DUP2 SWAP1 SSTORE POP DUP1 DUP1 PUSH1 0x1 ADD SWAP2 POP POP PUSH2 0xCE JUMP JUMPDEST POP PUSH0 SLOAD PUSH1 0x40 MLOAD DUP1 PUSH1 0x40 ADD PUSH1 0x40 MSTORE DUP1 PUSH1 0x5 DUP2 MSTORE PUSH1 0x20 ADD PUSH32 0x68656C6C6F000000000000000000000000000000000000000000000000000000 DUP2 MSTORE POP SWAP2 POP SWAP2 POP SWAP1 SWAP2 JUMP JUMPDEST PUSH0 SLOAD DUP2 JUMP JUMPDEST PUSH0 PUSH1 0x60 PUSH0 JUMPDEST PUSH1 0x5 DUP2 SLT ISZERO PUSH2 0x169 JUMPI DUP1 PUSH0 SLOAD PUSH2 0x157 SWAP2 SWAP1 PUSH2 0x32E JUMP JUMPDEST PUSH0 DUP2 SWAP1 SSTORE POP DUP1 DUP1 PUSH1 0x1 ADD SWAP2 POP POP PUSH2 0x141 JUMP JUMPDEST POP PUSH0 SLOAD PUSH1 0x40 MLOAD DUP1 PUSH1 0x40 ADD PUSH1 0x40 MSTORE DUP1 PUSH1 0x5 DUP2 MSTORE PUSH1 0x20 ADD PUSH32 0x68656C6C6F000000000000000000000000000000000000000000000000000000 DUP2 MSTORE POP SWAP2 POP SWAP2 POP SWAP1 SWAP2 JUMP JUMPDEST PUSH0 PUSH1 0x60 PUSH0 JUMPDEST PUSH1 0x5 DUP2 SLT ISZERO PUSH2 0x1D7 JUMPI DUP1 PUSH0 SLOAD PUSH2 0x1C5 SWAP2 SWAP1 PUSH2 0x32E JUMP JUMPDEST PUSH0 DUP2 SWAP1 SSTORE POP DUP1 DUP1 PUSH1 0x1 ADD SWAP2 POP POP PUSH2 0x1AF JUMP JUMPDEST POP PUSH0 SLOAD PUSH1 0x40 MLOAD DUP1 PUSH1 0x40 ADD PUSH1 0x40 MSTORE DUP1 PUSH1 0x5 DUP2 MSTORE PUSH1 0x20 ADD PUSH32 0x68656C6C6F000000000000000000000000000000000000000000000000000000 DUP2 MSTORE POP SWAP2 POP SWAP2 POP SWAP1 SWAP2 JUMP JUMPDEST PUSH0 DUP2 SWAP1 POP SWAP2 SWAP1 POP JUMP JUMPDEST PUSH2 0x22A DUP2 PUSH2 0x218 JUMP JUMPDEST DUP3 MSTORE POP POP JUMP JUMPDEST PUSH0 DUP2 MLOAD SWAP1 POP SWAP2 SWAP1 POP JUMP JUMPDEST PUSH0 DUP3 DUP3 MSTORE PUSH1 0x20 DUP3 ADD SWAP1 POP SWAP3 SWAP2 POP POP JUMP JUMPDEST PUSH0 JUMPDEST DUP4 DUP2 LT ISZERO PUSH2 0x267 JUMPI DUP1 DUP3 ADD MLOAD DUP2 DUP5 ADD MSTORE PUSH1 0x20 DUP2 ADD SWAP1 POP PUSH2 0x24C JUMP JUMPDEST PUSH0 DUP5 DUP5 ADD MSTORE POP POP POP POP JUMP JUMPDEST PUSH0 PUSH1 0x1F NOT PUSH1 0x1F DUP4 ADD AND SWAP1 POP SWAP2 SWAP1 POP JUMP JUMPDEST PUSH0 PUSH2 0x28C DUP3 PUSH2 0x230 JUMP JUMPDEST PUSH2 0x296 DUP2 DUP6 PUSH2 0x23A JUMP JUMPDEST SWAP4 POP PUSH2 0x2A6 DUP2 DUP6 PUSH1 0x20 DUP7 ADD PUSH2 0x24A JUMP JUMPDEST PUSH2 0x2AF DUP2 PUSH2 0x272 JUMP JUMPDEST DUP5 ADD SWAP2 POP POP SWAP3 SWAP2 POP POP JUMP JUMPDEST PUSH0 PUSH1 0x40 DUP3 ADD SWAP1 POP PUSH2 0x2CD PUSH0 DUP4 ADD DUP6 PUSH2 0x221 JUMP JUMPDEST DUP2 DUP2 SUB PUSH1 0x20 DUP4 ADD MSTORE PUSH2 0x2DF DUP2 DUP5 PUSH2 0x282 JUMP JUMPDEST SWAP1 POP SWAP4 SWAP3 POP POP POP JUMP JUMPDEST PUSH0 PUSH1 0x20 DUP3 ADD SWAP1 POP PUSH2 0x2FB PUSH0 DUP4 ADD DUP5 PUSH2 0x221 JUMP JUMPDEST SWAP3 SWAP2 POP POP JUMP JUMPDEST PUSH32 0x4E487B7100000000000000000000000000000000000000000000000000000000 PUSH0 MSTORE PUSH1 0x11 PUSH1 0x4 MSTORE PUSH1 0x24 PUSH0 REVERT JUMPDEST PUSH0 PUSH2 0x338 DUP3 PUSH2 0x218 JUMP JUMPDEST SWAP2 POP PUSH2 0x343 DUP4 PUSH2 0x218 JUMP JUMPDEST SWAP3 POP DUP3 DUP3 ADD SWAP1 POP DUP3 DUP2 SLT ISZERO PUSH0 DUP4 SLT AND DUP4 DUP3 SLT PUSH0 DUP5 SLT ISZERO AND OR ISZERO PUSH2 0x369 JUMPI PUSH2 0x368 PUSH2 0x301 JUMP JUMPDEST JUMPDEST SWAP3 SWAP2 POP POP JUMP INVALID LOG2 PUSH5 0x6970667358 0x22 SLT KECCAK256 INVALID 0xD4 GASLIMIT CODECOPY CODECOPY 0xB7 0x1E 0xE4 0xEA SUB DUP6 0xF9 0x24 0xF7 0xB7 DUP12 SELFDESTRUCT 0xAB PUSH8 0x4B31F0E1CD4B69C DUP8 0xEC 0x4C SHR 0xC3 PUSH5 0x736F6C6343 STOP ADDMOD AND STOP CALLER "
		},
		"gasEstimates": {
			"creation": {
				"codeDepositCost": "186600",
				"executionCost": "230",
				"totalCost": "186830"
			},
			"external": {
				"age()": "2424",
				"fun()": "infinite",
				"fun2()": "infinite",
				"fun3()": "infinite"
			}
		},
		"methodIdentifiers": {
			"age()": "262a9dff",
			"fun()": "946644cd",
			"fun2()": "157b5167",
			"fun3()": "7b8239fa"
		}
	},
	"abi": [
		{
			"inputs": [],
			"name": "age",
			"outputs": [
				{
					"internalType": "int256",
					"name": "",
					"type": "int256"
				}
			],
			"stateMutability": "view",
			"type": "function"
		},
		{
			"inputs": [],
			"name": "fun",
			"outputs": [
				{
					"internalType": "int256",
					"name": "",
					"type": "int256"
				},
				{
					"internalType": "string",
					"name": "",
					"type": "string"
				}
			],
			"stateMutability": "nonpayable",
			"type": "function"
		},
		{
			"inputs": [],
			"name": "fun2",
			"outputs": [
				{
					"internalType": "int256",
					"name": "",
					"type": "int256"
				},
				{
					"internalType": "string",
					"name": "",
					"type": "string"
				}
			],
			"stateMutability": "nonpayable",
			"type": "function"
		},
		{
			"inputs": [],
			"name": "fun3",
			"outputs": [
				{
					"internalType": "int256",
					"name": "",
					"type": "int256"
				},
				{
					"internalType": "string",
					"name": "",
					"type": "string"
				}
			],
			"stateMutability": "nonpayable",
			"type": "function"
		}
	]
}