{
	"FallBack_Receive/Both_Event.sol": {
		"hlo": {
			"abi": [
				{
					"anonymous": false,
					"inputs": [
						{
							"indexed": false,
							"internalType": "string",
							"name": "_fun",
							"type": "string"
						},
						{
							"indexed": false,
							"internalType": "address",
							"name": "_sender",
							"type": "address"
						},
						{
							"indexed": false,
							"internalType": "uint256",
							"name": "_val",
							"type": "uint256"
						},
						{
							"indexed": false,
							"internalType": "bytes",
							"name": "_data",
							"type": "bytes"
						}
					],
					"name": "Log",
					"type": "event"
				},
				{
					"stateMutability": "payable",
					"type": "fallback"
				},
				{
					"inputs": [],
					"name": "Chek",
					"outputs": [
						{
							"internalType": "uint256",
							"name": "",
							"type": "uint256"
						}
					],
					"stateMutability": "view",
					"type": "function"
				},
				{
					"stateMutability": "payable",
					"type": "receive"
				}
			],
			"devdoc": {
				"kind": "dev",
				"methods": {},
				"version": 1
			},
			"evm": {
				"assembly": "    /* \"FallBack_Receive/Both_Event.sol\":65:465  contract hlo... */\n  mstore(0x40, 0x80)\n  callvalue\n  dup1\n  iszero\n  tag_1\n  jumpi\n  0x00\n  dup1\n  revert\ntag_1:\n  pop\n  dataSize(sub_0)\n  dup1\n  dataOffset(sub_0)\n  0x00\n  codecopy\n  0x00\n  return\nstop\n\nsub_0: assembly {\n        /* \"FallBack_Receive/Both_Event.sol\":65:465  contract hlo... */\n      mstore(0x40, 0x80)\n      jumpi(tag_1, lt(calldatasize, 0x04))\n      shr(0xe0, calldataload(0x00))\n      dup1\n      0xebe4fe11\n      eq\n      tag_3\n      jumpi\n      jump(tag_2)\n    tag_1:\n      jumpi(tag_2, calldatasize)\n        /* \"FallBack_Receive/Both_Event.sol\":315:354  Log(\"receive\",msg.sender,msg.value,\" \") */\n      0xf7f75251dee7d7fc22deac3247729ebe7c86541f35930bf10c2a4207479a3b6c\n        /* \"FallBack_Receive/Both_Event.sol\":329:339  msg.sender */\n      caller\n        /* \"FallBack_Receive/Both_Event.sol\":340:349  msg.value */\n      callvalue\n        /* \"FallBack_Receive/Both_Event.sol\":315:354  Log(\"receive\",msg.sender,msg.value,\" \") */\n      mload(0x40)\n      tag_6\n      swap3\n      swap2\n      swap1\n      tag_7\n      jump\t// in\n    tag_6:\n      mload(0x40)\n      dup1\n      swap2\n      sub\n      swap1\n      log1\n        /* \"FallBack_Receive/Both_Event.sol\":65:465  contract hlo... */\n      stop\n    tag_2:\n        /* \"FallBack_Receive/Both_Event.sol\":208:253  Log(\"fallback\",msg.sender,msg.value,msg.data) */\n      0xf7f75251dee7d7fc22deac3247729ebe7c86541f35930bf10c2a4207479a3b6c\n        /* \"FallBack_Receive/Both_Event.sol\":223:233  msg.sender */\n      caller\n        /* \"FallBack_Receive/Both_Event.sol\":234:243  msg.value */\n      callvalue\n        /* \"FallBack_Receive/Both_Event.sol\":244:252  msg.data */\n      0x00\n      calldatasize\n        /* \"FallBack_Receive/Both_Event.sol\":208:253  Log(\"fallback\",msg.sender,msg.value,msg.data) */\n      mload(0x40)\n      tag_10\n      swap5\n      swap4\n      swap3\n      swap2\n      swap1\n      tag_11\n      jump\t// in\n    tag_10:\n      mload(0x40)\n      dup1\n      swap2\n      sub\n      swap1\n      log1\n        /* \"FallBack_Receive/Both_Event.sol\":65:465  contract hlo... */\n      stop\n        /* \"FallBack_Receive/Both_Event.sol\":368:462  function Chek() public view returns(uint)... */\n    tag_3:\n      callvalue\n      dup1\n      iszero\n      tag_12\n      jumpi\n      0x00\n      dup1\n      revert\n    tag_12:\n      pop\n      tag_13\n      tag_14\n      jump\t// in\n    tag_13:\n      mload(0x40)\n      tag_15\n      swap2\n      swap1\n      tag_16\n      jump\t// in\n    tag_15:\n      mload(0x40)\n      dup1\n      swap2\n      sub\n      swap1\n      return\n    tag_14:\n        /* \"FallBack_Receive/Both_Event.sol\":404:408  uint */\n      0x00\n        /* \"FallBack_Receive/Both_Event.sol\":433:454  address(this).balance */\n      selfbalance\n        /* \"FallBack_Receive/Both_Event.sol\":426:454  return address(this).balance */\n      swap1\n      pop\n        /* \"FallBack_Receive/Both_Event.sol\":368:462  function Chek() public view returns(uint)... */\n      swap1\n      jump\t// out\n        /* \"#utility.yul\":7:176   */\n    tag_18:\n        /* \"#utility.yul\":91:102   */\n      0x00\n        /* \"#utility.yul\":125:131   */\n      dup3\n        /* \"#utility.yul\":120:123   */\n      dup3\n        /* \"#utility.yul\":113:132   */\n      mstore\n        /* \"#utility.yul\":165:169   */\n      0x20\n        /* \"#utility.yul\":160:163   */\n      dup3\n        /* \"#utility.yul\":156:170   */\n      add\n        /* \"#utility.yul\":141:170   */\n      swap1\n      pop\n        /* \"#utility.yul\":7:176   */\n      swap3\n      swap2\n      pop\n      pop\n      jump\t// out\n        /* \"#utility.yul\":182:339   */\n    tag_19:\n        /* \"#utility.yul\":322:331   */\n      0x7265636569766500000000000000000000000000000000000000000000000000\n        /* \"#utility.yul\":318:319   */\n      0x00\n        /* \"#utility.yul\":310:316   */\n      dup3\n        /* \"#utility.yul\":306:320   */\n      add\n        /* \"#utility.yul\":299:332   */\n      mstore\n        /* \"#utility.yul\":182:339   */\n      pop\n      jump\t// out\n        /* \"#utility.yul\":345:710   */\n    tag_20:\n        /* \"#utility.yul\":487:490   */\n      0x00\n        /* \"#utility.yul\":508:574   */\n      tag_38\n        /* \"#utility.yul\":572:573   */\n      0x07\n        /* \"#utility.yul\":567:570   */\n      dup4\n        /* \"#utility.yul\":508:574   */\n      tag_18\n      jump\t// in\n    tag_38:\n        /* \"#utility.yul\":501:574   */\n      swap2\n      pop\n        /* \"#utility.yul\":583:676   */\n      tag_39\n        /* \"#utility.yul\":672:675   */\n      dup3\n        /* \"#utility.yul\":583:676   */\n      tag_19\n      jump\t// in\n    tag_39:\n        /* \"#utility.yul\":701:703   */\n      0x20\n        /* \"#utility.yul\":696:699   */\n      dup3\n        /* \"#utility.yul\":692:704   */\n      add\n        /* \"#utility.yul\":685:704   */\n      swap1\n      pop\n        /* \"#utility.yul\":345:710   */\n      swap2\n      swap1\n      pop\n      jump\t// out\n        /* \"#utility.yul\":716:842   */\n    tag_21:\n        /* \"#utility.yul\":753:760   */\n      0x00\n        /* \"#utility.yul\":793:835   */\n      0xffffffffffffffffffffffffffffffffffffffff\n        /* \"#utility.yul\":786:791   */\n      dup3\n        /* \"#utility.yul\":782:836   */\n      and\n        /* \"#utility.yul\":771:836   */\n      swap1\n      pop\n        /* \"#utility.yul\":716:842   */\n      swap2\n      swap1\n      pop\n      jump\t// out\n        /* \"#utility.yul\":848:944   */\n    tag_22:\n        /* \"#utility.yul\":885:892   */\n      0x00\n        /* \"#utility.yul\":914:938   */\n      tag_42\n        /* \"#utility.yul\":932:937   */\n      dup3\n        /* \"#utility.yul\":914:938   */\n      tag_21\n      jump\t// in\n    tag_42:\n        /* \"#utility.yul\":903:938   */\n      swap1\n      pop\n        /* \"#utility.yul\":848:944   */\n      swap2\n      swap1\n      pop\n      jump\t// out\n        /* \"#utility.yul\":950:1068   */\n    tag_23:\n        /* \"#utility.yul\":1037:1061   */\n      tag_44\n        /* \"#utility.yul\":1055:1060   */\n      dup2\n        /* \"#utility.yul\":1037:1061   */\n      tag_22\n      jump\t// in\n    tag_44:\n        /* \"#utility.yul\":1032:1035   */\n      dup3\n        /* \"#utility.yul\":1025:1062   */\n      mstore\n        /* \"#utility.yul\":950:1068   */\n      pop\n      pop\n      jump\t// out\n        /* \"#utility.yul\":1074:1151   */\n    tag_24:\n        /* \"#utility.yul\":1111:1118   */\n      0x00\n        /* \"#utility.yul\":1140:1145   */\n      dup2\n        /* \"#utility.yul\":1129:1145   */\n      swap1\n      pop\n        /* \"#utility.yul\":1074:1151   */\n      swap2\n      swap1\n      pop\n      jump\t// out\n        /* \"#utility.yul\":1157:1275   */\n    tag_25:\n        /* \"#utility.yul\":1244:1268   */\n      tag_47\n        /* \"#utility.yul\":1262:1267   */\n      dup2\n        /* \"#utility.yul\":1244:1268   */\n      tag_24\n      jump\t// in\n    tag_47:\n        /* \"#utility.yul\":1239:1242   */\n      dup3\n        /* \"#utility.yul\":1232:1269   */\n      mstore\n        /* \"#utility.yul\":1157:1275   */\n      pop\n      pop\n      jump\t// out\n        /* \"#utility.yul\":1281:1449   */\n    tag_26:\n        /* \"#utility.yul\":1364:1375   */\n      0x00\n        /* \"#utility.yul\":1398:1404   */\n      dup3\n        /* \"#utility.yul\":1393:1396   */\n      dup3\n        /* \"#utility.yul\":1386:1405   */\n      mstore\n        /* \"#utility.yul\":1438:1442   */\n      0x20\n        /* \"#utility.yul\":1433:1436   */\n      dup3\n        /* \"#utility.yul\":1429:1443   */\n      add\n        /* \"#utility.yul\":1414:1443   */\n      swap1\n      pop\n        /* \"#utility.yul\":1281:1449   */\n      swap3\n      swap2\n      pop\n      pop\n      jump\t// out\n        /* \"#utility.yul\":1455:1606   */\n    tag_27:\n        /* \"#utility.yul\":1595:1598   */\n      0x2000000000000000000000000000000000000000000000000000000000000000\n        /* \"#utility.yul\":1591:1592   */\n      0x00\n        /* \"#utility.yul\":1583:1589   */\n      dup3\n        /* \"#utility.yul\":1579:1593   */\n      add\n        /* \"#utility.yul\":1572:1599   */\n      mstore\n        /* \"#utility.yul\":1455:1606   */\n      pop\n      jump\t// out\n        /* \"#utility.yul\":1612:1975   */\n    tag_28:\n        /* \"#utility.yul\":1753:1756   */\n      0x00\n        /* \"#utility.yul\":1774:1839   */\n      tag_51\n        /* \"#utility.yul\":1837:1838   */\n      0x01\n        /* \"#utility.yul\":1832:1835   */\n      dup4\n        /* \"#utility.yul\":1774:1839   */\n      tag_26\n      jump\t// in\n    tag_51:\n        /* \"#utility.yul\":1767:1839   */\n      swap2\n      pop\n        /* \"#utility.yul\":1848:1941   */\n      tag_52\n        /* \"#utility.yul\":1937:1940   */\n      dup3\n        /* \"#utility.yul\":1848:1941   */\n      tag_27\n      jump\t// in\n    tag_52:\n        /* \"#utility.yul\":1966:1968   */\n      0x20\n        /* \"#utility.yul\":1961:1964   */\n      dup3\n        /* \"#utility.yul\":1957:1969   */\n      add\n        /* \"#utility.yul\":1950:1969   */\n      swap1\n      pop\n        /* \"#utility.yul\":1612:1975   */\n      swap2\n      swap1\n      pop\n      jump\t// out\n        /* \"#utility.yul\":1981:2926   */\n    tag_7:\n        /* \"#utility.yul\":2303:2307   */\n      0x00\n        /* \"#utility.yul\":2341:2344   */\n      0x80\n        /* \"#utility.yul\":2330:2339   */\n      dup3\n        /* \"#utility.yul\":2326:2345   */\n      add\n        /* \"#utility.yul\":2318:2345   */\n      swap1\n      pop\n        /* \"#utility.yul\":2391:2400   */\n      dup2\n        /* \"#utility.yul\":2385:2389   */\n      dup2\n        /* \"#utility.yul\":2381:2401   */\n      sub\n        /* \"#utility.yul\":2377:2378   */\n      0x00\n        /* \"#utility.yul\":2366:2375   */\n      dup4\n        /* \"#utility.yul\":2362:2379   */\n      add\n        /* \"#utility.yul\":2355:2402   */\n      mstore\n        /* \"#utility.yul\":2419:2550   */\n      tag_54\n        /* \"#utility.yul\":2545:2549   */\n      dup2\n        /* \"#utility.yul\":2419:2550   */\n      tag_20\n      jump\t// in\n    tag_54:\n        /* \"#utility.yul\":2411:2550   */\n      swap1\n      pop\n        /* \"#utility.yul\":2560:2632   */\n      tag_55\n        /* \"#utility.yul\":2628:2630   */\n      0x20\n        /* \"#utility.yul\":2617:2626   */\n      dup4\n        /* \"#utility.yul\":2613:2631   */\n      add\n        /* \"#utility.yul\":2604:2610   */\n      dup6\n        /* \"#utility.yul\":2560:2632   */\n      tag_23\n      jump\t// in\n    tag_55:\n        /* \"#utility.yul\":2642:2714   */\n      tag_56\n        /* \"#utility.yul\":2710:2712   */\n      0x40\n        /* \"#utility.yul\":2699:2708   */\n      dup4\n        /* \"#utility.yul\":2695:2713   */\n      add\n        /* \"#utility.yul\":2686:2692   */\n      dup5\n        /* \"#utility.yul\":2642:2714   */\n      tag_25\n      jump\t// in\n    tag_56:\n        /* \"#utility.yul\":2761:2770   */\n      dup2\n        /* \"#utility.yul\":2755:2759   */\n      dup2\n        /* \"#utility.yul\":2751:2771   */\n      sub\n        /* \"#utility.yul\":2746:2748   */\n      0x60\n        /* \"#utility.yul\":2735:2744   */\n      dup4\n        /* \"#utility.yul\":2731:2749   */\n      add\n        /* \"#utility.yul\":2724:2772   */\n      mstore\n        /* \"#utility.yul\":2789:2919   */\n      tag_57\n        /* \"#utility.yul\":2914:2918   */\n      dup2\n        /* \"#utility.yul\":2789:2919   */\n      tag_28\n      jump\t// in\n    tag_57:\n        /* \"#utility.yul\":2781:2919   */\n      swap1\n      pop\n        /* \"#utility.yul\":1981:2926   */\n      swap4\n      swap3\n      pop\n      pop\n      pop\n      jump\t// out\n        /* \"#utility.yul\":2932:3090   */\n    tag_29:\n        /* \"#utility.yul\":3072:3082   */\n      0x66616c6c6261636b000000000000000000000000000000000000000000000000\n        /* \"#utility.yul\":3068:3069   */\n      0x00\n        /* \"#utility.yul\":3060:3066   */\n      dup3\n        /* \"#utility.yul\":3056:3070   */\n      add\n        /* \"#utility.yul\":3049:3083   */\n      mstore\n        /* \"#utility.yul\":2932:3090   */\n      pop\n      jump\t// out\n        /* \"#utility.yul\":3096:3461   */\n    tag_30:\n        /* \"#utility.yul\":3238:3241   */\n      0x00\n        /* \"#utility.yul\":3259:3325   */\n      tag_60\n        /* \"#utility.yul\":3323:3324   */\n      0x08\n        /* \"#utility.yul\":3318:3321   */\n      dup4\n        /* \"#utility.yul\":3259:3325   */\n      tag_18\n      jump\t// in\n    tag_60:\n        /* \"#utility.yul\":3252:3325   */\n      swap2\n      pop\n        /* \"#utility.yul\":3334:3427   */\n      tag_61\n        /* \"#utility.yul\":3423:3426   */\n      dup3\n        /* \"#utility.yul\":3334:3427   */\n      tag_29\n      jump\t// in\n    tag_61:\n        /* \"#utility.yul\":3452:3454   */\n      0x20\n        /* \"#utility.yul\":3447:3450   */\n      dup3\n        /* \"#utility.yul\":3443:3455   */\n      add\n        /* \"#utility.yul\":3436:3455   */\n      swap1\n      pop\n        /* \"#utility.yul\":3096:3461   */\n      swap2\n      swap1\n      pop\n      jump\t// out\n        /* \"#utility.yul\":3467:3613   */\n    tag_31:\n        /* \"#utility.yul\":3564:3570   */\n      dup3\n        /* \"#utility.yul\":3559:3562   */\n      dup2\n        /* \"#utility.yul\":3554:3557   */\n      dup4\n        /* \"#utility.yul\":3541:3571   */\n      calldatacopy\n        /* \"#utility.yul\":3605:3606   */\n      0x00\n        /* \"#utility.yul\":3596:3602   */\n      dup4\n        /* \"#utility.yul\":3591:3594   */\n      dup4\n        /* \"#utility.yul\":3587:3603   */\n      add\n        /* \"#utility.yul\":3580:3607   */\n      mstore\n        /* \"#utility.yul\":3467:3613   */\n      pop\n      pop\n      pop\n      jump\t// out\n        /* \"#utility.yul\":3619:3721   */\n    tag_32:\n        /* \"#utility.yul\":3660:3666   */\n      0x00\n        /* \"#utility.yul\":3711:3713   */\n      0x1f\n        /* \"#utility.yul\":3707:3714   */\n      not\n        /* \"#utility.yul\":3702:3704   */\n      0x1f\n        /* \"#utility.yul\":3695:3700   */\n      dup4\n        /* \"#utility.yul\":3691:3705   */\n      add\n        /* \"#utility.yul\":3687:3715   */\n      and\n        /* \"#utility.yul\":3677:3715   */\n      swap1\n      pop\n        /* \"#utility.yul\":3619:3721   */\n      swap2\n      swap1\n      pop\n      jump\t// out\n        /* \"#utility.yul\":3749:4063   */\n    tag_33:\n        /* \"#utility.yul\":3845:3848   */\n      0x00\n        /* \"#utility.yul\":3866:3936   */\n      tag_65\n        /* \"#utility.yul\":3929:3935   */\n      dup4\n        /* \"#utility.yul\":3924:3927   */\n      dup6\n        /* \"#utility.yul\":3866:3936   */\n      tag_26\n      jump\t// in\n    tag_65:\n        /* \"#utility.yul\":3859:3936   */\n      swap4\n      pop\n        /* \"#utility.yul\":3946:4002   */\n      tag_66\n        /* \"#utility.yul\":3995:4001   */\n      dup4\n        /* \"#utility.yul\":3990:3993   */\n      dup6\n        /* \"#utility.yul\":3983:3988   */\n      dup5\n        /* \"#utility.yul\":3946:4002   */\n      tag_31\n      jump\t// in\n    tag_66:\n        /* \"#utility.yul\":4027:4056   */\n      tag_67\n        /* \"#utility.yul\":4049:4055   */\n      dup4\n        /* \"#utility.yul\":4027:4056   */\n      tag_32\n      jump\t// in\n    tag_67:\n        /* \"#utility.yul\":4022:4025   */\n      dup5\n        /* \"#utility.yul\":4018:4057   */\n      add\n        /* \"#utility.yul\":4011:4057   */\n      swap1\n      pop\n        /* \"#utility.yul\":3749:4063   */\n      swap4\n      swap3\n      pop\n      pop\n      pop\n      jump\t// out\n        /* \"#utility.yul\":4069:4926   */\n    tag_11:\n        /* \"#utility.yul\":4347:4351   */\n      0x00\n        /* \"#utility.yul\":4385:4388   */\n      0x80\n        /* \"#utility.yul\":4374:4383   */\n      dup3\n        /* \"#utility.yul\":4370:4389   */\n      add\n        /* \"#utility.yul\":4362:4389   */\n      swap1\n      pop\n        /* \"#utility.yul\":4435:4444   */\n      dup2\n        /* \"#utility.yul\":4429:4433   */\n      dup2\n        /* \"#utility.yul\":4425:4445   */\n      sub\n        /* \"#utility.yul\":4421:4422   */\n      0x00\n        /* \"#utility.yul\":4410:4419   */\n      dup4\n        /* \"#utility.yul\":4406:4423   */\n      add\n        /* \"#utility.yul\":4399:4446   */\n      mstore\n        /* \"#utility.yul\":4463:4594   */\n      tag_69\n        /* \"#utility.yul\":4589:4593   */\n      dup2\n        /* \"#utility.yul\":4463:4594   */\n      tag_30\n      jump\t// in\n    tag_69:\n        /* \"#utility.yul\":4455:4594   */\n      swap1\n      pop\n        /* \"#utility.yul\":4604:4676   */\n      tag_70\n        /* \"#utility.yul\":4672:4674   */\n      0x20\n        /* \"#utility.yul\":4661:4670   */\n      dup4\n        /* \"#utility.yul\":4657:4675   */\n      add\n        /* \"#utility.yul\":4648:4654   */\n      dup8\n        /* \"#utility.yul\":4604:4676   */\n      tag_23\n      jump\t// in\n    tag_70:\n        /* \"#utility.yul\":4686:4758   */\n      tag_71\n        /* \"#utility.yul\":4754:4756   */\n      0x40\n        /* \"#utility.yul\":4743:4752   */\n      dup4\n        /* \"#utility.yul\":4739:4757   */\n      add\n        /* \"#utility.yul\":4730:4736   */\n      dup7\n        /* \"#utility.yul\":4686:4758   */\n      tag_25\n      jump\t// in\n    tag_71:\n        /* \"#utility.yul\":4805:4814   */\n      dup2\n        /* \"#utility.yul\":4799:4803   */\n      dup2\n        /* \"#utility.yul\":4795:4815   */\n      sub\n        /* \"#utility.yul\":4790:4792   */\n      0x60\n        /* \"#utility.yul\":4779:4788   */\n      dup4\n        /* \"#utility.yul\":4775:4793   */\n      add\n        /* \"#utility.yul\":4768:4816   */\n      mstore\n        /* \"#utility.yul\":4833:4919   */\n      tag_72\n        /* \"#utility.yul\":4914:4918   */\n      dup2\n        /* \"#utility.yul\":4905:4911   */\n      dup5\n        /* \"#utility.yul\":4897:4903   */\n      dup7\n        /* \"#utility.yul\":4833:4919   */\n      tag_33\n      jump\t// in\n    tag_72:\n        /* \"#utility.yul\":4825:4919   */\n      swap1\n      pop\n        /* \"#utility.yul\":4069:4926   */\n      swap6\n      swap5\n      pop\n      pop\n      pop\n      pop\n      pop\n      jump\t// out\n        /* \"#utility.yul\":4932:5154   */\n    tag_16:\n        /* \"#utility.yul\":5025:5029   */\n      0x00\n        /* \"#utility.yul\":5063:5065   */\n      0x20\n        /* \"#utility.yul\":5052:5061   */\n      dup3\n        /* \"#utility.yul\":5048:5066   */\n      add\n        /* \"#utility.yul\":5040:5066   */\n      swap1\n      pop\n        /* \"#utility.yul\":5076:5147   */\n      tag_74\n        /* \"#utility.yul\":5144:5145   */\n      0x00\n        /* \"#utility.yul\":5133:5142   */\n      dup4\n        /* \"#utility.yul\":5129:5146   */\n      add\n        /* \"#utility.yul\":5120:5126   */\n      dup5\n        /* \"#utility.yul\":5076:5147   */\n      tag_25\n      jump\t// in\n    tag_74:\n        /* \"#utility.yul\":4932:5154   */\n      swap3\n      swap2\n      pop\n      pop\n      jump\t// out\n\n    auxdata: 0xa2646970667358221220b9e50a2a27ea0a7c6421ecf437e3f38723712dde385ac8ddbade3806237d15bd64736f6c63430008160033\n}\n",
				"bytecode": {
					"linkReferences": {},
					"object": "608060405234801561000f575f80fd5b5061035d8061001d5f395ff3fe608060405260043610610021575f3560e01c8063ebe4fe11146100a057610061565b36610061577ff7f75251dee7d7fc22deac3247729ebe7c86541f35930bf10c2a4207479a3b6c33346040516100579291906101dc565b60405180910390a1005b7ff7f75251dee7d7fc22deac3247729ebe7c86541f35930bf10c2a4207479a3b6c33345f3660405161009694939291906102bd565b60405180910390a1005b3480156100ab575f80fd5b506100b46100ca565b6040516100c1919061030e565b60405180910390f35b5f47905090565b5f82825260208201905092915050565b7f72656365697665000000000000000000000000000000000000000000000000005f82015250565b5f6101156007836100d1565b9150610120826100e1565b602082019050919050565b5f73ffffffffffffffffffffffffffffffffffffffff82169050919050565b5f6101548261012b565b9050919050565b6101648161014a565b82525050565b5f819050919050565b61017c8161016a565b82525050565b5f82825260208201905092915050565b7f20000000000000000000000000000000000000000000000000000000000000005f82015250565b5f6101c6600183610182565b91506101d182610192565b602082019050919050565b5f6080820190508181035f8301526101f381610109565b9050610202602083018561015b565b61020f6040830184610173565b8181036060830152610220816101ba565b90509392505050565b7f66616c6c6261636b0000000000000000000000000000000000000000000000005f82015250565b5f61025d6008836100d1565b915061026882610229565b602082019050919050565b828183375f83830152505050565b5f601f19601f8301169050919050565b5f61029c8385610182565b93506102a9838584610273565b6102b283610281565b840190509392505050565b5f6080820190508181035f8301526102d481610251565b90506102e3602083018761015b565b6102f06040830186610173565b8181036060830152610303818486610291565b905095945050505050565b5f6020820190506103215f830184610173565b9291505056fea2646970667358221220b9e50a2a27ea0a7c6421ecf437e3f38723712dde385ac8ddbade3806237d15bd64736f6c63430008160033",
					"opcodes": "PUSH1 0x80 PUSH1 0x40 MSTORE CALLVALUE DUP1 ISZERO PUSH2 0xF JUMPI PUSH0 DUP1 REVERT JUMPDEST POP PUSH2 0x35D DUP1 PUSH2 0x1D PUSH0 CODECOPY PUSH0 RETURN INVALID PUSH1 0x80 PUSH1 0x40 MSTORE PUSH1 0x4 CALLDATASIZE LT PUSH2 0x21 JUMPI PUSH0 CALLDATALOAD PUSH1 0xE0 SHR DUP1 PUSH4 0xEBE4FE11 EQ PUSH2 0xA0 JUMPI PUSH2 0x61 JUMP JUMPDEST CALLDATASIZE PUSH2 0x61 JUMPI PUSH32 0xF7F75251DEE7D7FC22DEAC3247729EBE7C86541F35930BF10C2A4207479A3B6C CALLER CALLVALUE PUSH1 0x40 MLOAD PUSH2 0x57 SWAP3 SWAP2 SWAP1 PUSH2 0x1DC JUMP JUMPDEST PUSH1 0x40 MLOAD DUP1 SWAP2 SUB SWAP1 LOG1 STOP JUMPDEST PUSH32 0xF7F75251DEE7D7FC22DEAC3247729EBE7C86541F35930BF10C2A4207479A3B6C CALLER CALLVALUE PUSH0 CALLDATASIZE PUSH1 0x40 MLOAD PUSH2 0x96 SWAP5 SWAP4 SWAP3 SWAP2 SWAP1 PUSH2 0x2BD JUMP JUMPDEST PUSH1 0x40 MLOAD DUP1 SWAP2 SUB SWAP1 LOG1 STOP JUMPDEST CALLVALUE DUP1 ISZERO PUSH2 0xAB JUMPI PUSH0 DUP1 REVERT JUMPDEST POP PUSH2 0xB4 PUSH2 0xCA JUMP JUMPDEST PUSH1 0x40 MLOAD PUSH2 0xC1 SWAP2 SWAP1 PUSH2 0x30E JUMP JUMPDEST PUSH1 0x40 MLOAD DUP1 SWAP2 SUB SWAP1 RETURN JUMPDEST PUSH0 SELFBALANCE SWAP1 POP SWAP1 JUMP JUMPDEST PUSH0 DUP3 DUP3 MSTORE PUSH1 0x20 DUP3 ADD SWAP1 POP SWAP3 SWAP2 POP POP JUMP JUMPDEST PUSH32 0x7265636569766500000000000000000000000000000000000000000000000000 PUSH0 DUP3 ADD MSTORE POP JUMP JUMPDEST PUSH0 PUSH2 0x115 PUSH1 0x7 DUP4 PUSH2 0xD1 JUMP JUMPDEST SWAP2 POP PUSH2 0x120 DUP3 PUSH2 0xE1 JUMP JUMPDEST PUSH1 0x20 DUP3 ADD SWAP1 POP SWAP2 SWAP1 POP JUMP JUMPDEST PUSH0 PUSH20 0xFFFFFFFFFFFFFFFFFFFFFFFFFFFFFFFFFFFFFFFF DUP3 AND SWAP1 POP SWAP2 SWAP1 POP JUMP JUMPDEST PUSH0 PUSH2 0x154 DUP3 PUSH2 0x12B JUMP JUMPDEST SWAP1 POP SWAP2 SWAP1 POP JUMP JUMPDEST PUSH2 0x164 DUP2 PUSH2 0x14A JUMP JUMPDEST DUP3 MSTORE POP POP JUMP JUMPDEST PUSH0 DUP2 SWAP1 POP SWAP2 SWAP1 POP JUMP JUMPDEST PUSH2 0x17C DUP2 PUSH2 0x16A JUMP JUMPDEST DUP3 MSTORE POP POP JUMP JUMPDEST PUSH0 DUP3 DUP3 MSTORE PUSH1 0x20 DUP3 ADD SWAP1 POP SWAP3 SWAP2 POP POP JUMP JUMPDEST PUSH32 0x2000000000000000000000000000000000000000000000000000000000000000 PUSH0 DUP3 ADD MSTORE POP JUMP JUMPDEST PUSH0 PUSH2 0x1C6 PUSH1 0x1 DUP4 PUSH2 0x182 JUMP JUMPDEST SWAP2 POP PUSH2 0x1D1 DUP3 PUSH2 0x192 JUMP JUMPDEST PUSH1 0x20 DUP3 ADD SWAP1 POP SWAP2 SWAP1 POP JUMP JUMPDEST PUSH0 PUSH1 0x80 DUP3 ADD SWAP1 POP DUP2 DUP2 SUB PUSH0 DUP4 ADD MSTORE PUSH2 0x1F3 DUP2 PUSH2 0x109 JUMP JUMPDEST SWAP1 POP PUSH2 0x202 PUSH1 0x20 DUP4 ADD DUP6 PUSH2 0x15B JUMP JUMPDEST PUSH2 0x20F PUSH1 0x40 DUP4 ADD DUP5 PUSH2 0x173 JUMP JUMPDEST DUP2 DUP2 SUB PUSH1 0x60 DUP4 ADD MSTORE PUSH2 0x220 DUP2 PUSH2 0x1BA JUMP JUMPDEST SWAP1 POP SWAP4 SWAP3 POP POP POP JUMP JUMPDEST PUSH32 0x66616C6C6261636B000000000000000000000000000000000000000000000000 PUSH0 DUP3 ADD MSTORE POP JUMP JUMPDEST PUSH0 PUSH2 0x25D PUSH1 0x8 DUP4 PUSH2 0xD1 JUMP JUMPDEST SWAP2 POP PUSH2 0x268 DUP3 PUSH2 0x229 JUMP JUMPDEST PUSH1 0x20 DUP3 ADD SWAP1 POP SWAP2 SWAP1 POP JUMP JUMPDEST DUP3 DUP2 DUP4 CALLDATACOPY PUSH0 DUP4 DUP4 ADD MSTORE POP POP POP JUMP JUMPDEST PUSH0 PUSH1 0x1F NOT PUSH1 0x1F DUP4 ADD AND SWAP1 POP SWAP2 SWAP1 POP JUMP JUMPDEST PUSH0 PUSH2 0x29C DUP4 DUP6 PUSH2 0x182 JUMP JUMPDEST SWAP4 POP PUSH2 0x2A9 DUP4 DUP6 DUP5 PUSH2 0x273 JUMP JUMPDEST PUSH2 0x2B2 DUP4 PUSH2 0x281 JUMP JUMPDEST DUP5 ADD SWAP1 POP SWAP4 SWAP3 POP POP POP JUMP JUMPDEST PUSH0 PUSH1 0x80 DUP3 ADD SWAP1 POP DUP2 DUP2 SUB PUSH0 DUP4 ADD MSTORE PUSH2 0x2D4 DUP2 PUSH2 0x251 JUMP JUMPDEST SWAP1 POP PUSH2 0x2E3 PUSH1 0x20 DUP4 ADD DUP8 PUSH2 0x15B JUMP JUMPDEST PUSH2 0x2F0 PUSH1 0x40 DUP4 ADD DUP7 PUSH2 0x173 JUMP JUMPDEST DUP2 DUP2 SUB PUSH1 0x60 DUP4 ADD MSTORE PUSH2 0x303 DUP2 DUP5 DUP7 PUSH2 0x291 JUMP JUMPDEST SWAP1 POP SWAP6 SWAP5 POP POP POP POP POP JUMP JUMPDEST PUSH0 PUSH1 0x20 DUP3 ADD SWAP1 POP PUSH2 0x321 PUSH0 DUP4 ADD DUP5 PUSH2 0x173 JUMP JUMPDEST SWAP3 SWAP2 POP POP JUMP INVALID LOG2 PUSH5 0x6970667358 0x22 SLT KECCAK256 0xB9 0xE5 EXP 0x2A 0x27 0xEA EXP PUSH29 0x6421ECF437E3F38723712DDE385AC8DDBADE3806237D15BD64736F6C63 NUMBER STOP ADDMOD AND STOP CALLER "
				},
				"gasEstimates": {
					"creation": {
						"codeDepositCost": "172200",
						"executionCost": "212",
						"totalCost": "172412"
					},
					"external": {
						"": "infinite",
						"Chek()": "312"
					}
				},
				"methodIdentifiers": {
					"Chek()": "ebe4fe11"
				}
			},
			"storageLayout": {
				"storage": [],
				"types": null
			},
			"userdoc": {
				"kind": "user",
				"methods": {},
				"version": 1
			}
		}
	}
}