{
	"Arrays/ArrayIntro.sol": {
		"Arrays_Intro": {
			"abi": [
				{
					"inputs": [
						{
							"internalType": "uint256",
							"name": "",
							"type": "uint256"
						}
					],
					"name": "ad",
					"outputs": [
						{
							"internalType": "address",
							"name": "",
							"type": "address"
						}
					],
					"stateMutability": "view",
					"type": "function"
				},
				{
					"inputs": [
						{
							"internalType": "uint256",
							"name": "",
							"type": "uint256"
						}
					],
					"name": "arr",
					"outputs": [
						{
							"internalType": "uint256",
							"name": "",
							"type": "uint256"
						}
					],
					"stateMutability": "view",
					"type": "function"
				},
				{
					"inputs": [
						{
							"internalType": "uint256",
							"name": "",
							"type": "uint256"
						}
					],
					"name": "arr2",
					"outputs": [
						{
							"internalType": "uint256",
							"name": "",
							"type": "uint256"
						}
					],
					"stateMutability": "view",
					"type": "function"
				},
				{
					"inputs": [],
					"name": "get",
					"outputs": [
						{
							"internalType": "uint256[4]",
							"name": "",
							"type": "uint256[4]"
						}
					],
					"stateMutability": "view",
					"type": "function"
				},
				{
					"inputs": [],
					"name": "get1",
					"outputs": [
						{
							"internalType": "uint256[7]",
							"name": "",
							"type": "uint256[7]"
						}
					],
					"stateMutability": "view",
					"type": "function"
				},
				{
					"inputs": [],
					"name": "get2",
					"outputs": [
						{
							"internalType": "string[3]",
							"name": "",
							"type": "string[3]"
						}
					],
					"stateMutability": "view",
					"type": "function"
				},
				{
					"inputs": [],
					"name": "get3",
					"outputs": [
						{
							"internalType": "address[4]",
							"name": "",
							"type": "address[4]"
						}
					],
					"stateMutability": "view",
					"type": "function"
				},
				{
					"inputs": [
						{
							"internalType": "uint256",
							"name": "",
							"type": "uint256"
						}
					],
					"name": "str",
					"outputs": [
						{
							"internalType": "string",
							"name": "",
							"type": "string"
						}
					],
					"stateMutability": "view",
					"type": "function"
				}
			],
			"devdoc": {
				"kind": "dev",
				"methods": {},
				"version": 1
			},
			"evm": {
				"assembly": "    /* \"Arrays/ArrayIntro.sol\":62:651  contract Arrays_Intro... */\n  mstore(0x40, 0x80)\n    /* \"Arrays/ArrayIntro.sol\":126:160  uint[7] public arr2=[1,23,4,2,5,4] */\n  mload(0x40)\n  dup1\n  0xc0\n  add\n  0x40\n  mstore\n  dup1\n    /* \"Arrays/ArrayIntro.sol\":147:148  1 */\n  0x01\n    /* \"Arrays/ArrayIntro.sol\":126:160  uint[7] public arr2=[1,23,4,2,5,4] */\n  0xff\n  and\n  dup2\n  mstore\n  0x20\n  add\n    /* \"Arrays/ArrayIntro.sol\":149:151  23 */\n  0x17\n    /* \"Arrays/ArrayIntro.sol\":126:160  uint[7] public arr2=[1,23,4,2,5,4] */\n  0xff\n  and\n  dup2\n  mstore\n  0x20\n  add\n    /* \"Arrays/ArrayIntro.sol\":152:153  4 */\n  0x04\n    /* \"Arrays/ArrayIntro.sol\":126:160  uint[7] public arr2=[1,23,4,2,5,4] */\n  0xff\n  and\n  dup2\n  mstore\n  0x20\n  add\n    /* \"Arrays/ArrayIntro.sol\":154:155  2 */\n  0x02\n    /* \"Arrays/ArrayIntro.sol\":126:160  uint[7] public arr2=[1,23,4,2,5,4] */\n  0xff\n  and\n  dup2\n  mstore\n  0x20\n  add\n    /* \"Arrays/ArrayIntro.sol\":156:157  5 */\n  0x05\n    /* \"Arrays/ArrayIntro.sol\":126:160  uint[7] public arr2=[1,23,4,2,5,4] */\n  0xff\n  and\n  dup2\n  mstore\n  0x20\n  add\n    /* \"Arrays/ArrayIntro.sol\":158:159  4 */\n  0x04\n    /* \"Arrays/ArrayIntro.sol\":126:160  uint[7] public arr2=[1,23,4,2,5,4] */\n  0xff\n  and\n  dup2\n  mstore\n  pop\n  0x04\n  swap1\n  0x06\n  tag_1\n  swap3\n  swap2\n  swap1\n  tag_2\n  jump\t// in\ntag_1:\n  pop\n    /* \"Arrays/ArrayIntro.sol\":170:212  string[3] public str=[\"as0\",\"sf\",\"sfssdf\"] */\n  mload(0x40)\n  dup1\n  0x60\n  add\n  0x40\n  mstore\n  dup1\n  mload(0x40)\n  dup1\n  0x40\n  add\n  0x40\n  mstore\n  dup1\n  0x03\n  dup2\n  mstore\n  0x20\n  add\n  0x6173300000000000000000000000000000000000000000000000000000000000\n  dup2\n  mstore\n  pop\n  dup2\n  mstore\n  0x20\n  add\n  mload(0x40)\n  dup1\n  0x40\n  add\n  0x40\n  mstore\n  dup1\n  0x02\n  dup2\n  mstore\n  0x20\n  add\n  0x7366000000000000000000000000000000000000000000000000000000000000\n  dup2\n  mstore\n  pop\n  dup2\n  mstore\n  0x20\n  add\n  mload(0x40)\n  dup1\n  0x40\n  add\n  0x40\n  mstore\n  dup1\n  0x06\n  dup2\n  mstore\n  0x20\n  add\n  0x7366737364660000000000000000000000000000000000000000000000000000\n  dup2\n  mstore\n  pop\n  dup2\n  mstore\n  pop\n  0x0b\n  swap1\n  0x03\n  tag_3\n  swap3\n  swap2\n  swap1\n  tag_4\n  jump\t// in\ntag_3:\n  pop\n    /* \"Arrays/ArrayIntro.sol\":62:651  contract Arrays_Intro... */\n  callvalue\n  dup1\n  iszero\n  tag_5\n  jumpi\n  0x00\n  dup1\n  revert\ntag_5:\n  pop\n  jump(tag_6)\ntag_2:\n  dup3\n  0x07\n  dup2\n  add\n  swap3\n  dup3\n  iszero\n  tag_7\n  jumpi\n  swap2\n  0x20\n  mul\n  dup3\n  add\ntag_8:\n  dup3\n  dup2\n  gt\n  iszero\n  tag_9\n  jumpi\n  dup3\n  mload\n  dup3\n  swap1\n  0xff\n  and\n  swap1\n  sstore\n  swap2\n  0x20\n  add\n  swap2\n  swap1\n  0x01\n  add\n  swap1\n  jump(tag_8)\ntag_9:\ntag_7:\n  pop\n  swap1\n  pop\n  tag_10\n  swap2\n  swap1\n  tag_11\n  jump\t// in\ntag_10:\n  pop\n  swap1\n  jump\t// out\ntag_4:\n  dup3\n  0x03\n  dup2\n  add\n  swap3\n  dup3\n  iszero\n  tag_12\n  jumpi\n  swap2\n  0x20\n  mul\n  dup3\n  add\ntag_13:\n  dup3\n  dup2\n  gt\n  iszero\n  tag_14\n  jumpi\n  dup3\n  mload\n  dup3\n  swap1\n  dup2\n  tag_15\n  swap2\n  swap1\n  tag_16\n  jump\t// in\ntag_15:\n  pop\n  swap2\n  0x20\n  add\n  swap2\n  swap1\n  0x01\n  add\n  swap1\n  jump(tag_13)\ntag_14:\ntag_12:\n  pop\n  swap1\n  pop\n  tag_17\n  swap2\n  swap1\n  tag_18\n  jump\t// in\ntag_17:\n  pop\n  swap1\n  jump\t// out\ntag_11:\ntag_19:\n  dup1\n  dup3\n  gt\n  iszero\n  tag_20\n  jumpi\n  0x00\n  dup2\n  0x00\n  swap1\n  sstore\n  pop\n  0x01\n  add\n  jump(tag_19)\ntag_20:\n  pop\n  swap1\n  jump\t// out\ntag_18:\ntag_21:\n  dup1\n  dup3\n  gt\n  iszero\n  tag_22\n  jumpi\n  0x00\n  dup2\n  dup2\n  tag_23\n  swap2\n  swap1\n  tag_24\n  jump\t// in\ntag_23:\n  pop\n  0x01\n  add\n  jump(tag_21)\ntag_22:\n  pop\n  swap1\n  jump\t// out\ntag_24:\n  pop\n  dup1\n  sload\n  tag_25\n  swap1\n  tag_26\n  jump\t// in\ntag_25:\n  0x00\n  dup3\n  sstore\n  dup1\n  0x1f\n  lt\n  tag_28\n  jumpi\n  pop\n  jump(tag_27)\ntag_28:\n  0x1f\n  add\n  0x20\n  swap1\n  div\n  swap1\n  0x00\n  mstore\n  keccak256(0x00, 0x20)\n  swap1\n  dup2\n  add\n  swap1\n  tag_29\n  swap2\n  swap1\n  tag_11\n  jump\t// in\ntag_29:\ntag_27:\n  pop\n  jump\t// out\n    /* \"#utility.yul\":7:106   */\ntag_30:\n    /* \"#utility.yul\":59:65   */\n  0x00\n    /* \"#utility.yul\":93:98   */\n  dup2\n    /* \"#utility.yul\":87:99   */\n  mload\n    /* \"#utility.yul\":77:99   */\n  swap1\n  pop\n    /* \"#utility.yul\":7:106   */\n  swap2\n  swap1\n  pop\n  jump\t// out\n    /* \"#utility.yul\":112:292   */\ntag_31:\n    /* \"#utility.yul\":160:237   */\n  0x4e487b7100000000000000000000000000000000000000000000000000000000\n    /* \"#utility.yul\":157:158   */\n  0x00\n    /* \"#utility.yul\":150:238   */\n  mstore\n    /* \"#utility.yul\":257:261   */\n  0x41\n    /* \"#utility.yul\":254:255   */\n  0x04\n    /* \"#utility.yul\":247:262   */\n  mstore\n    /* \"#utility.yul\":281:285   */\n  0x24\n    /* \"#utility.yul\":278:279   */\n  0x00\n    /* \"#utility.yul\":271:286   */\n  revert\n    /* \"#utility.yul\":298:478   */\ntag_32:\n    /* \"#utility.yul\":346:423   */\n  0x4e487b7100000000000000000000000000000000000000000000000000000000\n    /* \"#utility.yul\":343:344   */\n  0x00\n    /* \"#utility.yul\":336:424   */\n  mstore\n    /* \"#utility.yul\":443:447   */\n  0x22\n    /* \"#utility.yul\":440:441   */\n  0x04\n    /* \"#utility.yul\":433:448   */\n  mstore\n    /* \"#utility.yul\":467:471   */\n  0x24\n    /* \"#utility.yul\":464:465   */\n  0x00\n    /* \"#utility.yul\":457:472   */\n  revert\n    /* \"#utility.yul\":484:804   */\ntag_26:\n    /* \"#utility.yul\":528:534   */\n  0x00\n    /* \"#utility.yul\":565:566   */\n  0x02\n    /* \"#utility.yul\":559:563   */\n  dup3\n    /* \"#utility.yul\":555:567   */\n  div\n    /* \"#utility.yul\":545:567   */\n  swap1\n  pop\n    /* \"#utility.yul\":612:613   */\n  0x01\n    /* \"#utility.yul\":606:610   */\n  dup3\n    /* \"#utility.yul\":602:614   */\n  and\n    /* \"#utility.yul\":633:651   */\n  dup1\n    /* \"#utility.yul\":623:704   */\n  tag_54\n  jumpi\n    /* \"#utility.yul\":689:693   */\n  0x7f\n    /* \"#utility.yul\":681:687   */\n  dup3\n    /* \"#utility.yul\":677:694   */\n  and\n    /* \"#utility.yul\":667:694   */\n  swap2\n  pop\n    /* \"#utility.yul\":623:704   */\ntag_54:\n    /* \"#utility.yul\":751:753   */\n  0x20\n    /* \"#utility.yul\":743:749   */\n  dup3\n    /* \"#utility.yul\":740:754   */\n  lt\n    /* \"#utility.yul\":720:738   */\n  dup2\n    /* \"#utility.yul\":717:755   */\n  sub\n    /* \"#utility.yul\":714:798   */\n  tag_55\n  jumpi\n    /* \"#utility.yul\":770:788   */\n  tag_56\n  tag_32\n  jump\t// in\ntag_56:\n    /* \"#utility.yul\":714:798   */\ntag_55:\n    /* \"#utility.yul\":535:804   */\n  pop\n    /* \"#utility.yul\":484:804   */\n  swap2\n  swap1\n  pop\n  jump\t// out\n    /* \"#utility.yul\":810:951   */\ntag_33:\n    /* \"#utility.yul\":859:863   */\n  0x00\n    /* \"#utility.yul\":882:885   */\n  dup2\n    /* \"#utility.yul\":874:885   */\n  swap1\n  pop\n    /* \"#utility.yul\":905:908   */\n  dup2\n    /* \"#utility.yul\":902:903   */\n  0x00\n    /* \"#utility.yul\":895:909   */\n  mstore\n    /* \"#utility.yul\":939:943   */\n  0x20\n    /* \"#utility.yul\":936:937   */\n  0x00\n    /* \"#utility.yul\":926:944   */\n  keccak256\n    /* \"#utility.yul\":918:944   */\n  swap1\n  pop\n    /* \"#utility.yul\":810:951   */\n  swap2\n  swap1\n  pop\n  jump\t// out\n    /* \"#utility.yul\":957:1050   */\ntag_34:\n    /* \"#utility.yul\":994:1000   */\n  0x00\n    /* \"#utility.yul\":1041:1043   */\n  0x20\n    /* \"#utility.yul\":1036:1038   */\n  0x1f\n    /* \"#utility.yul\":1029:1034   */\n  dup4\n    /* \"#utility.yul\":1025:1039   */\n  add\n    /* \"#utility.yul\":1021:1044   */\n  div\n    /* \"#utility.yul\":1011:1044   */\n  swap1\n  pop\n    /* \"#utility.yul\":957:1050   */\n  swap2\n  swap1\n  pop\n  jump\t// out\n    /* \"#utility.yul\":1056:1163   */\ntag_35:\n    /* \"#utility.yul\":1100:1108   */\n  0x00\n    /* \"#utility.yul\":1150:1155   */\n  dup3\n    /* \"#utility.yul\":1144:1148   */\n  dup3\n    /* \"#utility.yul\":1140:1156   */\n  shl\n    /* \"#utility.yul\":1119:1156   */\n  swap1\n  pop\n    /* \"#utility.yul\":1056:1163   */\n  swap3\n  swap2\n  pop\n  pop\n  jump\t// out\n    /* \"#utility.yul\":1169:1562   */\ntag_36:\n    /* \"#utility.yul\":1238:1244   */\n  0x00\n    /* \"#utility.yul\":1288:1289   */\n  0x08\n    /* \"#utility.yul\":1276:1286   */\n  dup4\n    /* \"#utility.yul\":1272:1290   */\n  mul\n    /* \"#utility.yul\":1311:1408   */\n  tag_61\n    /* \"#utility.yul\":1341:1407   */\n  0xffffffffffffffffffffffffffffffffffffffffffffffffffffffffffffffff\n    /* \"#utility.yul\":1330:1339   */\n  dup3\n    /* \"#utility.yul\":1311:1408   */\n  tag_35\n  jump\t// in\ntag_61:\n    /* \"#utility.yul\":1429:1468   */\n  tag_62\n    /* \"#utility.yul\":1459:1467   */\n  dup7\n    /* \"#utility.yul\":1448:1457   */\n  dup4\n    /* \"#utility.yul\":1429:1468   */\n  tag_35\n  jump\t// in\ntag_62:\n    /* \"#utility.yul\":1417:1468   */\n  swap6\n  pop\n    /* \"#utility.yul\":1501:1505   */\n  dup1\n    /* \"#utility.yul\":1497:1506   */\n  not\n    /* \"#utility.yul\":1490:1495   */\n  dup5\n    /* \"#utility.yul\":1486:1507   */\n  and\n    /* \"#utility.yul\":1477:1507   */\n  swap4\n  pop\n    /* \"#utility.yul\":1550:1554   */\n  dup1\n    /* \"#utility.yul\":1540:1548   */\n  dup7\n    /* \"#utility.yul\":1536:1555   */\n  and\n    /* \"#utility.yul\":1529:1534   */\n  dup5\n    /* \"#utility.yul\":1526:1556   */\n  or\n    /* \"#utility.yul\":1516:1556   */\n  swap3\n  pop\n    /* \"#utility.yul\":1245:1562   */\n  pop\n  pop\n    /* \"#utility.yul\":1169:1562   */\n  swap4\n  swap3\n  pop\n  pop\n  pop\n  jump\t// out\n    /* \"#utility.yul\":1568:1645   */\ntag_37:\n    /* \"#utility.yul\":1605:1612   */\n  0x00\n    /* \"#utility.yul\":1634:1639   */\n  dup2\n    /* \"#utility.yul\":1623:1639   */\n  swap1\n  pop\n    /* \"#utility.yul\":1568:1645   */\n  swap2\n  swap1\n  pop\n  jump\t// out\n    /* \"#utility.yul\":1651:1711   */\ntag_38:\n    /* \"#utility.yul\":1679:1682   */\n  0x00\n    /* \"#utility.yul\":1700:1705   */\n  dup2\n    /* \"#utility.yul\":1693:1705   */\n  swap1\n  pop\n    /* \"#utility.yul\":1651:1711   */\n  swap2\n  swap1\n  pop\n  jump\t// out\n    /* \"#utility.yul\":1717:1859   */\ntag_39:\n    /* \"#utility.yul\":1767:1776   */\n  0x00\n    /* \"#utility.yul\":1800:1853   */\n  tag_66\n    /* \"#utility.yul\":1818:1852   */\n  tag_67\n    /* \"#utility.yul\":1827:1851   */\n  tag_68\n    /* \"#utility.yul\":1845:1850   */\n  dup5\n    /* \"#utility.yul\":1827:1851   */\n  tag_37\n  jump\t// in\ntag_68:\n    /* \"#utility.yul\":1818:1852   */\n  tag_38\n  jump\t// in\ntag_67:\n    /* \"#utility.yul\":1800:1853   */\n  tag_37\n  jump\t// in\ntag_66:\n    /* \"#utility.yul\":1787:1853   */\n  swap1\n  pop\n    /* \"#utility.yul\":1717:1859   */\n  swap2\n  swap1\n  pop\n  jump\t// out\n    /* \"#utility.yul\":1865:1940   */\ntag_40:\n    /* \"#utility.yul\":1908:1911   */\n  0x00\n    /* \"#utility.yul\":1929:1934   */\n  dup2\n    /* \"#utility.yul\":1922:1934   */\n  swap1\n  pop\n    /* \"#utility.yul\":1865:1940   */\n  swap2\n  swap1\n  pop\n  jump\t// out\n    /* \"#utility.yul\":1946:2215   */\ntag_41:\n    /* \"#utility.yul\":2056:2095   */\n  tag_71\n    /* \"#utility.yul\":2087:2094   */\n  dup4\n    /* \"#utility.yul\":2056:2095   */\n  tag_39\n  jump\t// in\ntag_71:\n    /* \"#utility.yul\":2117:2208   */\n  tag_72\n    /* \"#utility.yul\":2166:2207   */\n  tag_73\n    /* \"#utility.yul\":2190:2206   */\n  dup3\n    /* \"#utility.yul\":2166:2207   */\n  tag_40\n  jump\t// in\ntag_73:\n    /* \"#utility.yul\":2158:2164   */\n  dup5\n    /* \"#utility.yul\":2151:2155   */\n  dup5\n    /* \"#utility.yul\":2145:2156   */\n  sload\n    /* \"#utility.yul\":2117:2208   */\n  tag_36\n  jump\t// in\ntag_72:\n    /* \"#utility.yul\":2111:2115   */\n  dup3\n    /* \"#utility.yul\":2104:2209   */\n  sstore\n    /* \"#utility.yul\":2022:2215   */\n  pop\n    /* \"#utility.yul\":1946:2215   */\n  pop\n  pop\n  pop\n  jump\t// out\n    /* \"#utility.yul\":2221:2294   */\ntag_42:\n    /* \"#utility.yul\":2266:2269   */\n  0x00\n    /* \"#utility.yul\":2221:2294   */\n  swap1\n  jump\t// out\n    /* \"#utility.yul\":2300:2489   */\ntag_43:\n    /* \"#utility.yul\":2377:2409   */\n  tag_76\n  tag_42\n  jump\t// in\ntag_76:\n    /* \"#utility.yul\":2418:2483   */\n  tag_77\n    /* \"#utility.yul\":2476:2482   */\n  dup2\n    /* \"#utility.yul\":2468:2474   */\n  dup5\n    /* \"#utility.yul\":2462:2466   */\n  dup5\n    /* \"#utility.yul\":2418:2483   */\n  tag_41\n  jump\t// in\ntag_77:\n    /* \"#utility.yul\":2353:2489   */\n  pop\n    /* \"#utility.yul\":2300:2489   */\n  pop\n  pop\n  jump\t// out\n    /* \"#utility.yul\":2495:2681   */\ntag_44:\n    /* \"#utility.yul\":2555:2675   */\ntag_79:\n    /* \"#utility.yul\":2572:2575   */\n  dup2\n    /* \"#utility.yul\":2565:2570   */\n  dup2\n    /* \"#utility.yul\":2562:2576   */\n  lt\n    /* \"#utility.yul\":2555:2675   */\n  iszero\n  tag_81\n  jumpi\n    /* \"#utility.yul\":2626:2665   */\n  tag_82\n    /* \"#utility.yul\":2663:2664   */\n  0x00\n    /* \"#utility.yul\":2656:2661   */\n  dup3\n    /* \"#utility.yul\":2626:2665   */\n  tag_43\n  jump\t// in\ntag_82:\n    /* \"#utility.yul\":2599:2600   */\n  0x01\n    /* \"#utility.yul\":2592:2597   */\n  dup2\n    /* \"#utility.yul\":2588:2601   */\n  add\n    /* \"#utility.yul\":2579:2601   */\n  swap1\n  pop\n    /* \"#utility.yul\":2555:2675   */\n  jump(tag_79)\ntag_81:\n    /* \"#utility.yul\":2495:2681   */\n  pop\n  pop\n  jump\t// out\n    /* \"#utility.yul\":2687:3230   */\ntag_45:\n    /* \"#utility.yul\":2788:2790   */\n  0x1f\n    /* \"#utility.yul\":2783:2786   */\n  dup3\n    /* \"#utility.yul\":2780:2791   */\n  gt\n    /* \"#utility.yul\":2777:3223   */\n  iszero\n  tag_84\n  jumpi\n    /* \"#utility.yul\":2822:2860   */\n  tag_85\n    /* \"#utility.yul\":2854:2859   */\n  dup2\n    /* \"#utility.yul\":2822:2860   */\n  tag_33\n  jump\t// in\ntag_85:\n    /* \"#utility.yul\":2906:2935   */\n  tag_86\n    /* \"#utility.yul\":2924:2934   */\n  dup5\n    /* \"#utility.yul\":2906:2935   */\n  tag_34\n  jump\t// in\ntag_86:\n    /* \"#utility.yul\":2896:2904   */\n  dup2\n    /* \"#utility.yul\":2892:2936   */\n  add\n    /* \"#utility.yul\":3089:3091   */\n  0x20\n    /* \"#utility.yul\":3077:3087   */\n  dup6\n    /* \"#utility.yul\":3074:3092   */\n  lt\n    /* \"#utility.yul\":3071:3120   */\n  iszero\n  tag_87\n  jumpi\n    /* \"#utility.yul\":3110:3118   */\n  dup2\n    /* \"#utility.yul\":3095:3118   */\n  swap1\n  pop\n    /* \"#utility.yul\":3071:3120   */\ntag_87:\n    /* \"#utility.yul\":3133:3213   */\n  tag_88\n    /* \"#utility.yul\":3189:3211   */\n  tag_89\n    /* \"#utility.yul\":3207:3210   */\n  dup6\n    /* \"#utility.yul\":3189:3211   */\n  tag_34\n  jump\t// in\ntag_89:\n    /* \"#utility.yul\":3179:3187   */\n  dup4\n    /* \"#utility.yul\":3175:3212   */\n  add\n    /* \"#utility.yul\":3162:3173   */\n  dup3\n    /* \"#utility.yul\":3133:3213   */\n  tag_44\n  jump\t// in\ntag_88:\n    /* \"#utility.yul\":2792:3223   */\n  pop\n  pop\n    /* \"#utility.yul\":2777:3223   */\ntag_84:\n    /* \"#utility.yul\":2687:3230   */\n  pop\n  pop\n  pop\n  jump\t// out\n    /* \"#utility.yul\":3236:3353   */\ntag_46:\n    /* \"#utility.yul\":3290:3298   */\n  0x00\n    /* \"#utility.yul\":3340:3345   */\n  dup3\n    /* \"#utility.yul\":3334:3338   */\n  dup3\n    /* \"#utility.yul\":3330:3346   */\n  shr\n    /* \"#utility.yul\":3309:3346   */\n  swap1\n  pop\n    /* \"#utility.yul\":3236:3353   */\n  swap3\n  swap2\n  pop\n  pop\n  jump\t// out\n    /* \"#utility.yul\":3359:3528   */\ntag_47:\n    /* \"#utility.yul\":3403:3409   */\n  0x00\n    /* \"#utility.yul\":3436:3487   */\n  tag_92\n    /* \"#utility.yul\":3484:3485   */\n  0x00\n    /* \"#utility.yul\":3480:3486   */\n  not\n    /* \"#utility.yul\":3472:3477   */\n  dup5\n    /* \"#utility.yul\":3469:3470   */\n  0x08\n    /* \"#utility.yul\":3465:3478   */\n  mul\n    /* \"#utility.yul\":3436:3487   */\n  tag_46\n  jump\t// in\ntag_92:\n    /* \"#utility.yul\":3432:3488   */\n  not\n    /* \"#utility.yul\":3517:3521   */\n  dup1\n    /* \"#utility.yul\":3511:3515   */\n  dup4\n    /* \"#utility.yul\":3507:3522   */\n  and\n    /* \"#utility.yul\":3497:3522   */\n  swap2\n  pop\n    /* \"#utility.yul\":3410:3528   */\n  pop\n    /* \"#utility.yul\":3359:3528   */\n  swap3\n  swap2\n  pop\n  pop\n  jump\t// out\n    /* \"#utility.yul\":3533:3828   */\ntag_48:\n    /* \"#utility.yul\":3609:3613   */\n  0x00\n    /* \"#utility.yul\":3755:3784   */\n  tag_94\n    /* \"#utility.yul\":3780:3783   */\n  dup4\n    /* \"#utility.yul\":3774:3778   */\n  dup4\n    /* \"#utility.yul\":3755:3784   */\n  tag_47\n  jump\t// in\ntag_94:\n    /* \"#utility.yul\":3747:3784   */\n  swap2\n  pop\n    /* \"#utility.yul\":3817:3820   */\n  dup3\n    /* \"#utility.yul\":3814:3815   */\n  0x02\n    /* \"#utility.yul\":3810:3821   */\n  mul\n    /* \"#utility.yul\":3804:3808   */\n  dup3\n    /* \"#utility.yul\":3801:3822   */\n  or\n    /* \"#utility.yul\":3793:3822   */\n  swap1\n  pop\n    /* \"#utility.yul\":3533:3828   */\n  swap3\n  swap2\n  pop\n  pop\n  jump\t// out\n    /* \"#utility.yul\":3833:5228   */\ntag_16:\n    /* \"#utility.yul\":3950:3987   */\n  tag_96\n    /* \"#utility.yul\":3983:3986   */\n  dup3\n    /* \"#utility.yul\":3950:3987   */\n  tag_30\n  jump\t// in\ntag_96:\n    /* \"#utility.yul\":4052:4070   */\n  0xffffffffffffffff\n    /* \"#utility.yul\":4044:4050   */\n  dup2\n    /* \"#utility.yul\":4041:4071   */\n  gt\n    /* \"#utility.yul\":4038:4094   */\n  iszero\n  tag_97\n  jumpi\n    /* \"#utility.yul\":4074:4092   */\n  tag_98\n  tag_31\n  jump\t// in\ntag_98:\n    /* \"#utility.yul\":4038:4094   */\ntag_97:\n    /* \"#utility.yul\":4118:4156   */\n  tag_99\n    /* \"#utility.yul\":4150:4154   */\n  dup3\n    /* \"#utility.yul\":4144:4155   */\n  sload\n    /* \"#utility.yul\":4118:4156   */\n  tag_26\n  jump\t// in\ntag_99:\n    /* \"#utility.yul\":4203:4270   */\n  tag_100\n    /* \"#utility.yul\":4263:4269   */\n  dup3\n    /* \"#utility.yul\":4255:4261   */\n  dup3\n    /* \"#utility.yul\":4249:4253   */\n  dup6\n    /* \"#utility.yul\":4203:4270   */\n  tag_45\n  jump\t// in\ntag_100:\n    /* \"#utility.yul\":4297:4298   */\n  0x00\n    /* \"#utility.yul\":4321:4325   */\n  0x20\n    /* \"#utility.yul\":4308:4325   */\n  swap1\n  pop\n    /* \"#utility.yul\":4353:4355   */\n  0x1f\n    /* \"#utility.yul\":4345:4351   */\n  dup4\n    /* \"#utility.yul\":4342:4356   */\n  gt\n    /* \"#utility.yul\":4370:4371   */\n  0x01\n    /* \"#utility.yul\":4365:4983   */\n  dup2\n  eq\n  tag_102\n  jumpi\n    /* \"#utility.yul\":5027:5028   */\n  0x00\n    /* \"#utility.yul\":5044:5050   */\n  dup5\n    /* \"#utility.yul\":5041:5118   */\n  iszero\n  tag_103\n  jumpi\n    /* \"#utility.yul\":5093:5102   */\n  dup3\n    /* \"#utility.yul\":5088:5091   */\n  dup8\n    /* \"#utility.yul\":5084:5103   */\n  add\n    /* \"#utility.yul\":5078:5104   */\n  mload\n    /* \"#utility.yul\":5069:5104   */\n  swap1\n  pop\n    /* \"#utility.yul\":5041:5118   */\ntag_103:\n    /* \"#utility.yul\":5144:5211   */\n  tag_104\n    /* \"#utility.yul\":5204:5210   */\n  dup6\n    /* \"#utility.yul\":5197:5202   */\n  dup3\n    /* \"#utility.yul\":5144:5211   */\n  tag_48\n  jump\t// in\ntag_104:\n    /* \"#utility.yul\":5138:5142   */\n  dup7\n    /* \"#utility.yul\":5131:5212   */\n  sstore\n    /* \"#utility.yul\":5000:5222   */\n  pop\n    /* \"#utility.yul\":4335:5222   */\n  jump(tag_101)\n    /* \"#utility.yul\":4365:4983   */\ntag_102:\n    /* \"#utility.yul\":4417:4421   */\n  0x1f\n    /* \"#utility.yul\":4413:4422   */\n  not\n    /* \"#utility.yul\":4405:4411   */\n  dup5\n    /* \"#utility.yul\":4401:4423   */\n  and\n    /* \"#utility.yul\":4451:4488   */\n  tag_105\n    /* \"#utility.yul\":4483:4487   */\n  dup7\n    /* \"#utility.yul\":4451:4488   */\n  tag_33\n  jump\t// in\ntag_105:\n    /* \"#utility.yul\":4510:4511   */\n  0x00\n    /* \"#utility.yul\":4524:4732   */\ntag_106:\n    /* \"#utility.yul\":4538:4545   */\n  dup3\n    /* \"#utility.yul\":4535:4536   */\n  dup2\n    /* \"#utility.yul\":4532:4546   */\n  lt\n    /* \"#utility.yul\":4524:4732   */\n  iszero\n  tag_108\n  jumpi\n    /* \"#utility.yul\":4617:4626   */\n  dup5\n    /* \"#utility.yul\":4612:4615   */\n  dup10\n    /* \"#utility.yul\":4608:4627   */\n  add\n    /* \"#utility.yul\":4602:4628   */\n  mload\n    /* \"#utility.yul\":4594:4600   */\n  dup3\n    /* \"#utility.yul\":4587:4629   */\n  sstore\n    /* \"#utility.yul\":4668:4669   */\n  0x01\n    /* \"#utility.yul\":4660:4666   */\n  dup3\n    /* \"#utility.yul\":4656:4670   */\n  add\n    /* \"#utility.yul\":4646:4670   */\n  swap2\n  pop\n    /* \"#utility.yul\":4715:4717   */\n  0x20\n    /* \"#utility.yul\":4704:4713   */\n  dup6\n    /* \"#utility.yul\":4700:4718   */\n  add\n    /* \"#utility.yul\":4687:4718   */\n  swap5\n  pop\n    /* \"#utility.yul\":4561:4565   */\n  0x20\n    /* \"#utility.yul\":4558:4559   */\n  dup2\n    /* \"#utility.yul\":4554:4566   */\n  add\n    /* \"#utility.yul\":4549:4566   */\n  swap1\n  pop\n    /* \"#utility.yul\":4524:4732   */\n  jump(tag_106)\ntag_108:\n    /* \"#utility.yul\":4760:4766   */\n  dup7\n    /* \"#utility.yul\":4751:4758   */\n  dup4\n    /* \"#utility.yul\":4748:4767   */\n  lt\n    /* \"#utility.yul\":4745:4924   */\n  iszero\n  tag_109\n  jumpi\n    /* \"#utility.yul\":4818:4827   */\n  dup5\n    /* \"#utility.yul\":4813:4816   */\n  dup10\n    /* \"#utility.yul\":4809:4828   */\n  add\n    /* \"#utility.yul\":4803:4829   */\n  mload\n    /* \"#utility.yul\":4861:4909   */\n  tag_110\n    /* \"#utility.yul\":4903:4907   */\n  0x1f\n    /* \"#utility.yul\":4895:4901   */\n  dup10\n    /* \"#utility.yul\":4891:4908   */\n  and\n    /* \"#utility.yul\":4880:4889   */\n  dup3\n    /* \"#utility.yul\":4861:4909   */\n  tag_47\n  jump\t// in\ntag_110:\n    /* \"#utility.yul\":4853:4859   */\n  dup4\n    /* \"#utility.yul\":4846:4910   */\n  sstore\n    /* \"#utility.yul\":4768:4924   */\n  pop\n    /* \"#utility.yul\":4745:4924   */\ntag_109:\n    /* \"#utility.yul\":4970:4971   */\n  0x01\n    /* \"#utility.yul\":4966:4967   */\n  0x02\n    /* \"#utility.yul\":4958:4964   */\n  dup9\n    /* \"#utility.yul\":4954:4968   */\n  mul\n    /* \"#utility.yul\":4950:4972   */\n  add\n    /* \"#utility.yul\":4944:4948   */\n  dup9\n    /* \"#utility.yul\":4937:4973   */\n  sstore\n    /* \"#utility.yul\":4372:4983   */\n  pop\n  pop\n  pop\n    /* \"#utility.yul\":4335:5222   */\ntag_101:\n  pop\n    /* \"#utility.yul\":3925:5228   */\n  pop\n  pop\n  pop\n    /* \"#utility.yul\":3833:5228   */\n  pop\n  pop\n  jump\t// out\n    /* \"Arrays/ArrayIntro.sol\":62:651  contract Arrays_Intro... */\ntag_6:\n  dataSize(sub_0)\n  dup1\n  dataOffset(sub_0)\n  0x00\n  codecopy\n  0x00\n  return\nstop\n\nsub_0: assembly {\n        /* \"Arrays/ArrayIntro.sol\":62:651  contract Arrays_Intro... */\n      mstore(0x40, 0x80)\n      callvalue\n      dup1\n      iszero\n      tag_1\n      jumpi\n      0x00\n      dup1\n      revert\n    tag_1:\n      pop\n      jumpi(tag_2, lt(calldatasize, 0x04))\n      shr(0xe0, calldataload(0x00))\n      dup1\n      0x737e3c57\n      gt\n      tag_11\n      jumpi\n      dup1\n      0x737e3c57\n      eq\n      tag_7\n      jumpi\n      dup1\n      0x8321045c\n      eq\n      tag_8\n      jumpi\n      dup1\n      0xd2178b08\n      eq\n      tag_9\n      jumpi\n      dup1\n      0xedf0099b\n      eq\n      tag_10\n      jumpi\n      jump(tag_2)\n    tag_11:\n      dup1\n      0x054c1a75\n      eq\n      tag_3\n      jumpi\n      dup1\n      0x6d4ce63c\n      eq\n      tag_4\n      jumpi\n      dup1\n      0x71e5ee5f\n      eq\n      tag_5\n      jumpi\n      dup1\n      0x72511838\n      eq\n      tag_6\n      jumpi\n    tag_2:\n      0x00\n      dup1\n      revert\n        /* \"Arrays/ArrayIntro.sol\":349:443  function get1() public  view returns(uint[7] memory)... */\n    tag_3:\n      tag_12\n      tag_13\n      jump\t// in\n    tag_12:\n      mload(0x40)\n      tag_14\n      swap2\n      swap1\n      tag_15\n      jump\t// in\n    tag_14:\n      mload(0x40)\n      dup1\n      swap2\n      sub\n      swap1\n      return\n        /* \"Arrays/ArrayIntro.sol\":250:342  function get() public  view returns(uint[4] memory)... */\n    tag_4:\n      tag_16\n      tag_17\n      jump\t// in\n    tag_16:\n      mload(0x40)\n      tag_18\n      swap2\n      swap1\n      tag_19\n      jump\t// in\n    tag_18:\n      mload(0x40)\n      dup1\n      swap2\n      sub\n      swap1\n      return\n        /* \"Arrays/ArrayIntro.sol\":100:118  uint[4] public arr */\n    tag_5:\n      tag_20\n      0x04\n      dup1\n      calldatasize\n      sub\n      dup2\n      add\n      swap1\n      tag_21\n      swap2\n      swap1\n      tag_22\n      jump\t// in\n    tag_21:\n      tag_23\n      jump\t// in\n    tag_20:\n      mload(0x40)\n      tag_24\n      swap2\n      swap1\n      tag_25\n      jump\t// in\n    tag_24:\n      mload(0x40)\n      dup1\n      swap2\n      sub\n      swap1\n      return\n        /* \"Arrays/ArrayIntro.sol\":170:212  string[3] public str=[\"as0\",\"sf\",\"sfssdf\"] */\n    tag_6:\n      tag_26\n      0x04\n      dup1\n      calldatasize\n      sub\n      dup2\n      add\n      swap1\n      tag_27\n      swap2\n      swap1\n      tag_22\n      jump\t// in\n    tag_27:\n      tag_28\n      jump\t// in\n    tag_26:\n      mload(0x40)\n      tag_29\n      swap2\n      swap1\n      tag_30\n      jump\t// in\n    tag_29:\n      mload(0x40)\n      dup1\n      swap2\n      sub\n      swap1\n      return\n        /* \"Arrays/ArrayIntro.sol\":220:240  address[4] public ad */\n    tag_7:\n      tag_31\n      0x04\n      dup1\n      calldatasize\n      sub\n      dup2\n      add\n      swap1\n      tag_32\n      swap2\n      swap1\n      tag_22\n      jump\t// in\n    tag_32:\n      tag_33\n      jump\t// in\n    tag_31:\n      mload(0x40)\n      tag_34\n      swap2\n      swap1\n      tag_35\n      jump\t// in\n    tag_34:\n      mload(0x40)\n      dup1\n      swap2\n      sub\n      swap1\n      return\n        /* \"Arrays/ArrayIntro.sol\":552:647  function get3() public  view returns(address[4] memory)... */\n    tag_8:\n      tag_36\n      tag_37\n      jump\t// in\n    tag_36:\n      mload(0x40)\n      tag_38\n      swap2\n      swap1\n      tag_39\n      jump\t// in\n    tag_38:\n      mload(0x40)\n      dup1\n      swap2\n      sub\n      swap1\n      return\n        /* \"Arrays/ArrayIntro.sol\":450:545  function get2() public  view returns(string[3] memory)... */\n    tag_9:\n      tag_40\n      tag_41\n      jump\t// in\n    tag_40:\n      mload(0x40)\n      tag_42\n      swap2\n      swap1\n      tag_43\n      jump\t// in\n    tag_42:\n      mload(0x40)\n      dup1\n      swap2\n      sub\n      swap1\n      return\n        /* \"Arrays/ArrayIntro.sol\":126:160  uint[7] public arr2=[1,23,4,2,5,4] */\n    tag_10:\n      tag_44\n      0x04\n      dup1\n      calldatasize\n      sub\n      dup2\n      add\n      swap1\n      tag_45\n      swap2\n      swap1\n      tag_22\n      jump\t// in\n    tag_45:\n      tag_46\n      jump\t// in\n    tag_44:\n      mload(0x40)\n      tag_47\n      swap2\n      swap1\n      tag_25\n      jump\t// in\n    tag_47:\n      mload(0x40)\n      dup1\n      swap2\n      sub\n      swap1\n      return\n        /* \"Arrays/ArrayIntro.sol\":349:443  function get1() public  view returns(uint[7] memory)... */\n    tag_13:\n        /* \"Arrays/ArrayIntro.sol\":386:400  uint[7] memory */\n      tag_48\n      tag_49\n      jump\t// in\n    tag_48:\n        /* \"Arrays/ArrayIntro.sol\":430:434  arr2 */\n      0x04\n        /* \"Arrays/ArrayIntro.sol\":423:434  return arr2 */\n      0x07\n      dup1\n      0x20\n      mul\n      mload(0x40)\n      swap1\n      dup2\n      add\n      0x40\n      mstore\n      dup1\n      swap3\n      swap2\n      swap1\n      dup3\n      0x07\n      dup1\n      iszero\n      tag_51\n      jumpi\n      0x20\n      mul\n      dup3\n      add\n      swap2\n    tag_52:\n      dup2\n      sload\n      dup2\n      mstore\n      0x20\n      add\n      swap1\n      0x01\n      add\n      swap1\n      dup1\n      dup4\n      gt\n      tag_52\n      jumpi\n    tag_51:\n      pop\n      pop\n      pop\n      pop\n      pop\n      swap1\n      pop\n        /* \"Arrays/ArrayIntro.sol\":349:443  function get1() public  view returns(uint[7] memory)... */\n      swap1\n      jump\t// out\n        /* \"Arrays/ArrayIntro.sol\":250:342  function get() public  view returns(uint[4] memory)... */\n    tag_17:\n        /* \"Arrays/ArrayIntro.sol\":286:300  uint[4] memory */\n      tag_53\n      tag_54\n      jump\t// in\n    tag_53:\n        /* \"Arrays/ArrayIntro.sol\":330:333  arr */\n      0x00\n        /* \"Arrays/ArrayIntro.sol\":323:333  return arr */\n      0x04\n      dup1\n      0x20\n      mul\n      mload(0x40)\n      swap1\n      dup2\n      add\n      0x40\n      mstore\n      dup1\n      swap3\n      swap2\n      swap1\n      dup3\n      0x04\n      dup1\n      iszero\n      tag_56\n      jumpi\n      0x20\n      mul\n      dup3\n      add\n      swap2\n    tag_57:\n      dup2\n      sload\n      dup2\n      mstore\n      0x20\n      add\n      swap1\n      0x01\n      add\n      swap1\n      dup1\n      dup4\n      gt\n      tag_57\n      jumpi\n    tag_56:\n      pop\n      pop\n      pop\n      pop\n      pop\n      swap1\n      pop\n        /* \"Arrays/ArrayIntro.sol\":250:342  function get() public  view returns(uint[4] memory)... */\n      swap1\n      jump\t// out\n        /* \"Arrays/ArrayIntro.sol\":100:118  uint[4] public arr */\n    tag_23:\n      0x00\n      dup2\n      0x04\n      dup2\n      lt\n      tag_58\n      jumpi\n      0x00\n      dup1\n      revert\n    tag_58:\n      add\n      0x00\n      swap2\n      pop\n      swap1\n      pop\n      sload\n      dup2\n      jump\t// out\n        /* \"Arrays/ArrayIntro.sol\":170:212  string[3] public str=[\"as0\",\"sf\",\"sfssdf\"] */\n    tag_28:\n      0x0b\n      dup2\n      0x03\n      dup2\n      lt\n      tag_60\n      jumpi\n      0x00\n      dup1\n      revert\n    tag_60:\n      add\n      0x00\n      swap2\n      pop\n      swap1\n      pop\n      dup1\n      sload\n      tag_62\n      swap1\n      tag_63\n      jump\t// in\n    tag_62:\n      dup1\n      0x1f\n      add\n      0x20\n      dup1\n      swap2\n      div\n      mul\n      0x20\n      add\n      mload(0x40)\n      swap1\n      dup2\n      add\n      0x40\n      mstore\n      dup1\n      swap3\n      swap2\n      swap1\n      dup2\n      dup2\n      mstore\n      0x20\n      add\n      dup3\n      dup1\n      sload\n      tag_64\n      swap1\n      tag_63\n      jump\t// in\n    tag_64:\n      dup1\n      iszero\n      tag_65\n      jumpi\n      dup1\n      0x1f\n      lt\n      tag_66\n      jumpi\n      0x0100\n      dup1\n      dup4\n      sload\n      div\n      mul\n      dup4\n      mstore\n      swap2\n      0x20\n      add\n      swap2\n      jump(tag_65)\n    tag_66:\n      dup3\n      add\n      swap2\n      swap1\n      0x00\n      mstore\n      keccak256(0x00, 0x20)\n      swap1\n    tag_67:\n      dup2\n      sload\n      dup2\n      mstore\n      swap1\n      0x01\n      add\n      swap1\n      0x20\n      add\n      dup1\n      dup4\n      gt\n      tag_67\n      jumpi\n      dup3\n      swap1\n      sub\n      0x1f\n      and\n      dup3\n      add\n      swap2\n    tag_65:\n      pop\n      pop\n      pop\n      pop\n      pop\n      dup2\n      jump\t// out\n        /* \"Arrays/ArrayIntro.sol\":220:240  address[4] public ad */\n    tag_33:\n      0x0e\n      dup2\n      0x04\n      dup2\n      lt\n      tag_68\n      jumpi\n      0x00\n      dup1\n      revert\n    tag_68:\n      add\n      0x00\n      swap2\n      pop\n      sload\n      swap1\n      0x0100\n      exp\n      swap1\n      div\n      0xffffffffffffffffffffffffffffffffffffffff\n      and\n      dup2\n      jump\t// out\n        /* \"Arrays/ArrayIntro.sol\":552:647  function get3() public  view returns(address[4] memory)... */\n    tag_37:\n        /* \"Arrays/ArrayIntro.sol\":589:606  address[4] memory */\n      tag_70\n      tag_71\n      jump\t// in\n    tag_70:\n        /* \"Arrays/ArrayIntro.sol\":636:638  ad */\n      0x0e\n        /* \"Arrays/ArrayIntro.sol\":629:638  return ad */\n      0x04\n      dup1\n      0x20\n      mul\n      mload(0x40)\n      swap1\n      dup2\n      add\n      0x40\n      mstore\n      dup1\n      swap3\n      swap2\n      swap1\n      dup3\n      0x04\n      dup1\n      iszero\n      tag_73\n      jumpi\n      0x20\n      mul\n      dup3\n      add\n      swap2\n    tag_74:\n      dup2\n      0x00\n      swap1\n      sload\n      swap1\n      0x0100\n      exp\n      swap1\n      div\n      0xffffffffffffffffffffffffffffffffffffffff\n      and\n      0xffffffffffffffffffffffffffffffffffffffff\n      and\n      dup2\n      mstore\n      0x20\n      add\n      swap1\n      0x01\n      add\n      swap1\n      dup1\n      dup4\n      gt\n      tag_74\n      jumpi\n    tag_73:\n      pop\n      pop\n      pop\n      pop\n      pop\n      swap1\n      pop\n        /* \"Arrays/ArrayIntro.sol\":552:647  function get3() public  view returns(address[4] memory)... */\n      swap1\n      jump\t// out\n        /* \"Arrays/ArrayIntro.sol\":450:545  function get2() public  view returns(string[3] memory)... */\n    tag_41:\n        /* \"Arrays/ArrayIntro.sol\":487:503  string[3] memory */\n      tag_75\n      tag_76\n      jump\t// in\n    tag_75:\n        /* \"Arrays/ArrayIntro.sol\":533:536  str */\n      0x0b\n        /* \"Arrays/ArrayIntro.sol\":526:536  return str */\n      0x03\n      dup1\n      0x20\n      mul\n      mload(0x40)\n      swap1\n      dup2\n      add\n      0x40\n      mstore\n      dup1\n      swap3\n      swap2\n      swap1\n      0x00\n      swap1\n    tag_78:\n      dup3\n      dup3\n      lt\n      iszero\n      tag_79\n      jumpi\n      dup4\n      dup3\n      add\n      dup1\n      sload\n      tag_81\n      swap1\n      tag_63\n      jump\t// in\n    tag_81:\n      dup1\n      0x1f\n      add\n      0x20\n      dup1\n      swap2\n      div\n      mul\n      0x20\n      add\n      mload(0x40)\n      swap1\n      dup2\n      add\n      0x40\n      mstore\n      dup1\n      swap3\n      swap2\n      swap1\n      dup2\n      dup2\n      mstore\n      0x20\n      add\n      dup3\n      dup1\n      sload\n      tag_82\n      swap1\n      tag_63\n      jump\t// in\n    tag_82:\n      dup1\n      iszero\n      tag_83\n      jumpi\n      dup1\n      0x1f\n      lt\n      tag_84\n      jumpi\n      0x0100\n      dup1\n      dup4\n      sload\n      div\n      mul\n      dup4\n      mstore\n      swap2\n      0x20\n      add\n      swap2\n      jump(tag_83)\n    tag_84:\n      dup3\n      add\n      swap2\n      swap1\n      0x00\n      mstore\n      keccak256(0x00, 0x20)\n      swap1\n    tag_85:\n      dup2\n      sload\n      dup2\n      mstore\n      swap1\n      0x01\n      add\n      swap1\n      0x20\n      add\n      dup1\n      dup4\n      gt\n      tag_85\n      jumpi\n      dup3\n      swap1\n      sub\n      0x1f\n      and\n      dup3\n      add\n      swap2\n    tag_83:\n      pop\n      pop\n      pop\n      pop\n      pop\n      dup2\n      mstore\n      0x20\n      add\n      swap1\n      0x01\n      add\n      swap1\n      jump(tag_78)\n    tag_79:\n      pop\n      pop\n      pop\n      pop\n      swap1\n      pop\n        /* \"Arrays/ArrayIntro.sol\":450:545  function get2() public  view returns(string[3] memory)... */\n      swap1\n      jump\t// out\n        /* \"Arrays/ArrayIntro.sol\":126:160  uint[7] public arr2=[1,23,4,2,5,4] */\n    tag_46:\n      0x04\n      dup2\n      0x07\n      dup2\n      lt\n      tag_86\n      jumpi\n      0x00\n      dup1\n      revert\n    tag_86:\n      add\n      0x00\n      swap2\n      pop\n      swap1\n      pop\n      sload\n      dup2\n      jump\t// out\n    tag_49:\n      mload(0x40)\n      dup1\n      0xe0\n      add\n      0x40\n      mstore\n      dup1\n      0x07\n      swap1\n      0x20\n      dup3\n      mul\n      dup1\n      calldatasize\n      dup4\n      calldatacopy\n      dup1\n      dup3\n      add\n      swap2\n      pop\n      pop\n      swap1\n      pop\n      pop\n      swap1\n      jump\t// out\n    tag_54:\n      mload(0x40)\n      dup1\n      0x80\n      add\n      0x40\n      mstore\n      dup1\n      0x04\n      swap1\n      0x20\n      dup3\n      mul\n      dup1\n      calldatasize\n      dup4\n      calldatacopy\n      dup1\n      dup3\n      add\n      swap2\n      pop\n      pop\n      swap1\n      pop\n      pop\n      swap1\n      jump\t// out\n    tag_71:\n      mload(0x40)\n      dup1\n      0x80\n      add\n      0x40\n      mstore\n      dup1\n      0x04\n      swap1\n      0x20\n      dup3\n      mul\n      dup1\n      calldatasize\n      dup4\n      calldatacopy\n      dup1\n      dup3\n      add\n      swap2\n      pop\n      pop\n      swap1\n      pop\n      pop\n      swap1\n      jump\t// out\n    tag_76:\n      mload(0x40)\n      dup1\n      0x60\n      add\n      0x40\n      mstore\n      dup1\n      0x03\n      swap1\n    tag_88:\n      0x60\n      dup2\n      mstore\n      0x20\n      add\n      swap1\n      0x01\n      swap1\n      sub\n      swap1\n      dup2\n      tag_88\n      jumpi\n      swap1\n      pop\n      pop\n      swap1\n      jump\t// out\n        /* \"#utility.yul\":7:111   */\n    tag_89:\n        /* \"#utility.yul\":72:78   */\n      0x00\n        /* \"#utility.yul\":100:104   */\n      0x07\n        /* \"#utility.yul\":90:104   */\n      swap1\n      pop\n        /* \"#utility.yul\":7:111   */\n      swap2\n      swap1\n      pop\n      jump\t// out\n        /* \"#utility.yul\":117:260   */\n    tag_90:\n        /* \"#utility.yul\":214:225   */\n      0x00\n        /* \"#utility.yul\":251:254   */\n      dup2\n        /* \"#utility.yul\":236:254   */\n      swap1\n      pop\n        /* \"#utility.yul\":117:260   */\n      swap3\n      swap2\n      pop\n      pop\n      jump\t// out\n        /* \"#utility.yul\":266:364   */\n    tag_91:\n        /* \"#utility.yul\":331:335   */\n      0x00\n        /* \"#utility.yul\":354:357   */\n      dup2\n        /* \"#utility.yul\":346:357   */\n      swap1\n      pop\n        /* \"#utility.yul\":266:364   */\n      swap2\n      swap1\n      pop\n      jump\t// out\n        /* \"#utility.yul\":370:447   */\n    tag_92:\n        /* \"#utility.yul\":407:414   */\n      0x00\n        /* \"#utility.yul\":436:441   */\n      dup2\n        /* \"#utility.yul\":425:441   */\n      swap1\n      pop\n        /* \"#utility.yul\":370:447   */\n      swap2\n      swap1\n      pop\n      jump\t// out\n        /* \"#utility.yul\":453:561   */\n    tag_93:\n        /* \"#utility.yul\":530:554   */\n      tag_138\n        /* \"#utility.yul\":548:553   */\n      dup2\n        /* \"#utility.yul\":530:554   */\n      tag_92\n      jump\t// in\n    tag_138:\n        /* \"#utility.yul\":525:528   */\n      dup3\n        /* \"#utility.yul\":518:555   */\n      mstore\n        /* \"#utility.yul\":453:561   */\n      pop\n      pop\n      jump\t// out\n        /* \"#utility.yul\":567:746   */\n    tag_94:\n        /* \"#utility.yul\":636:646   */\n      0x00\n        /* \"#utility.yul\":657:703   */\n      tag_140\n        /* \"#utility.yul\":699:702   */\n      dup4\n        /* \"#utility.yul\":691:697   */\n      dup4\n        /* \"#utility.yul\":657:703   */\n      tag_93\n      jump\t// in\n    tag_140:\n        /* \"#utility.yul\":735:739   */\n      0x20\n        /* \"#utility.yul\":730:733   */\n      dup4\n        /* \"#utility.yul\":726:740   */\n      add\n        /* \"#utility.yul\":712:740   */\n      swap1\n      pop\n        /* \"#utility.yul\":567:746   */\n      swap3\n      swap2\n      pop\n      pop\n      jump\t// out\n        /* \"#utility.yul\":752:863   */\n    tag_95:\n        /* \"#utility.yul\":820:824   */\n      0x00\n        /* \"#utility.yul\":852:856   */\n      0x20\n        /* \"#utility.yul\":847:850   */\n      dup3\n        /* \"#utility.yul\":843:857   */\n      add\n        /* \"#utility.yul\":835:857   */\n      swap1\n      pop\n        /* \"#utility.yul\":752:863   */\n      swap2\n      swap1\n      pop\n      jump\t// out\n        /* \"#utility.yul\":901:1595   */\n    tag_96:\n        /* \"#utility.yul\":1037:1089   */\n      tag_143\n        /* \"#utility.yul\":1083:1088   */\n      dup2\n        /* \"#utility.yul\":1037:1089   */\n      tag_89\n      jump\t// in\n    tag_143:\n        /* \"#utility.yul\":1105:1189   */\n      tag_144\n        /* \"#utility.yul\":1182:1188   */\n      dup2\n        /* \"#utility.yul\":1177:1180   */\n      dup5\n        /* \"#utility.yul\":1105:1189   */\n      tag_90\n      jump\t// in\n    tag_144:\n        /* \"#utility.yul\":1098:1189   */\n      swap3\n      pop\n        /* \"#utility.yul\":1213:1267   */\n      tag_145\n        /* \"#utility.yul\":1261:1266   */\n      dup3\n        /* \"#utility.yul\":1213:1267   */\n      tag_91\n      jump\t// in\n    tag_145:\n        /* \"#utility.yul\":1290:1297   */\n      dup1\n        /* \"#utility.yul\":1321:1322   */\n      0x00\n        /* \"#utility.yul\":1306:1588   */\n    tag_146:\n        /* \"#utility.yul\":1331:1337   */\n      dup4\n        /* \"#utility.yul\":1328:1329   */\n      dup2\n        /* \"#utility.yul\":1325:1338   */\n      lt\n        /* \"#utility.yul\":1306:1588   */\n      iszero\n      tag_148\n      jumpi\n        /* \"#utility.yul\":1407:1413   */\n      dup2\n        /* \"#utility.yul\":1401:1414   */\n      mload\n        /* \"#utility.yul\":1434:1497   */\n      tag_149\n        /* \"#utility.yul\":1493:1496   */\n      dup8\n        /* \"#utility.yul\":1478:1491   */\n      dup3\n        /* \"#utility.yul\":1434:1497   */\n      tag_94\n      jump\t// in\n    tag_149:\n        /* \"#utility.yul\":1427:1497   */\n      swap7\n      pop\n        /* \"#utility.yul\":1520:1578   */\n      tag_150\n        /* \"#utility.yul\":1571:1577   */\n      dup4\n        /* \"#utility.yul\":1520:1578   */\n      tag_95\n      jump\t// in\n    tag_150:\n        /* \"#utility.yul\":1510:1578   */\n      swap3\n      pop\n        /* \"#utility.yul\":1366:1588   */\n      pop\n        /* \"#utility.yul\":1353:1354   */\n      0x01\n        /* \"#utility.yul\":1350:1351   */\n      dup2\n        /* \"#utility.yul\":1346:1355   */\n      add\n        /* \"#utility.yul\":1341:1355   */\n      swap1\n      pop\n        /* \"#utility.yul\":1306:1588   */\n      jump(tag_146)\n    tag_148:\n        /* \"#utility.yul\":1310:1324   */\n      pop\n        /* \"#utility.yul\":1013:1595   */\n      pop\n      pop\n      pop\n        /* \"#utility.yul\":901:1595   */\n      pop\n      pop\n      jump\t// out\n        /* \"#utility.yul\":1601:1916   */\n    tag_15:\n        /* \"#utility.yul\":1740:1744   */\n      0x00\n        /* \"#utility.yul\":1778:1781   */\n      0xe0\n        /* \"#utility.yul\":1767:1776   */\n      dup3\n        /* \"#utility.yul\":1763:1782   */\n      add\n        /* \"#utility.yul\":1755:1782   */\n      swap1\n      pop\n        /* \"#utility.yul\":1792:1909   */\n      tag_152\n        /* \"#utility.yul\":1906:1907   */\n      0x00\n        /* \"#utility.yul\":1895:1904   */\n      dup4\n        /* \"#utility.yul\":1891:1908   */\n      add\n        /* \"#utility.yul\":1882:1888   */\n      dup5\n        /* \"#utility.yul\":1792:1909   */\n      tag_96\n      jump\t// in\n    tag_152:\n        /* \"#utility.yul\":1601:1916   */\n      swap3\n      swap2\n      pop\n      pop\n      jump\t// out\n        /* \"#utility.yul\":1922:2026   */\n    tag_97:\n        /* \"#utility.yul\":1987:1993   */\n      0x00\n        /* \"#utility.yul\":2015:2019   */\n      0x04\n        /* \"#utility.yul\":2005:2019   */\n      swap1\n      pop\n        /* \"#utility.yul\":1922:2026   */\n      swap2\n      swap1\n      pop\n      jump\t// out\n        /* \"#utility.yul\":2032:2175   */\n    tag_98:\n        /* \"#utility.yul\":2129:2140   */\n      0x00\n        /* \"#utility.yul\":2166:2169   */\n      dup2\n        /* \"#utility.yul\":2151:2169   */\n      swap1\n      pop\n        /* \"#utility.yul\":2032:2175   */\n      swap3\n      swap2\n      pop\n      pop\n      jump\t// out\n        /* \"#utility.yul\":2181:2279   */\n    tag_99:\n        /* \"#utility.yul\":2246:2250   */\n      0x00\n        /* \"#utility.yul\":2269:2272   */\n      dup2\n        /* \"#utility.yul\":2261:2272   */\n      swap1\n      pop\n        /* \"#utility.yul\":2181:2279   */\n      swap2\n      swap1\n      pop\n      jump\t// out\n        /* \"#utility.yul\":2285:2396   */\n    tag_100:\n        /* \"#utility.yul\":2353:2357   */\n      0x00\n        /* \"#utility.yul\":2385:2389   */\n      0x20\n        /* \"#utility.yul\":2380:2383   */\n      dup3\n        /* \"#utility.yul\":2376:2390   */\n      add\n        /* \"#utility.yul\":2368:2390   */\n      swap1\n      pop\n        /* \"#utility.yul\":2285:2396   */\n      swap2\n      swap1\n      pop\n      jump\t// out\n        /* \"#utility.yul\":2434:3128   */\n    tag_101:\n        /* \"#utility.yul\":2570:2622   */\n      tag_158\n        /* \"#utility.yul\":2616:2621   */\n      dup2\n        /* \"#utility.yul\":2570:2622   */\n      tag_97\n      jump\t// in\n    tag_158:\n        /* \"#utility.yul\":2638:2722   */\n      tag_159\n        /* \"#utility.yul\":2715:2721   */\n      dup2\n        /* \"#utility.yul\":2710:2713   */\n      dup5\n        /* \"#utility.yul\":2638:2722   */\n      tag_98\n      jump\t// in\n    tag_159:\n        /* \"#utility.yul\":2631:2722   */\n      swap3\n      pop\n        /* \"#utility.yul\":2746:2800   */\n      tag_160\n        /* \"#utility.yul\":2794:2799   */\n      dup3\n        /* \"#utility.yul\":2746:2800   */\n      tag_99\n      jump\t// in\n    tag_160:\n        /* \"#utility.yul\":2823:2830   */\n      dup1\n        /* \"#utility.yul\":2854:2855   */\n      0x00\n        /* \"#utility.yul\":2839:3121   */\n    tag_161:\n        /* \"#utility.yul\":2864:2870   */\n      dup4\n        /* \"#utility.yul\":2861:2862   */\n      dup2\n        /* \"#utility.yul\":2858:2871   */\n      lt\n        /* \"#utility.yul\":2839:3121   */\n      iszero\n      tag_163\n      jumpi\n        /* \"#utility.yul\":2940:2946   */\n      dup2\n        /* \"#utility.yul\":2934:2947   */\n      mload\n        /* \"#utility.yul\":2967:3030   */\n      tag_164\n        /* \"#utility.yul\":3026:3029   */\n      dup8\n        /* \"#utility.yul\":3011:3024   */\n      dup3\n        /* \"#utility.yul\":2967:3030   */\n      tag_94\n      jump\t// in\n    tag_164:\n        /* \"#utility.yul\":2960:3030   */\n      swap7\n      pop\n        /* \"#utility.yul\":3053:3111   */\n      tag_165\n        /* \"#utility.yul\":3104:3110   */\n      dup4\n        /* \"#utility.yul\":3053:3111   */\n      tag_100\n      jump\t// in\n    tag_165:\n        /* \"#utility.yul\":3043:3111   */\n      swap3\n      pop\n        /* \"#utility.yul\":2899:3121   */\n      pop\n        /* \"#utility.yul\":2886:2887   */\n      0x01\n        /* \"#utility.yul\":2883:2884   */\n      dup2\n        /* \"#utility.yul\":2879:2888   */\n      add\n        /* \"#utility.yul\":2874:2888   */\n      swap1\n      pop\n        /* \"#utility.yul\":2839:3121   */\n      jump(tag_161)\n    tag_163:\n        /* \"#utility.yul\":2843:2857   */\n      pop\n        /* \"#utility.yul\":2546:3128   */\n      pop\n      pop\n      pop\n        /* \"#utility.yul\":2434:3128   */\n      pop\n      pop\n      jump\t// out\n        /* \"#utility.yul\":3134:3449   */\n    tag_19:\n        /* \"#utility.yul\":3273:3277   */\n      0x00\n        /* \"#utility.yul\":3311:3314   */\n      0x80\n        /* \"#utility.yul\":3300:3309   */\n      dup3\n        /* \"#utility.yul\":3296:3315   */\n      add\n        /* \"#utility.yul\":3288:3315   */\n      swap1\n      pop\n        /* \"#utility.yul\":3325:3442   */\n      tag_167\n        /* \"#utility.yul\":3439:3440   */\n      0x00\n        /* \"#utility.yul\":3428:3437   */\n      dup4\n        /* \"#utility.yul\":3424:3441   */\n      add\n        /* \"#utility.yul\":3415:3421   */\n      dup5\n        /* \"#utility.yul\":3325:3442   */\n      tag_101\n      jump\t// in\n    tag_167:\n        /* \"#utility.yul\":3134:3449   */\n      swap3\n      swap2\n      pop\n      pop\n      jump\t// out\n        /* \"#utility.yul\":3536:3653   */\n    tag_103:\n        /* \"#utility.yul\":3645:3646   */\n      0x00\n        /* \"#utility.yul\":3642:3643   */\n      dup1\n        /* \"#utility.yul\":3635:3647   */\n      revert\n        /* \"#utility.yul\":3782:3904   */\n    tag_105:\n        /* \"#utility.yul\":3855:3879   */\n      tag_172\n        /* \"#utility.yul\":3873:3878   */\n      dup2\n        /* \"#utility.yul\":3855:3879   */\n      tag_92\n      jump\t// in\n    tag_172:\n        /* \"#utility.yul\":3848:3853   */\n      dup2\n        /* \"#utility.yul\":3845:3880   */\n      eq\n        /* \"#utility.yul\":3835:3898   */\n      tag_173\n      jumpi\n        /* \"#utility.yul\":3894:3895   */\n      0x00\n        /* \"#utility.yul\":3891:3892   */\n      dup1\n        /* \"#utility.yul\":3884:3896   */\n      revert\n        /* \"#utility.yul\":3835:3898   */\n    tag_173:\n        /* \"#utility.yul\":3782:3904   */\n      pop\n      jump\t// out\n        /* \"#utility.yul\":3910:4049   */\n    tag_106:\n        /* \"#utility.yul\":3956:3961   */\n      0x00\n        /* \"#utility.yul\":3994:4000   */\n      dup2\n        /* \"#utility.yul\":3981:4001   */\n      calldataload\n        /* \"#utility.yul\":3972:4001   */\n      swap1\n      pop\n        /* \"#utility.yul\":4010:4043   */\n      tag_175\n        /* \"#utility.yul\":4037:4042   */\n      dup2\n        /* \"#utility.yul\":4010:4043   */\n      tag_105\n      jump\t// in\n    tag_175:\n        /* \"#utility.yul\":3910:4049   */\n      swap3\n      swap2\n      pop\n      pop\n      jump\t// out\n        /* \"#utility.yul\":4055:4384   */\n    tag_22:\n        /* \"#utility.yul\":4114:4120   */\n      0x00\n        /* \"#utility.yul\":4163:4165   */\n      0x20\n        /* \"#utility.yul\":4151:4160   */\n      dup3\n        /* \"#utility.yul\":4142:4149   */\n      dup5\n        /* \"#utility.yul\":4138:4161   */\n      sub\n        /* \"#utility.yul\":4134:4166   */\n      slt\n        /* \"#utility.yul\":4131:4250   */\n      iszero\n      tag_177\n      jumpi\n        /* \"#utility.yul\":4169:4248   */\n      tag_178\n      tag_103\n      jump\t// in\n    tag_178:\n        /* \"#utility.yul\":4131:4250   */\n    tag_177:\n        /* \"#utility.yul\":4289:4290   */\n      0x00\n        /* \"#utility.yul\":4314:4367   */\n      tag_179\n        /* \"#utility.yul\":4359:4366   */\n      dup5\n        /* \"#utility.yul\":4350:4356   */\n      dup3\n        /* \"#utility.yul\":4339:4348   */\n      dup6\n        /* \"#utility.yul\":4335:4357   */\n      add\n        /* \"#utility.yul\":4314:4367   */\n      tag_106\n      jump\t// in\n    tag_179:\n        /* \"#utility.yul\":4304:4367   */\n      swap2\n      pop\n        /* \"#utility.yul\":4260:4377   */\n      pop\n        /* \"#utility.yul\":4055:4384   */\n      swap3\n      swap2\n      pop\n      pop\n      jump\t// out\n        /* \"#utility.yul\":4390:4508   */\n    tag_107:\n        /* \"#utility.yul\":4477:4501   */\n      tag_181\n        /* \"#utility.yul\":4495:4500   */\n      dup2\n        /* \"#utility.yul\":4477:4501   */\n      tag_92\n      jump\t// in\n    tag_181:\n        /* \"#utility.yul\":4472:4475   */\n      dup3\n        /* \"#utility.yul\":4465:4502   */\n      mstore\n        /* \"#utility.yul\":4390:4508   */\n      pop\n      pop\n      jump\t// out\n        /* \"#utility.yul\":4514:4736   */\n    tag_25:\n        /* \"#utility.yul\":4607:4611   */\n      0x00\n        /* \"#utility.yul\":4645:4647   */\n      0x20\n        /* \"#utility.yul\":4634:4643   */\n      dup3\n        /* \"#utility.yul\":4630:4648   */\n      add\n        /* \"#utility.yul\":4622:4648   */\n      swap1\n      pop\n        /* \"#utility.yul\":4658:4729   */\n      tag_183\n        /* \"#utility.yul\":4726:4727   */\n      0x00\n        /* \"#utility.yul\":4715:4724   */\n      dup4\n        /* \"#utility.yul\":4711:4728   */\n      add\n        /* \"#utility.yul\":4702:4708   */\n      dup5\n        /* \"#utility.yul\":4658:4729   */\n      tag_107\n      jump\t// in\n    tag_183:\n        /* \"#utility.yul\":4514:4736   */\n      swap3\n      swap2\n      pop\n      pop\n      jump\t// out\n        /* \"#utility.yul\":4742:4841   */\n    tag_108:\n        /* \"#utility.yul\":4794:4800   */\n      0x00\n        /* \"#utility.yul\":4828:4833   */\n      dup2\n        /* \"#utility.yul\":4822:4834   */\n      mload\n        /* \"#utility.yul\":4812:4834   */\n      swap1\n      pop\n        /* \"#utility.yul\":4742:4841   */\n      swap2\n      swap1\n      pop\n      jump\t// out\n        /* \"#utility.yul\":4847:5016   */\n    tag_109:\n        /* \"#utility.yul\":4931:4942   */\n      0x00\n        /* \"#utility.yul\":4965:4971   */\n      dup3\n        /* \"#utility.yul\":4960:4963   */\n      dup3\n        /* \"#utility.yul\":4953:4972   */\n      mstore\n        /* \"#utility.yul\":5005:5009   */\n      0x20\n        /* \"#utility.yul\":5000:5003   */\n      dup3\n        /* \"#utility.yul\":4996:5010   */\n      add\n        /* \"#utility.yul\":4981:5010   */\n      swap1\n      pop\n        /* \"#utility.yul\":4847:5016   */\n      swap3\n      swap2\n      pop\n      pop\n      jump\t// out\n        /* \"#utility.yul\":5022:5268   */\n    tag_110:\n        /* \"#utility.yul\":5103:5104   */\n      0x00\n        /* \"#utility.yul\":5113:5226   */\n    tag_187:\n        /* \"#utility.yul\":5127:5133   */\n      dup4\n        /* \"#utility.yul\":5124:5125   */\n      dup2\n        /* \"#utility.yul\":5121:5134   */\n      lt\n        /* \"#utility.yul\":5113:5226   */\n      iszero\n      tag_189\n      jumpi\n        /* \"#utility.yul\":5212:5213   */\n      dup1\n        /* \"#utility.yul\":5207:5210   */\n      dup3\n        /* \"#utility.yul\":5203:5214   */\n      add\n        /* \"#utility.yul\":5197:5215   */\n      mload\n        /* \"#utility.yul\":5193:5194   */\n      dup2\n        /* \"#utility.yul\":5188:5191   */\n      dup5\n        /* \"#utility.yul\":5184:5195   */\n      add\n        /* \"#utility.yul\":5177:5216   */\n      mstore\n        /* \"#utility.yul\":5149:5151   */\n      0x20\n        /* \"#utility.yul\":5146:5147   */\n      dup2\n        /* \"#utility.yul\":5142:5152   */\n      add\n        /* \"#utility.yul\":5137:5152   */\n      swap1\n      pop\n        /* \"#utility.yul\":5113:5226   */\n      jump(tag_187)\n    tag_189:\n        /* \"#utility.yul\":5260:5261   */\n      0x00\n        /* \"#utility.yul\":5251:5257   */\n      dup5\n        /* \"#utility.yul\":5246:5249   */\n      dup5\n        /* \"#utility.yul\":5242:5258   */\n      add\n        /* \"#utility.yul\":5235:5262   */\n      mstore\n        /* \"#utility.yul\":5084:5268   */\n      pop\n        /* \"#utility.yul\":5022:5268   */\n      pop\n      pop\n      pop\n      jump\t// out\n        /* \"#utility.yul\":5274:5376   */\n    tag_111:\n        /* \"#utility.yul\":5315:5321   */\n      0x00\n        /* \"#utility.yul\":5366:5368   */\n      0x1f\n        /* \"#utility.yul\":5362:5369   */\n      not\n        /* \"#utility.yul\":5357:5359   */\n      0x1f\n        /* \"#utility.yul\":5350:5355   */\n      dup4\n        /* \"#utility.yul\":5346:5360   */\n      add\n        /* \"#utility.yul\":5342:5370   */\n      and\n        /* \"#utility.yul\":5332:5370   */\n      swap1\n      pop\n        /* \"#utility.yul\":5274:5376   */\n      swap2\n      swap1\n      pop\n      jump\t// out\n        /* \"#utility.yul\":5382:5759   */\n    tag_112:\n        /* \"#utility.yul\":5470:5473   */\n      0x00\n        /* \"#utility.yul\":5498:5537   */\n      tag_192\n        /* \"#utility.yul\":5531:5536   */\n      dup3\n        /* \"#utility.yul\":5498:5537   */\n      tag_108\n      jump\t// in\n    tag_192:\n        /* \"#utility.yul\":5553:5624   */\n      tag_193\n        /* \"#utility.yul\":5617:5623   */\n      dup2\n        /* \"#utility.yul\":5612:5615   */\n      dup6\n        /* \"#utility.yul\":5553:5624   */\n      tag_109\n      jump\t// in\n    tag_193:\n        /* \"#utility.yul\":5546:5624   */\n      swap4\n      pop\n        /* \"#utility.yul\":5633:5698   */\n      tag_194\n        /* \"#utility.yul\":5691:5697   */\n      dup2\n        /* \"#utility.yul\":5686:5689   */\n      dup6\n        /* \"#utility.yul\":5679:5683   */\n      0x20\n        /* \"#utility.yul\":5672:5677   */\n      dup7\n        /* \"#utility.yul\":5668:5684   */\n      add\n        /* \"#utility.yul\":5633:5698   */\n      tag_110\n      jump\t// in\n    tag_194:\n        /* \"#utility.yul\":5723:5752   */\n      tag_195\n        /* \"#utility.yul\":5745:5751   */\n      dup2\n        /* \"#utility.yul\":5723:5752   */\n      tag_111\n      jump\t// in\n    tag_195:\n        /* \"#utility.yul\":5718:5721   */\n      dup5\n        /* \"#utility.yul\":5714:5753   */\n      add\n        /* \"#utility.yul\":5707:5753   */\n      swap2\n      pop\n        /* \"#utility.yul\":5474:5759   */\n      pop\n        /* \"#utility.yul\":5382:5759   */\n      swap3\n      swap2\n      pop\n      pop\n      jump\t// out\n        /* \"#utility.yul\":5765:6078   */\n    tag_30:\n        /* \"#utility.yul\":5878:5882   */\n      0x00\n        /* \"#utility.yul\":5916:5918   */\n      0x20\n        /* \"#utility.yul\":5905:5914   */\n      dup3\n        /* \"#utility.yul\":5901:5919   */\n      add\n        /* \"#utility.yul\":5893:5919   */\n      swap1\n      pop\n        /* \"#utility.yul\":5965:5974   */\n      dup2\n        /* \"#utility.yul\":5959:5963   */\n      dup2\n        /* \"#utility.yul\":5955:5975   */\n      sub\n        /* \"#utility.yul\":5951:5952   */\n      0x00\n        /* \"#utility.yul\":5940:5949   */\n      dup4\n        /* \"#utility.yul\":5936:5953   */\n      add\n        /* \"#utility.yul\":5929:5976   */\n      mstore\n        /* \"#utility.yul\":5993:6071   */\n      tag_197\n        /* \"#utility.yul\":6066:6070   */\n      dup2\n        /* \"#utility.yul\":6057:6063   */\n      dup5\n        /* \"#utility.yul\":5993:6071   */\n      tag_112\n      jump\t// in\n    tag_197:\n        /* \"#utility.yul\":5985:6071   */\n      swap1\n      pop\n        /* \"#utility.yul\":5765:6078   */\n      swap3\n      swap2\n      pop\n      pop\n      jump\t// out\n        /* \"#utility.yul\":6084:6210   */\n    tag_113:\n        /* \"#utility.yul\":6121:6128   */\n      0x00\n        /* \"#utility.yul\":6161:6203   */\n      0xffffffffffffffffffffffffffffffffffffffff\n        /* \"#utility.yul\":6154:6159   */\n      dup3\n        /* \"#utility.yul\":6150:6204   */\n      and\n        /* \"#utility.yul\":6139:6204   */\n      swap1\n      pop\n        /* \"#utility.yul\":6084:6210   */\n      swap2\n      swap1\n      pop\n      jump\t// out\n        /* \"#utility.yul\":6216:6312   */\n    tag_114:\n        /* \"#utility.yul\":6253:6260   */\n      0x00\n        /* \"#utility.yul\":6282:6306   */\n      tag_200\n        /* \"#utility.yul\":6300:6305   */\n      dup3\n        /* \"#utility.yul\":6282:6306   */\n      tag_113\n      jump\t// in\n    tag_200:\n        /* \"#utility.yul\":6271:6306   */\n      swap1\n      pop\n        /* \"#utility.yul\":6216:6312   */\n      swap2\n      swap1\n      pop\n      jump\t// out\n        /* \"#utility.yul\":6318:6436   */\n    tag_115:\n        /* \"#utility.yul\":6405:6429   */\n      tag_202\n        /* \"#utility.yul\":6423:6428   */\n      dup2\n        /* \"#utility.yul\":6405:6429   */\n      tag_114\n      jump\t// in\n    tag_202:\n        /* \"#utility.yul\":6400:6403   */\n      dup3\n        /* \"#utility.yul\":6393:6430   */\n      mstore\n        /* \"#utility.yul\":6318:6436   */\n      pop\n      pop\n      jump\t// out\n        /* \"#utility.yul\":6442:6664   */\n    tag_35:\n        /* \"#utility.yul\":6535:6539   */\n      0x00\n        /* \"#utility.yul\":6573:6575   */\n      0x20\n        /* \"#utility.yul\":6562:6571   */\n      dup3\n        /* \"#utility.yul\":6558:6576   */\n      add\n        /* \"#utility.yul\":6550:6576   */\n      swap1\n      pop\n        /* \"#utility.yul\":6586:6657   */\n      tag_204\n        /* \"#utility.yul\":6654:6655   */\n      0x00\n        /* \"#utility.yul\":6643:6652   */\n      dup4\n        /* \"#utility.yul\":6639:6656   */\n      add\n        /* \"#utility.yul\":6630:6636   */\n      dup5\n        /* \"#utility.yul\":6586:6657   */\n      tag_115\n      jump\t// in\n    tag_204:\n        /* \"#utility.yul\":6442:6664   */\n      swap3\n      swap2\n      pop\n      pop\n      jump\t// out\n        /* \"#utility.yul\":6670:6774   */\n    tag_116:\n        /* \"#utility.yul\":6735:6741   */\n      0x00\n        /* \"#utility.yul\":6763:6767   */\n      0x04\n        /* \"#utility.yul\":6753:6767   */\n      swap1\n      pop\n        /* \"#utility.yul\":6670:6774   */\n      swap2\n      swap1\n      pop\n      jump\t// out\n        /* \"#utility.yul\":6780:6923   */\n    tag_117:\n        /* \"#utility.yul\":6877:6888   */\n      0x00\n        /* \"#utility.yul\":6914:6917   */\n      dup2\n        /* \"#utility.yul\":6899:6917   */\n      swap1\n      pop\n        /* \"#utility.yul\":6780:6923   */\n      swap3\n      swap2\n      pop\n      pop\n      jump\t// out\n        /* \"#utility.yul\":6929:7027   */\n    tag_118:\n        /* \"#utility.yul\":6994:6998   */\n      0x00\n        /* \"#utility.yul\":7017:7020   */\n      dup2\n        /* \"#utility.yul\":7009:7020   */\n      swap1\n      pop\n        /* \"#utility.yul\":6929:7027   */\n      swap2\n      swap1\n      pop\n      jump\t// out\n        /* \"#utility.yul\":7033:7141   */\n    tag_119:\n        /* \"#utility.yul\":7110:7134   */\n      tag_209\n        /* \"#utility.yul\":7128:7133   */\n      dup2\n        /* \"#utility.yul\":7110:7134   */\n      tag_114\n      jump\t// in\n    tag_209:\n        /* \"#utility.yul\":7105:7108   */\n      dup3\n        /* \"#utility.yul\":7098:7135   */\n      mstore\n        /* \"#utility.yul\":7033:7141   */\n      pop\n      pop\n      jump\t// out\n        /* \"#utility.yul\":7147:7326   */\n    tag_120:\n        /* \"#utility.yul\":7216:7226   */\n      0x00\n        /* \"#utility.yul\":7237:7283   */\n      tag_211\n        /* \"#utility.yul\":7279:7282   */\n      dup4\n        /* \"#utility.yul\":7271:7277   */\n      dup4\n        /* \"#utility.yul\":7237:7283   */\n      tag_119\n      jump\t// in\n    tag_211:\n        /* \"#utility.yul\":7315:7319   */\n      0x20\n        /* \"#utility.yul\":7310:7313   */\n      dup4\n        /* \"#utility.yul\":7306:7320   */\n      add\n        /* \"#utility.yul\":7292:7320   */\n      swap1\n      pop\n        /* \"#utility.yul\":7147:7326   */\n      swap3\n      swap2\n      pop\n      pop\n      jump\t// out\n        /* \"#utility.yul\":7332:7443   */\n    tag_121:\n        /* \"#utility.yul\":7400:7404   */\n      0x00\n        /* \"#utility.yul\":7432:7436   */\n      0x20\n        /* \"#utility.yul\":7427:7430   */\n      dup3\n        /* \"#utility.yul\":7423:7437   */\n      add\n        /* \"#utility.yul\":7415:7437   */\n      swap1\n      pop\n        /* \"#utility.yul\":7332:7443   */\n      swap2\n      swap1\n      pop\n      jump\t// out\n        /* \"#utility.yul\":7481:8175   */\n    tag_122:\n        /* \"#utility.yul\":7617:7669   */\n      tag_214\n        /* \"#utility.yul\":7663:7668   */\n      dup2\n        /* \"#utility.yul\":7617:7669   */\n      tag_116\n      jump\t// in\n    tag_214:\n        /* \"#utility.yul\":7685:7769   */\n      tag_215\n        /* \"#utility.yul\":7762:7768   */\n      dup2\n        /* \"#utility.yul\":7757:7760   */\n      dup5\n        /* \"#utility.yul\":7685:7769   */\n      tag_117\n      jump\t// in\n    tag_215:\n        /* \"#utility.yul\":7678:7769   */\n      swap3\n      pop\n        /* \"#utility.yul\":7793:7847   */\n      tag_216\n        /* \"#utility.yul\":7841:7846   */\n      dup3\n        /* \"#utility.yul\":7793:7847   */\n      tag_118\n      jump\t// in\n    tag_216:\n        /* \"#utility.yul\":7870:7877   */\n      dup1\n        /* \"#utility.yul\":7901:7902   */\n      0x00\n        /* \"#utility.yul\":7886:8168   */\n    tag_217:\n        /* \"#utility.yul\":7911:7917   */\n      dup4\n        /* \"#utility.yul\":7908:7909   */\n      dup2\n        /* \"#utility.yul\":7905:7918   */\n      lt\n        /* \"#utility.yul\":7886:8168   */\n      iszero\n      tag_219\n      jumpi\n        /* \"#utility.yul\":7987:7993   */\n      dup2\n        /* \"#utility.yul\":7981:7994   */\n      mload\n        /* \"#utility.yul\":8014:8077   */\n      tag_220\n        /* \"#utility.yul\":8073:8076   */\n      dup8\n        /* \"#utility.yul\":8058:8071   */\n      dup3\n        /* \"#utility.yul\":8014:8077   */\n      tag_120\n      jump\t// in\n    tag_220:\n        /* \"#utility.yul\":8007:8077   */\n      swap7\n      pop\n        /* \"#utility.yul\":8100:8158   */\n      tag_221\n        /* \"#utility.yul\":8151:8157   */\n      dup4\n        /* \"#utility.yul\":8100:8158   */\n      tag_121\n      jump\t// in\n    tag_221:\n        /* \"#utility.yul\":8090:8158   */\n      swap3\n      pop\n        /* \"#utility.yul\":7946:8168   */\n      pop\n        /* \"#utility.yul\":7933:7934   */\n      0x01\n        /* \"#utility.yul\":7930:7931   */\n      dup2\n        /* \"#utility.yul\":7926:7935   */\n      add\n        /* \"#utility.yul\":7921:7935   */\n      swap1\n      pop\n        /* \"#utility.yul\":7886:8168   */\n      jump(tag_217)\n    tag_219:\n        /* \"#utility.yul\":7890:7904   */\n      pop\n        /* \"#utility.yul\":7593:8175   */\n      pop\n      pop\n      pop\n        /* \"#utility.yul\":7481:8175   */\n      pop\n      pop\n      jump\t// out\n        /* \"#utility.yul\":8181:8496   */\n    tag_39:\n        /* \"#utility.yul\":8320:8324   */\n      0x00\n        /* \"#utility.yul\":8358:8361   */\n      0x80\n        /* \"#utility.yul\":8347:8356   */\n      dup3\n        /* \"#utility.yul\":8343:8362   */\n      add\n        /* \"#utility.yul\":8335:8362   */\n      swap1\n      pop\n        /* \"#utility.yul\":8372:8489   */\n      tag_223\n        /* \"#utility.yul\":8486:8487   */\n      0x00\n        /* \"#utility.yul\":8475:8484   */\n      dup4\n        /* \"#utility.yul\":8471:8488   */\n      add\n        /* \"#utility.yul\":8462:8468   */\n      dup5\n        /* \"#utility.yul\":8372:8489   */\n      tag_122\n      jump\t// in\n    tag_223:\n        /* \"#utility.yul\":8181:8496   */\n      swap3\n      swap2\n      pop\n      pop\n      jump\t// out\n        /* \"#utility.yul\":8502:8616   */\n    tag_123:\n        /* \"#utility.yul\":8577:8583   */\n      0x00\n        /* \"#utility.yul\":8605:8609   */\n      0x03\n        /* \"#utility.yul\":8595:8609   */\n      swap1\n      pop\n        /* \"#utility.yul\":8502:8616   */\n      swap2\n      swap1\n      pop\n      jump\t// out\n        /* \"#utility.yul\":8622:8775   */\n    tag_124:\n        /* \"#utility.yul\":8729:8740   */\n      0x00\n        /* \"#utility.yul\":8766:8769   */\n      dup2\n        /* \"#utility.yul\":8751:8769   */\n      swap1\n      pop\n        /* \"#utility.yul\":8622:8775   */\n      swap3\n      swap2\n      pop\n      pop\n      jump\t// out\n        /* \"#utility.yul\":8781:8889   */\n    tag_125:\n        /* \"#utility.yul\":8856:8860   */\n      0x00\n        /* \"#utility.yul\":8879:8882   */\n      dup2\n        /* \"#utility.yul\":8871:8882   */\n      swap1\n      pop\n        /* \"#utility.yul\":8781:8889   */\n      swap2\n      swap1\n      pop\n      jump\t// out\n        /* \"#utility.yul\":8895:9054   */\n    tag_126:\n        /* \"#utility.yul\":8969:8980   */\n      0x00\n        /* \"#utility.yul\":9003:9009   */\n      dup3\n        /* \"#utility.yul\":8998:9001   */\n      dup3\n        /* \"#utility.yul\":8991:9010   */\n      mstore\n        /* \"#utility.yul\":9043:9047   */\n      0x20\n        /* \"#utility.yul\":9038:9041   */\n      dup3\n        /* \"#utility.yul\":9034:9048   */\n      add\n        /* \"#utility.yul\":9019:9048   */\n      swap1\n      pop\n        /* \"#utility.yul\":8895:9054   */\n      swap3\n      swap2\n      pop\n      pop\n      jump\t// out\n        /* \"#utility.yul\":9060:9417   */\n    tag_127:\n        /* \"#utility.yul\":9138:9141   */\n      0x00\n        /* \"#utility.yul\":9166:9205   */\n      tag_229\n        /* \"#utility.yul\":9199:9204   */\n      dup3\n        /* \"#utility.yul\":9166:9205   */\n      tag_108\n      jump\t// in\n    tag_229:\n        /* \"#utility.yul\":9221:9282   */\n      tag_230\n        /* \"#utility.yul\":9275:9281   */\n      dup2\n        /* \"#utility.yul\":9270:9273   */\n      dup6\n        /* \"#utility.yul\":9221:9282   */\n      tag_126\n      jump\t// in\n    tag_230:\n        /* \"#utility.yul\":9214:9282   */\n      swap4\n      pop\n        /* \"#utility.yul\":9291:9356   */\n      tag_231\n        /* \"#utility.yul\":9349:9355   */\n      dup2\n        /* \"#utility.yul\":9344:9347   */\n      dup6\n        /* \"#utility.yul\":9337:9341   */\n      0x20\n        /* \"#utility.yul\":9330:9335   */\n      dup7\n        /* \"#utility.yul\":9326:9342   */\n      add\n        /* \"#utility.yul\":9291:9356   */\n      tag_110\n      jump\t// in\n    tag_231:\n        /* \"#utility.yul\":9381:9410   */\n      tag_232\n        /* \"#utility.yul\":9403:9409   */\n      dup2\n        /* \"#utility.yul\":9381:9410   */\n      tag_111\n      jump\t// in\n    tag_232:\n        /* \"#utility.yul\":9376:9379   */\n      dup5\n        /* \"#utility.yul\":9372:9411   */\n      add\n        /* \"#utility.yul\":9365:9411   */\n      swap2\n      pop\n        /* \"#utility.yul\":9142:9417   */\n      pop\n        /* \"#utility.yul\":9060:9417   */\n      swap3\n      swap2\n      pop\n      pop\n      jump\t// out\n        /* \"#utility.yul\":9423:9619   */\n    tag_128:\n        /* \"#utility.yul\":9512:9522   */\n      0x00\n        /* \"#utility.yul\":9547:9613   */\n      tag_234\n        /* \"#utility.yul\":9609:9612   */\n      dup4\n        /* \"#utility.yul\":9601:9607   */\n      dup4\n        /* \"#utility.yul\":9547:9613   */\n      tag_127\n      jump\t// in\n    tag_234:\n        /* \"#utility.yul\":9533:9613   */\n      swap1\n      pop\n        /* \"#utility.yul\":9423:9619   */\n      swap3\n      swap2\n      pop\n      pop\n      jump\t// out\n        /* \"#utility.yul\":9625:9746   */\n    tag_129:\n        /* \"#utility.yul\":9703:9707   */\n      0x00\n        /* \"#utility.yul\":9735:9739   */\n      0x20\n        /* \"#utility.yul\":9730:9733   */\n      dup3\n        /* \"#utility.yul\":9726:9740   */\n      add\n        /* \"#utility.yul\":9718:9740   */\n      swap1\n      pop\n        /* \"#utility.yul\":9625:9746   */\n      swap2\n      swap1\n      pop\n      jump\t// out\n        /* \"#utility.yul\":9782:10761   */\n    tag_130:\n        /* \"#utility.yul\":9917:9920   */\n      0x00\n        /* \"#utility.yul\":9946:10008   */\n      tag_237\n        /* \"#utility.yul\":10002:10007   */\n      dup3\n        /* \"#utility.yul\":9946:10008   */\n      tag_123\n      jump\t// in\n    tag_237:\n        /* \"#utility.yul\":10024:10118   */\n      tag_238\n        /* \"#utility.yul\":10111:10117   */\n      dup2\n        /* \"#utility.yul\":10106:10109   */\n      dup6\n        /* \"#utility.yul\":10024:10118   */\n      tag_124\n      jump\t// in\n    tag_238:\n        /* \"#utility.yul\":10017:10118   */\n      swap4\n      pop\n        /* \"#utility.yul\":10144:10147   */\n      dup4\n        /* \"#utility.yul\":10189:10193   */\n      0x20\n        /* \"#utility.yul\":10181:10187   */\n      dup3\n        /* \"#utility.yul\":10177:10194   */\n      mul\n        /* \"#utility.yul\":10172:10175   */\n      dup6\n        /* \"#utility.yul\":10168:10195   */\n      add\n        /* \"#utility.yul\":10219:10283   */\n      tag_239\n        /* \"#utility.yul\":10277:10282   */\n      dup6\n        /* \"#utility.yul\":10219:10283   */\n      tag_125\n      jump\t// in\n    tag_239:\n        /* \"#utility.yul\":10306:10313   */\n      dup1\n        /* \"#utility.yul\":10337:10338   */\n      0x00\n        /* \"#utility.yul\":10322:10716   */\n    tag_240:\n        /* \"#utility.yul\":10347:10353   */\n      dup6\n        /* \"#utility.yul\":10344:10345   */\n      dup2\n        /* \"#utility.yul\":10341:10354   */\n      lt\n        /* \"#utility.yul\":10322:10716   */\n      iszero\n      tag_242\n      jumpi\n        /* \"#utility.yul\":10418:10427   */\n      dup5\n        /* \"#utility.yul\":10412:10416   */\n      dup5\n        /* \"#utility.yul\":10408:10428   */\n      sub\n        /* \"#utility.yul\":10403:10406   */\n      dup10\n        /* \"#utility.yul\":10396:10429   */\n      mstore\n        /* \"#utility.yul\":10469:10475   */\n      dup2\n        /* \"#utility.yul\":10463:10476   */\n      mload\n        /* \"#utility.yul\":10497:10581   */\n      tag_243\n        /* \"#utility.yul\":10576:10580   */\n      dup6\n        /* \"#utility.yul\":10561:10574   */\n      dup3\n        /* \"#utility.yul\":10497:10581   */\n      tag_128\n      jump\t// in\n    tag_243:\n        /* \"#utility.yul\":10489:10581   */\n      swap5\n      pop\n        /* \"#utility.yul\":10604:10672   */\n      tag_244\n        /* \"#utility.yul\":10665:10671   */\n      dup4\n        /* \"#utility.yul\":10604:10672   */\n      tag_129\n      jump\t// in\n    tag_244:\n        /* \"#utility.yul\":10594:10672   */\n      swap3\n      pop\n        /* \"#utility.yul\":10701:10705   */\n      0x20\n        /* \"#utility.yul\":10696:10699   */\n      dup11\n        /* \"#utility.yul\":10692:10706   */\n      add\n        /* \"#utility.yul\":10685:10706   */\n      swap10\n      pop\n        /* \"#utility.yul\":10382:10716   */\n      pop\n        /* \"#utility.yul\":10369:10370   */\n      0x01\n        /* \"#utility.yul\":10366:10367   */\n      dup2\n        /* \"#utility.yul\":10362:10371   */\n      add\n        /* \"#utility.yul\":10357:10371   */\n      swap1\n      pop\n        /* \"#utility.yul\":10322:10716   */\n      jump(tag_240)\n    tag_242:\n        /* \"#utility.yul\":10326:10340   */\n      pop\n        /* \"#utility.yul\":10732:10736   */\n      dup3\n        /* \"#utility.yul\":10725:10736   */\n      swap8\n      pop\n        /* \"#utility.yul\":10752:10755   */\n      dup8\n        /* \"#utility.yul\":10745:10755   */\n      swap6\n      pop\n        /* \"#utility.yul\":9922:10761   */\n      pop\n      pop\n      pop\n      pop\n      pop\n        /* \"#utility.yul\":9782:10761   */\n      swap3\n      swap2\n      pop\n      pop\n      jump\t// out\n        /* \"#utility.yul\":10767:11172   */\n    tag_43:\n        /* \"#utility.yul\":10926:10930   */\n      0x00\n        /* \"#utility.yul\":10964:10966   */\n      0x20\n        /* \"#utility.yul\":10953:10962   */\n      dup3\n        /* \"#utility.yul\":10949:10967   */\n      add\n        /* \"#utility.yul\":10941:10967   */\n      swap1\n      pop\n        /* \"#utility.yul\":11013:11022   */\n      dup2\n        /* \"#utility.yul\":11007:11011   */\n      dup2\n        /* \"#utility.yul\":11003:11023   */\n      sub\n        /* \"#utility.yul\":10999:11000   */\n      0x00\n        /* \"#utility.yul\":10988:10997   */\n      dup4\n        /* \"#utility.yul\":10984:11001   */\n      add\n        /* \"#utility.yul\":10977:11024   */\n      mstore\n        /* \"#utility.yul\":11041:11165   */\n      tag_246\n        /* \"#utility.yul\":11160:11164   */\n      dup2\n        /* \"#utility.yul\":11151:11157   */\n      dup5\n        /* \"#utility.yul\":11041:11165   */\n      tag_130\n      jump\t// in\n    tag_246:\n        /* \"#utility.yul\":11033:11165   */\n      swap1\n      pop\n        /* \"#utility.yul\":10767:11172   */\n      swap3\n      swap2\n      pop\n      pop\n      jump\t// out\n        /* \"#utility.yul\":11178:11358   */\n    tag_131:\n        /* \"#utility.yul\":11226:11303   */\n      0x4e487b7100000000000000000000000000000000000000000000000000000000\n        /* \"#utility.yul\":11223:11224   */\n      0x00\n        /* \"#utility.yul\":11216:11304   */\n      mstore\n        /* \"#utility.yul\":11323:11327   */\n      0x22\n        /* \"#utility.yul\":11320:11321   */\n      0x04\n        /* \"#utility.yul\":11313:11328   */\n      mstore\n        /* \"#utility.yul\":11347:11351   */\n      0x24\n        /* \"#utility.yul\":11344:11345   */\n      0x00\n        /* \"#utility.yul\":11337:11352   */\n      revert\n        /* \"#utility.yul\":11364:11684   */\n    tag_63:\n        /* \"#utility.yul\":11408:11414   */\n      0x00\n        /* \"#utility.yul\":11445:11446   */\n      0x02\n        /* \"#utility.yul\":11439:11443   */\n      dup3\n        /* \"#utility.yul\":11435:11447   */\n      div\n        /* \"#utility.yul\":11425:11447   */\n      swap1\n      pop\n        /* \"#utility.yul\":11492:11493   */\n      0x01\n        /* \"#utility.yul\":11486:11490   */\n      dup3\n        /* \"#utility.yul\":11482:11494   */\n      and\n        /* \"#utility.yul\":11513:11531   */\n      dup1\n        /* \"#utility.yul\":11503:11584   */\n      tag_249\n      jumpi\n        /* \"#utility.yul\":11569:11573   */\n      0x7f\n        /* \"#utility.yul\":11561:11567   */\n      dup3\n        /* \"#utility.yul\":11557:11574   */\n      and\n        /* \"#utility.yul\":11547:11574   */\n      swap2\n      pop\n        /* \"#utility.yul\":11503:11584   */\n    tag_249:\n        /* \"#utility.yul\":11631:11633   */\n      0x20\n        /* \"#utility.yul\":11623:11629   */\n      dup3\n        /* \"#utility.yul\":11620:11634   */\n      lt\n        /* \"#utility.yul\":11600:11618   */\n      dup2\n        /* \"#utility.yul\":11597:11635   */\n      sub\n        /* \"#utility.yul\":11594:11678   */\n      tag_250\n      jumpi\n        /* \"#utility.yul\":11650:11668   */\n      tag_251\n      tag_131\n      jump\t// in\n    tag_251:\n        /* \"#utility.yul\":11594:11678   */\n    tag_250:\n        /* \"#utility.yul\":11415:11684   */\n      pop\n        /* \"#utility.yul\":11364:11684   */\n      swap2\n      swap1\n      pop\n      jump\t// out\n\n    auxdata: 0xa26469706673582212205809d8901b905f7843d6ee6dec3925b5d70dbe947e7802833b006167f03a9d0e64736f6c63430008160033\n}\n",
				"bytecode": {
					"linkReferences": {},
					"object": "60806040526040518060c00160405280600160ff168152602001601760ff168152602001600460ff168152602001600260ff168152602001600560ff168152602001600460ff1681525060049060066200005b9291906200013c565b5060405180606001604052806040518060400160405280600381526020017f617330000000000000000000000000000000000000000000000000000000000081525081526020016040518060400160405280600281526020017f736600000000000000000000000000000000000000000000000000000000000081525081526020016040518060400160405280600681526020017f7366737364660000000000000000000000000000000000000000000000000000815250815250600b9060036200012892919062000186565b5034801562000135575f80fd5b50620005a8565b826007810192821562000173579160200282015b8281111562000172578251829060ff1690559160200191906001019062000150565b5b509050620001829190620001d9565b5090565b8260038101928215620001c6579160200282015b82811115620001c5578251829081620001b49190620004c4565b50916020019190600101906200019a565b5b509050620001d59190620001f6565b5090565b5b80821115620001f2575f815f905550600101620001da565b5090565b5b8082111562000219575f81816200020f91906200021d565b50600101620001f7565b5090565b5080546200022b90620002c4565b5f825580601f106200023e57506200025d565b601f0160209004905f5260205f20908101906200025c9190620001d9565b5b50565b5f81519050919050565b7f4e487b71000000000000000000000000000000000000000000000000000000005f52604160045260245ffd5b7f4e487b71000000000000000000000000000000000000000000000000000000005f52602260045260245ffd5b5f6002820490506001821680620002dc57607f821691505b602082108103620002f257620002f162000297565b5b50919050565b5f819050815f5260205f209050919050565b5f6020601f8301049050919050565b5f82821b905092915050565b5f60088302620003567fffffffffffffffffffffffffffffffffffffffffffffffffffffffffffffffff8262000319565b62000362868362000319565b95508019841693508086168417925050509392505050565b5f819050919050565b5f819050919050565b5f620003ac620003a6620003a0846200037a565b62000383565b6200037a565b9050919050565b5f819050919050565b620003c7836200038c565b620003df620003d682620003b3565b84845462000325565b825550505050565b5f90565b620003f5620003e7565b62000402818484620003bc565b505050565b5b8181101562000429576200041d5f82620003eb565b60018101905062000408565b5050565b601f82111562000478576200044281620002f8565b6200044d846200030a565b810160208510156200045d578190505b620004756200046c856200030a565b83018262000407565b50505b505050565b5f82821c905092915050565b5f6200049a5f19846008026200047d565b1980831691505092915050565b5f620004b4838362000489565b9150826002028217905092915050565b620004cf8262000260565b67ffffffffffffffff811115620004eb57620004ea6200026a565b5b620004f78254620002c4565b620005048282856200042d565b5f60209050601f8311600181146200053a575f841562000525578287015190505b620005318582620004a7565b865550620005a0565b601f1984166200054a86620002f8565b5f5b8281101562000573578489015182556001820191506020850194506020810190506200054c565b868310156200059357848901516200058f601f89168262000489565b8355505b6001600288020188555050505b505050505050565b610a7c80620005b65f395ff3fe608060405234801561000f575f80fd5b5060043610610086575f3560e01c8063737e3c5711610059578063737e3c57146101265780638321045c14610156578063d2178b0814610174578063edf0099b1461019257610086565b8063054c1a751461008a5780636d4ce63c146100a857806371e5ee5f146100c657806372511838146100f6575b5f80fd5b6100926101c2565b60405161009f91906105e0565b60405180910390f35b6100b061020d565b6040516100bd9190610678565b60405180910390f35b6100e060048036038101906100db91906106bf565b610257565b6040516100ed91906106f9565b60405180910390f35b610110600480360381019061010b91906106bf565b61026f565b60405161011d919061079c565b60405180910390f35b610140600480360381019061013b91906106bf565b61030e565b60405161014d91906107fb565b60405180910390f35b61015e610342565b60405161016b91906108b9565b60405180910390f35b61017c6103c2565b60405161018991906109c9565b60405180910390f35b6101ac60048036038101906101a791906106bf565b61048c565b6040516101b991906106f9565b60405180910390f35b6101ca6104a5565b6004600780602002604051908101604052809291908260078015610203576020028201915b8154815260200190600101908083116101ef575b5050505050905090565b6102156104c7565b5f60048060200260405190810160405280929190826004801561024d576020028201915b815481526020019060010190808311610239575b5050505050905090565b5f8160048110610265575f80fd5b015f915090505481565b600b816003811061027e575f80fd5b015f91509050805461028f90610a16565b80601f01602080910402602001604051908101604052809291908181526020018280546102bb90610a16565b80156103065780601f106102dd57610100808354040283529160200191610306565b820191905f5260205f20905b8154815290600101906020018083116102e957829003601f168201915b505050505081565b600e816004811061031d575f80fd5b015f915054906101000a900473ffffffffffffffffffffffffffffffffffffffff1681565b61034a6104e9565b600e6004806020026040519081016040528092919082600480156103b8576020028201915b815f9054906101000a900473ffffffffffffffffffffffffffffffffffffffff1673ffffffffffffffffffffffffffffffffffffffff168152602001906001019080831161036f575b5050505050905090565b6103ca61050b565b600b600380602002604051908101604052809291905f905b828210156104835783820180546103f890610a16565b80601f016020809104026020016040519081016040528092919081815260200182805461042490610a16565b801561046f5780601f106104465761010080835404028352916020019161046f565b820191905f5260205f20905b81548152906001019060200180831161045257829003601f168201915b5050505050815260200190600101906103e2565b50505050905090565b6004816007811061049b575f80fd5b015f915090505481565b6040518060e00160405280600790602082028036833780820191505090505090565b6040518060800160405280600490602082028036833780820191505090505090565b6040518060800160405280600490602082028036833780820191505090505090565b60405180606001604052806003905b606081526020019060019003908161051a5790505090565b5f60079050919050565b5f81905092915050565b5f819050919050565b5f819050919050565b6105618161054f565b82525050565b5f6105728383610558565b60208301905092915050565b5f602082019050919050565b61059381610532565b61059d818461053c565b92506105a882610546565b805f5b838110156105d85781516105bf8782610567565b96506105ca8361057e565b9250506001810190506105ab565b505050505050565b5f60e0820190506105f35f83018461058a565b92915050565b5f60049050919050565b5f81905092915050565b5f819050919050565b5f602082019050919050565b61062b816105f9565b6106358184610603565b92506106408261060d565b805f5b838110156106705781516106578782610567565b965061066283610616565b925050600181019050610643565b505050505050565b5f60808201905061068b5f830184610622565b92915050565b5f80fd5b61069e8161054f565b81146106a8575f80fd5b50565b5f813590506106b981610695565b92915050565b5f602082840312156106d4576106d3610691565b5b5f6106e1848285016106ab565b91505092915050565b6106f38161054f565b82525050565b5f60208201905061070c5f8301846106ea565b92915050565b5f81519050919050565b5f82825260208201905092915050565b5f5b8381101561074957808201518184015260208101905061072e565b5f8484015250505050565b5f601f19601f8301169050919050565b5f61076e82610712565b610778818561071c565b935061078881856020860161072c565b61079181610754565b840191505092915050565b5f6020820190508181035f8301526107b48184610764565b905092915050565b5f73ffffffffffffffffffffffffffffffffffffffff82169050919050565b5f6107e5826107bc565b9050919050565b6107f5816107db565b82525050565b5f60208201905061080e5f8301846107ec565b92915050565b5f60049050919050565b5f81905092915050565b5f819050919050565b61083a816107db565b82525050565b5f61084b8383610831565b60208301905092915050565b5f602082019050919050565b61086c81610814565b610876818461081e565b925061088182610828565b805f5b838110156108b15781516108988782610840565b96506108a383610857565b925050600181019050610884565b505050505050565b5f6080820190506108cc5f830184610863565b92915050565b5f60039050919050565b5f81905092915050565b5f819050919050565b5f82825260208201905092915050565b5f61090982610712565b61091381856108ef565b935061092381856020860161072c565b61092c81610754565b840191505092915050565b5f61094283836108ff565b905092915050565b5f602082019050919050565b5f610960826108d2565b61096a81856108dc565b93508360208202850161097c856108e6565b805f5b858110156109b757848403895281516109988582610937565b94506109a38361094a565b925060208a0199505060018101905061097f565b50829750879550505050505092915050565b5f6020820190508181035f8301526109e18184610956565b905092915050565b7f4e487b71000000000000000000000000000000000000000000000000000000005f52602260045260245ffd5b5f6002820490506001821680610a2d57607f821691505b602082108103610a4057610a3f6109e9565b5b5091905056fea26469706673582212205809d8901b905f7843d6ee6dec3925b5d70dbe947e7802833b006167f03a9d0e64736f6c63430008160033",
					"opcodes": "PUSH1 0x80 PUSH1 0x40 MSTORE PUSH1 0x40 MLOAD DUP1 PUSH1 0xC0 ADD PUSH1 0x40 MSTORE DUP1 PUSH1 0x1 PUSH1 0xFF AND DUP2 MSTORE PUSH1 0x20 ADD PUSH1 0x17 PUSH1 0xFF AND DUP2 MSTORE PUSH1 0x20 ADD PUSH1 0x4 PUSH1 0xFF AND DUP2 MSTORE PUSH1 0x20 ADD PUSH1 0x2 PUSH1 0xFF AND DUP2 MSTORE PUSH1 0x20 ADD PUSH1 0x5 PUSH1 0xFF AND DUP2 MSTORE PUSH1 0x20 ADD PUSH1 0x4 PUSH1 0xFF AND DUP2 MSTORE POP PUSH1 0x4 SWAP1 PUSH1 0x6 PUSH3 0x5B SWAP3 SWAP2 SWAP1 PUSH3 0x13C JUMP JUMPDEST POP PUSH1 0x40 MLOAD DUP1 PUSH1 0x60 ADD PUSH1 0x40 MSTORE DUP1 PUSH1 0x40 MLOAD DUP1 PUSH1 0x40 ADD PUSH1 0x40 MSTORE DUP1 PUSH1 0x3 DUP2 MSTORE PUSH1 0x20 ADD PUSH32 0x6173300000000000000000000000000000000000000000000000000000000000 DUP2 MSTORE POP DUP2 MSTORE PUSH1 0x20 ADD PUSH1 0x40 MLOAD DUP1 PUSH1 0x40 ADD PUSH1 0x40 MSTORE DUP1 PUSH1 0x2 DUP2 MSTORE PUSH1 0x20 ADD PUSH32 0x7366000000000000000000000000000000000000000000000000000000000000 DUP2 MSTORE POP DUP2 MSTORE PUSH1 0x20 ADD PUSH1 0x40 MLOAD DUP1 PUSH1 0x40 ADD PUSH1 0x40 MSTORE DUP1 PUSH1 0x6 DUP2 MSTORE PUSH1 0x20 ADD PUSH32 0x7366737364660000000000000000000000000000000000000000000000000000 DUP2 MSTORE POP DUP2 MSTORE POP PUSH1 0xB SWAP1 PUSH1 0x3 PUSH3 0x128 SWAP3 SWAP2 SWAP1 PUSH3 0x186 JUMP JUMPDEST POP CALLVALUE DUP1 ISZERO PUSH3 0x135 JUMPI PUSH0 DUP1 REVERT JUMPDEST POP PUSH3 0x5A8 JUMP JUMPDEST DUP3 PUSH1 0x7 DUP2 ADD SWAP3 DUP3 ISZERO PUSH3 0x173 JUMPI SWAP2 PUSH1 0x20 MUL DUP3 ADD JUMPDEST DUP3 DUP2 GT ISZERO PUSH3 0x172 JUMPI DUP3 MLOAD DUP3 SWAP1 PUSH1 0xFF AND SWAP1 SSTORE SWAP2 PUSH1 0x20 ADD SWAP2 SWAP1 PUSH1 0x1 ADD SWAP1 PUSH3 0x150 JUMP JUMPDEST JUMPDEST POP SWAP1 POP PUSH3 0x182 SWAP2 SWAP1 PUSH3 0x1D9 JUMP JUMPDEST POP SWAP1 JUMP JUMPDEST DUP3 PUSH1 0x3 DUP2 ADD SWAP3 DUP3 ISZERO PUSH3 0x1C6 JUMPI SWAP2 PUSH1 0x20 MUL DUP3 ADD JUMPDEST DUP3 DUP2 GT ISZERO PUSH3 0x1C5 JUMPI DUP3 MLOAD DUP3 SWAP1 DUP2 PUSH3 0x1B4 SWAP2 SWAP1 PUSH3 0x4C4 JUMP JUMPDEST POP SWAP2 PUSH1 0x20 ADD SWAP2 SWAP1 PUSH1 0x1 ADD SWAP1 PUSH3 0x19A JUMP JUMPDEST JUMPDEST POP SWAP1 POP PUSH3 0x1D5 SWAP2 SWAP1 PUSH3 0x1F6 JUMP JUMPDEST POP SWAP1 JUMP JUMPDEST JUMPDEST DUP1 DUP3 GT ISZERO PUSH3 0x1F2 JUMPI PUSH0 DUP2 PUSH0 SWAP1 SSTORE POP PUSH1 0x1 ADD PUSH3 0x1DA JUMP JUMPDEST POP SWAP1 JUMP JUMPDEST JUMPDEST DUP1 DUP3 GT ISZERO PUSH3 0x219 JUMPI PUSH0 DUP2 DUP2 PUSH3 0x20F SWAP2 SWAP1 PUSH3 0x21D JUMP JUMPDEST POP PUSH1 0x1 ADD PUSH3 0x1F7 JUMP JUMPDEST POP SWAP1 JUMP JUMPDEST POP DUP1 SLOAD PUSH3 0x22B SWAP1 PUSH3 0x2C4 JUMP JUMPDEST PUSH0 DUP3 SSTORE DUP1 PUSH1 0x1F LT PUSH3 0x23E JUMPI POP PUSH3 0x25D JUMP JUMPDEST PUSH1 0x1F ADD PUSH1 0x20 SWAP1 DIV SWAP1 PUSH0 MSTORE PUSH1 0x20 PUSH0 KECCAK256 SWAP1 DUP2 ADD SWAP1 PUSH3 0x25C SWAP2 SWAP1 PUSH3 0x1D9 JUMP JUMPDEST JUMPDEST POP JUMP JUMPDEST PUSH0 DUP2 MLOAD SWAP1 POP SWAP2 SWAP1 POP JUMP JUMPDEST PUSH32 0x4E487B7100000000000000000000000000000000000000000000000000000000 PUSH0 MSTORE PUSH1 0x41 PUSH1 0x4 MSTORE PUSH1 0x24 PUSH0 REVERT JUMPDEST PUSH32 0x4E487B7100000000000000000000000000000000000000000000000000000000 PUSH0 MSTORE PUSH1 0x22 PUSH1 0x4 MSTORE PUSH1 0x24 PUSH0 REVERT JUMPDEST PUSH0 PUSH1 0x2 DUP3 DIV SWAP1 POP PUSH1 0x1 DUP3 AND DUP1 PUSH3 0x2DC JUMPI PUSH1 0x7F DUP3 AND SWAP2 POP JUMPDEST PUSH1 0x20 DUP3 LT DUP2 SUB PUSH3 0x2F2 JUMPI PUSH3 0x2F1 PUSH3 0x297 JUMP JUMPDEST JUMPDEST POP SWAP2 SWAP1 POP JUMP JUMPDEST PUSH0 DUP2 SWAP1 POP DUP2 PUSH0 MSTORE PUSH1 0x20 PUSH0 KECCAK256 SWAP1 POP SWAP2 SWAP1 POP JUMP JUMPDEST PUSH0 PUSH1 0x20 PUSH1 0x1F DUP4 ADD DIV SWAP1 POP SWAP2 SWAP1 POP JUMP JUMPDEST PUSH0 DUP3 DUP3 SHL SWAP1 POP SWAP3 SWAP2 POP POP JUMP JUMPDEST PUSH0 PUSH1 0x8 DUP4 MUL PUSH3 0x356 PUSH32 0xFFFFFFFFFFFFFFFFFFFFFFFFFFFFFFFFFFFFFFFFFFFFFFFFFFFFFFFFFFFFFFFF DUP3 PUSH3 0x319 JUMP JUMPDEST PUSH3 0x362 DUP7 DUP4 PUSH3 0x319 JUMP JUMPDEST SWAP6 POP DUP1 NOT DUP5 AND SWAP4 POP DUP1 DUP7 AND DUP5 OR SWAP3 POP POP POP SWAP4 SWAP3 POP POP POP JUMP JUMPDEST PUSH0 DUP2 SWAP1 POP SWAP2 SWAP1 POP JUMP JUMPDEST PUSH0 DUP2 SWAP1 POP SWAP2 SWAP1 POP JUMP JUMPDEST PUSH0 PUSH3 0x3AC PUSH3 0x3A6 PUSH3 0x3A0 DUP5 PUSH3 0x37A JUMP JUMPDEST PUSH3 0x383 JUMP JUMPDEST PUSH3 0x37A JUMP JUMPDEST SWAP1 POP SWAP2 SWAP1 POP JUMP JUMPDEST PUSH0 DUP2 SWAP1 POP SWAP2 SWAP1 POP JUMP JUMPDEST PUSH3 0x3C7 DUP4 PUSH3 0x38C JUMP JUMPDEST PUSH3 0x3DF PUSH3 0x3D6 DUP3 PUSH3 0x3B3 JUMP JUMPDEST DUP5 DUP5 SLOAD PUSH3 0x325 JUMP JUMPDEST DUP3 SSTORE POP POP POP POP JUMP JUMPDEST PUSH0 SWAP1 JUMP JUMPDEST PUSH3 0x3F5 PUSH3 0x3E7 JUMP JUMPDEST PUSH3 0x402 DUP2 DUP5 DUP5 PUSH3 0x3BC JUMP JUMPDEST POP POP POP JUMP JUMPDEST JUMPDEST DUP2 DUP2 LT ISZERO PUSH3 0x429 JUMPI PUSH3 0x41D PUSH0 DUP3 PUSH3 0x3EB JUMP JUMPDEST PUSH1 0x1 DUP2 ADD SWAP1 POP PUSH3 0x408 JUMP JUMPDEST POP POP JUMP JUMPDEST PUSH1 0x1F DUP3 GT ISZERO PUSH3 0x478 JUMPI PUSH3 0x442 DUP2 PUSH3 0x2F8 JUMP JUMPDEST PUSH3 0x44D DUP5 PUSH3 0x30A JUMP JUMPDEST DUP2 ADD PUSH1 0x20 DUP6 LT ISZERO PUSH3 0x45D JUMPI DUP2 SWAP1 POP JUMPDEST PUSH3 0x475 PUSH3 0x46C DUP6 PUSH3 0x30A JUMP JUMPDEST DUP4 ADD DUP3 PUSH3 0x407 JUMP JUMPDEST POP POP JUMPDEST POP POP POP JUMP JUMPDEST PUSH0 DUP3 DUP3 SHR SWAP1 POP SWAP3 SWAP2 POP POP JUMP JUMPDEST PUSH0 PUSH3 0x49A PUSH0 NOT DUP5 PUSH1 0x8 MUL PUSH3 0x47D JUMP JUMPDEST NOT DUP1 DUP4 AND SWAP2 POP POP SWAP3 SWAP2 POP POP JUMP JUMPDEST PUSH0 PUSH3 0x4B4 DUP4 DUP4 PUSH3 0x489 JUMP JUMPDEST SWAP2 POP DUP3 PUSH1 0x2 MUL DUP3 OR SWAP1 POP SWAP3 SWAP2 POP POP JUMP JUMPDEST PUSH3 0x4CF DUP3 PUSH3 0x260 JUMP JUMPDEST PUSH8 0xFFFFFFFFFFFFFFFF DUP2 GT ISZERO PUSH3 0x4EB JUMPI PUSH3 0x4EA PUSH3 0x26A JUMP JUMPDEST JUMPDEST PUSH3 0x4F7 DUP3 SLOAD PUSH3 0x2C4 JUMP JUMPDEST PUSH3 0x504 DUP3 DUP3 DUP6 PUSH3 0x42D JUMP JUMPDEST PUSH0 PUSH1 0x20 SWAP1 POP PUSH1 0x1F DUP4 GT PUSH1 0x1 DUP2 EQ PUSH3 0x53A JUMPI PUSH0 DUP5 ISZERO PUSH3 0x525 JUMPI DUP3 DUP8 ADD MLOAD SWAP1 POP JUMPDEST PUSH3 0x531 DUP6 DUP3 PUSH3 0x4A7 JUMP JUMPDEST DUP7 SSTORE POP PUSH3 0x5A0 JUMP JUMPDEST PUSH1 0x1F NOT DUP5 AND PUSH3 0x54A DUP7 PUSH3 0x2F8 JUMP JUMPDEST PUSH0 JUMPDEST DUP3 DUP2 LT ISZERO PUSH3 0x573 JUMPI DUP5 DUP10 ADD MLOAD DUP3 SSTORE PUSH1 0x1 DUP3 ADD SWAP2 POP PUSH1 0x20 DUP6 ADD SWAP5 POP PUSH1 0x20 DUP2 ADD SWAP1 POP PUSH3 0x54C JUMP JUMPDEST DUP7 DUP4 LT ISZERO PUSH3 0x593 JUMPI DUP5 DUP10 ADD MLOAD PUSH3 0x58F PUSH1 0x1F DUP10 AND DUP3 PUSH3 0x489 JUMP JUMPDEST DUP4 SSTORE POP JUMPDEST PUSH1 0x1 PUSH1 0x2 DUP9 MUL ADD DUP9 SSTORE POP POP POP JUMPDEST POP POP POP POP POP POP JUMP JUMPDEST PUSH2 0xA7C DUP1 PUSH3 0x5B6 PUSH0 CODECOPY PUSH0 RETURN INVALID PUSH1 0x80 PUSH1 0x40 MSTORE CALLVALUE DUP1 ISZERO PUSH2 0xF JUMPI PUSH0 DUP1 REVERT JUMPDEST POP PUSH1 0x4 CALLDATASIZE LT PUSH2 0x86 JUMPI PUSH0 CALLDATALOAD PUSH1 0xE0 SHR DUP1 PUSH4 0x737E3C57 GT PUSH2 0x59 JUMPI DUP1 PUSH4 0x737E3C57 EQ PUSH2 0x126 JUMPI DUP1 PUSH4 0x8321045C EQ PUSH2 0x156 JUMPI DUP1 PUSH4 0xD2178B08 EQ PUSH2 0x174 JUMPI DUP1 PUSH4 0xEDF0099B EQ PUSH2 0x192 JUMPI PUSH2 0x86 JUMP JUMPDEST DUP1 PUSH4 0x54C1A75 EQ PUSH2 0x8A JUMPI DUP1 PUSH4 0x6D4CE63C EQ PUSH2 0xA8 JUMPI DUP1 PUSH4 0x71E5EE5F EQ PUSH2 0xC6 JUMPI DUP1 PUSH4 0x72511838 EQ PUSH2 0xF6 JUMPI JUMPDEST PUSH0 DUP1 REVERT JUMPDEST PUSH2 0x92 PUSH2 0x1C2 JUMP JUMPDEST PUSH1 0x40 MLOAD PUSH2 0x9F SWAP2 SWAP1 PUSH2 0x5E0 JUMP JUMPDEST PUSH1 0x40 MLOAD DUP1 SWAP2 SUB SWAP1 RETURN JUMPDEST PUSH2 0xB0 PUSH2 0x20D JUMP JUMPDEST PUSH1 0x40 MLOAD PUSH2 0xBD SWAP2 SWAP1 PUSH2 0x678 JUMP JUMPDEST PUSH1 0x40 MLOAD DUP1 SWAP2 SUB SWAP1 RETURN JUMPDEST PUSH2 0xE0 PUSH1 0x4 DUP1 CALLDATASIZE SUB DUP2 ADD SWAP1 PUSH2 0xDB SWAP2 SWAP1 PUSH2 0x6BF JUMP JUMPDEST PUSH2 0x257 JUMP JUMPDEST PUSH1 0x40 MLOAD PUSH2 0xED SWAP2 SWAP1 PUSH2 0x6F9 JUMP JUMPDEST PUSH1 0x40 MLOAD DUP1 SWAP2 SUB SWAP1 RETURN JUMPDEST PUSH2 0x110 PUSH1 0x4 DUP1 CALLDATASIZE SUB DUP2 ADD SWAP1 PUSH2 0x10B SWAP2 SWAP1 PUSH2 0x6BF JUMP JUMPDEST PUSH2 0x26F JUMP JUMPDEST PUSH1 0x40 MLOAD PUSH2 0x11D SWAP2 SWAP1 PUSH2 0x79C JUMP JUMPDEST PUSH1 0x40 MLOAD DUP1 SWAP2 SUB SWAP1 RETURN JUMPDEST PUSH2 0x140 PUSH1 0x4 DUP1 CALLDATASIZE SUB DUP2 ADD SWAP1 PUSH2 0x13B SWAP2 SWAP1 PUSH2 0x6BF JUMP JUMPDEST PUSH2 0x30E JUMP JUMPDEST PUSH1 0x40 MLOAD PUSH2 0x14D SWAP2 SWAP1 PUSH2 0x7FB JUMP JUMPDEST PUSH1 0x40 MLOAD DUP1 SWAP2 SUB SWAP1 RETURN JUMPDEST PUSH2 0x15E PUSH2 0x342 JUMP JUMPDEST PUSH1 0x40 MLOAD PUSH2 0x16B SWAP2 SWAP1 PUSH2 0x8B9 JUMP JUMPDEST PUSH1 0x40 MLOAD DUP1 SWAP2 SUB SWAP1 RETURN JUMPDEST PUSH2 0x17C PUSH2 0x3C2 JUMP JUMPDEST PUSH1 0x40 MLOAD PUSH2 0x189 SWAP2 SWAP1 PUSH2 0x9C9 JUMP JUMPDEST PUSH1 0x40 MLOAD DUP1 SWAP2 SUB SWAP1 RETURN JUMPDEST PUSH2 0x1AC PUSH1 0x4 DUP1 CALLDATASIZE SUB DUP2 ADD SWAP1 PUSH2 0x1A7 SWAP2 SWAP1 PUSH2 0x6BF JUMP JUMPDEST PUSH2 0x48C JUMP JUMPDEST PUSH1 0x40 MLOAD PUSH2 0x1B9 SWAP2 SWAP1 PUSH2 0x6F9 JUMP JUMPDEST PUSH1 0x40 MLOAD DUP1 SWAP2 SUB SWAP1 RETURN JUMPDEST PUSH2 0x1CA PUSH2 0x4A5 JUMP JUMPDEST PUSH1 0x4 PUSH1 0x7 DUP1 PUSH1 0x20 MUL PUSH1 0x40 MLOAD SWAP1 DUP2 ADD PUSH1 0x40 MSTORE DUP1 SWAP3 SWAP2 SWAP1 DUP3 PUSH1 0x7 DUP1 ISZERO PUSH2 0x203 JUMPI PUSH1 0x20 MUL DUP3 ADD SWAP2 JUMPDEST DUP2 SLOAD DUP2 MSTORE PUSH1 0x20 ADD SWAP1 PUSH1 0x1 ADD SWAP1 DUP1 DUP4 GT PUSH2 0x1EF JUMPI JUMPDEST POP POP POP POP POP SWAP1 POP SWAP1 JUMP JUMPDEST PUSH2 0x215 PUSH2 0x4C7 JUMP JUMPDEST PUSH0 PUSH1 0x4 DUP1 PUSH1 0x20 MUL PUSH1 0x40 MLOAD SWAP1 DUP2 ADD PUSH1 0x40 MSTORE DUP1 SWAP3 SWAP2 SWAP1 DUP3 PUSH1 0x4 DUP1 ISZERO PUSH2 0x24D JUMPI PUSH1 0x20 MUL DUP3 ADD SWAP2 JUMPDEST DUP2 SLOAD DUP2 MSTORE PUSH1 0x20 ADD SWAP1 PUSH1 0x1 ADD SWAP1 DUP1 DUP4 GT PUSH2 0x239 JUMPI JUMPDEST POP POP POP POP POP SWAP1 POP SWAP1 JUMP JUMPDEST PUSH0 DUP2 PUSH1 0x4 DUP2 LT PUSH2 0x265 JUMPI PUSH0 DUP1 REVERT JUMPDEST ADD PUSH0 SWAP2 POP SWAP1 POP SLOAD DUP2 JUMP JUMPDEST PUSH1 0xB DUP2 PUSH1 0x3 DUP2 LT PUSH2 0x27E JUMPI PUSH0 DUP1 REVERT JUMPDEST ADD PUSH0 SWAP2 POP SWAP1 POP DUP1 SLOAD PUSH2 0x28F SWAP1 PUSH2 0xA16 JUMP JUMPDEST DUP1 PUSH1 0x1F ADD PUSH1 0x20 DUP1 SWAP2 DIV MUL PUSH1 0x20 ADD PUSH1 0x40 MLOAD SWAP1 DUP2 ADD PUSH1 0x40 MSTORE DUP1 SWAP3 SWAP2 SWAP1 DUP2 DUP2 MSTORE PUSH1 0x20 ADD DUP3 DUP1 SLOAD PUSH2 0x2BB SWAP1 PUSH2 0xA16 JUMP JUMPDEST DUP1 ISZERO PUSH2 0x306 JUMPI DUP1 PUSH1 0x1F LT PUSH2 0x2DD JUMPI PUSH2 0x100 DUP1 DUP4 SLOAD DIV MUL DUP4 MSTORE SWAP2 PUSH1 0x20 ADD SWAP2 PUSH2 0x306 JUMP JUMPDEST DUP3 ADD SWAP2 SWAP1 PUSH0 MSTORE PUSH1 0x20 PUSH0 KECCAK256 SWAP1 JUMPDEST DUP2 SLOAD DUP2 MSTORE SWAP1 PUSH1 0x1 ADD SWAP1 PUSH1 0x20 ADD DUP1 DUP4 GT PUSH2 0x2E9 JUMPI DUP3 SWAP1 SUB PUSH1 0x1F AND DUP3 ADD SWAP2 JUMPDEST POP POP POP POP POP DUP2 JUMP JUMPDEST PUSH1 0xE DUP2 PUSH1 0x4 DUP2 LT PUSH2 0x31D JUMPI PUSH0 DUP1 REVERT JUMPDEST ADD PUSH0 SWAP2 POP SLOAD SWAP1 PUSH2 0x100 EXP SWAP1 DIV PUSH20 0xFFFFFFFFFFFFFFFFFFFFFFFFFFFFFFFFFFFFFFFF AND DUP2 JUMP JUMPDEST PUSH2 0x34A PUSH2 0x4E9 JUMP JUMPDEST PUSH1 0xE PUSH1 0x4 DUP1 PUSH1 0x20 MUL PUSH1 0x40 MLOAD SWAP1 DUP2 ADD PUSH1 0x40 MSTORE DUP1 SWAP3 SWAP2 SWAP1 DUP3 PUSH1 0x4 DUP1 ISZERO PUSH2 0x3B8 JUMPI PUSH1 0x20 MUL DUP3 ADD SWAP2 JUMPDEST DUP2 PUSH0 SWAP1 SLOAD SWAP1 PUSH2 0x100 EXP SWAP1 DIV PUSH20 0xFFFFFFFFFFFFFFFFFFFFFFFFFFFFFFFFFFFFFFFF AND PUSH20 0xFFFFFFFFFFFFFFFFFFFFFFFFFFFFFFFFFFFFFFFF AND DUP2 MSTORE PUSH1 0x20 ADD SWAP1 PUSH1 0x1 ADD SWAP1 DUP1 DUP4 GT PUSH2 0x36F JUMPI JUMPDEST POP POP POP POP POP SWAP1 POP SWAP1 JUMP JUMPDEST PUSH2 0x3CA PUSH2 0x50B JUMP JUMPDEST PUSH1 0xB PUSH1 0x3 DUP1 PUSH1 0x20 MUL PUSH1 0x40 MLOAD SWAP1 DUP2 ADD PUSH1 0x40 MSTORE DUP1 SWAP3 SWAP2 SWAP1 PUSH0 SWAP1 JUMPDEST DUP3 DUP3 LT ISZERO PUSH2 0x483 JUMPI DUP4 DUP3 ADD DUP1 SLOAD PUSH2 0x3F8 SWAP1 PUSH2 0xA16 JUMP JUMPDEST DUP1 PUSH1 0x1F ADD PUSH1 0x20 DUP1 SWAP2 DIV MUL PUSH1 0x20 ADD PUSH1 0x40 MLOAD SWAP1 DUP2 ADD PUSH1 0x40 MSTORE DUP1 SWAP3 SWAP2 SWAP1 DUP2 DUP2 MSTORE PUSH1 0x20 ADD DUP3 DUP1 SLOAD PUSH2 0x424 SWAP1 PUSH2 0xA16 JUMP JUMPDEST DUP1 ISZERO PUSH2 0x46F JUMPI DUP1 PUSH1 0x1F LT PUSH2 0x446 JUMPI PUSH2 0x100 DUP1 DUP4 SLOAD DIV MUL DUP4 MSTORE SWAP2 PUSH1 0x20 ADD SWAP2 PUSH2 0x46F JUMP JUMPDEST DUP3 ADD SWAP2 SWAP1 PUSH0 MSTORE PUSH1 0x20 PUSH0 KECCAK256 SWAP1 JUMPDEST DUP2 SLOAD DUP2 MSTORE SWAP1 PUSH1 0x1 ADD SWAP1 PUSH1 0x20 ADD DUP1 DUP4 GT PUSH2 0x452 JUMPI DUP3 SWAP1 SUB PUSH1 0x1F AND DUP3 ADD SWAP2 JUMPDEST POP POP POP POP POP DUP2 MSTORE PUSH1 0x20 ADD SWAP1 PUSH1 0x1 ADD SWAP1 PUSH2 0x3E2 JUMP JUMPDEST POP POP POP POP SWAP1 POP SWAP1 JUMP JUMPDEST PUSH1 0x4 DUP2 PUSH1 0x7 DUP2 LT PUSH2 0x49B JUMPI PUSH0 DUP1 REVERT JUMPDEST ADD PUSH0 SWAP2 POP SWAP1 POP SLOAD DUP2 JUMP JUMPDEST PUSH1 0x40 MLOAD DUP1 PUSH1 0xE0 ADD PUSH1 0x40 MSTORE DUP1 PUSH1 0x7 SWAP1 PUSH1 0x20 DUP3 MUL DUP1 CALLDATASIZE DUP4 CALLDATACOPY DUP1 DUP3 ADD SWAP2 POP POP SWAP1 POP POP SWAP1 JUMP JUMPDEST PUSH1 0x40 MLOAD DUP1 PUSH1 0x80 ADD PUSH1 0x40 MSTORE DUP1 PUSH1 0x4 SWAP1 PUSH1 0x20 DUP3 MUL DUP1 CALLDATASIZE DUP4 CALLDATACOPY DUP1 DUP3 ADD SWAP2 POP POP SWAP1 POP POP SWAP1 JUMP JUMPDEST PUSH1 0x40 MLOAD DUP1 PUSH1 0x80 ADD PUSH1 0x40 MSTORE DUP1 PUSH1 0x4 SWAP1 PUSH1 0x20 DUP3 MUL DUP1 CALLDATASIZE DUP4 CALLDATACOPY DUP1 DUP3 ADD SWAP2 POP POP SWAP1 POP POP SWAP1 JUMP JUMPDEST PUSH1 0x40 MLOAD DUP1 PUSH1 0x60 ADD PUSH1 0x40 MSTORE DUP1 PUSH1 0x3 SWAP1 JUMPDEST PUSH1 0x60 DUP2 MSTORE PUSH1 0x20 ADD SWAP1 PUSH1 0x1 SWAP1 SUB SWAP1 DUP2 PUSH2 0x51A JUMPI SWAP1 POP POP SWAP1 JUMP JUMPDEST PUSH0 PUSH1 0x7 SWAP1 POP SWAP2 SWAP1 POP JUMP JUMPDEST PUSH0 DUP2 SWAP1 POP SWAP3 SWAP2 POP POP JUMP JUMPDEST PUSH0 DUP2 SWAP1 POP SWAP2 SWAP1 POP JUMP JUMPDEST PUSH0 DUP2 SWAP1 POP SWAP2 SWAP1 POP JUMP JUMPDEST PUSH2 0x561 DUP2 PUSH2 0x54F JUMP JUMPDEST DUP3 MSTORE POP POP JUMP JUMPDEST PUSH0 PUSH2 0x572 DUP4 DUP4 PUSH2 0x558 JUMP JUMPDEST PUSH1 0x20 DUP4 ADD SWAP1 POP SWAP3 SWAP2 POP POP JUMP JUMPDEST PUSH0 PUSH1 0x20 DUP3 ADD SWAP1 POP SWAP2 SWAP1 POP JUMP JUMPDEST PUSH2 0x593 DUP2 PUSH2 0x532 JUMP JUMPDEST PUSH2 0x59D DUP2 DUP5 PUSH2 0x53C JUMP JUMPDEST SWAP3 POP PUSH2 0x5A8 DUP3 PUSH2 0x546 JUMP JUMPDEST DUP1 PUSH0 JUMPDEST DUP4 DUP2 LT ISZERO PUSH2 0x5D8 JUMPI DUP2 MLOAD PUSH2 0x5BF DUP8 DUP3 PUSH2 0x567 JUMP JUMPDEST SWAP7 POP PUSH2 0x5CA DUP4 PUSH2 0x57E JUMP JUMPDEST SWAP3 POP POP PUSH1 0x1 DUP2 ADD SWAP1 POP PUSH2 0x5AB JUMP JUMPDEST POP POP POP POP POP POP JUMP JUMPDEST PUSH0 PUSH1 0xE0 DUP3 ADD SWAP1 POP PUSH2 0x5F3 PUSH0 DUP4 ADD DUP5 PUSH2 0x58A JUMP JUMPDEST SWAP3 SWAP2 POP POP JUMP JUMPDEST PUSH0 PUSH1 0x4 SWAP1 POP SWAP2 SWAP1 POP JUMP JUMPDEST PUSH0 DUP2 SWAP1 POP SWAP3 SWAP2 POP POP JUMP JUMPDEST PUSH0 DUP2 SWAP1 POP SWAP2 SWAP1 POP JUMP JUMPDEST PUSH0 PUSH1 0x20 DUP3 ADD SWAP1 POP SWAP2 SWAP1 POP JUMP JUMPDEST PUSH2 0x62B DUP2 PUSH2 0x5F9 JUMP JUMPDEST PUSH2 0x635 DUP2 DUP5 PUSH2 0x603 JUMP JUMPDEST SWAP3 POP PUSH2 0x640 DUP3 PUSH2 0x60D JUMP JUMPDEST DUP1 PUSH0 JUMPDEST DUP4 DUP2 LT ISZERO PUSH2 0x670 JUMPI DUP2 MLOAD PUSH2 0x657 DUP8 DUP3 PUSH2 0x567 JUMP JUMPDEST SWAP7 POP PUSH2 0x662 DUP4 PUSH2 0x616 JUMP JUMPDEST SWAP3 POP POP PUSH1 0x1 DUP2 ADD SWAP1 POP PUSH2 0x643 JUMP JUMPDEST POP POP POP POP POP POP JUMP JUMPDEST PUSH0 PUSH1 0x80 DUP3 ADD SWAP1 POP PUSH2 0x68B PUSH0 DUP4 ADD DUP5 PUSH2 0x622 JUMP JUMPDEST SWAP3 SWAP2 POP POP JUMP JUMPDEST PUSH0 DUP1 REVERT JUMPDEST PUSH2 0x69E DUP2 PUSH2 0x54F JUMP JUMPDEST DUP2 EQ PUSH2 0x6A8 JUMPI PUSH0 DUP1 REVERT JUMPDEST POP JUMP JUMPDEST PUSH0 DUP2 CALLDATALOAD SWAP1 POP PUSH2 0x6B9 DUP2 PUSH2 0x695 JUMP JUMPDEST SWAP3 SWAP2 POP POP JUMP JUMPDEST PUSH0 PUSH1 0x20 DUP3 DUP5 SUB SLT ISZERO PUSH2 0x6D4 JUMPI PUSH2 0x6D3 PUSH2 0x691 JUMP JUMPDEST JUMPDEST PUSH0 PUSH2 0x6E1 DUP5 DUP3 DUP6 ADD PUSH2 0x6AB JUMP JUMPDEST SWAP2 POP POP SWAP3 SWAP2 POP POP JUMP JUMPDEST PUSH2 0x6F3 DUP2 PUSH2 0x54F JUMP JUMPDEST DUP3 MSTORE POP POP JUMP JUMPDEST PUSH0 PUSH1 0x20 DUP3 ADD SWAP1 POP PUSH2 0x70C PUSH0 DUP4 ADD DUP5 PUSH2 0x6EA JUMP JUMPDEST SWAP3 SWAP2 POP POP JUMP JUMPDEST PUSH0 DUP2 MLOAD SWAP1 POP SWAP2 SWAP1 POP JUMP JUMPDEST PUSH0 DUP3 DUP3 MSTORE PUSH1 0x20 DUP3 ADD SWAP1 POP SWAP3 SWAP2 POP POP JUMP JUMPDEST PUSH0 JUMPDEST DUP4 DUP2 LT ISZERO PUSH2 0x749 JUMPI DUP1 DUP3 ADD MLOAD DUP2 DUP5 ADD MSTORE PUSH1 0x20 DUP2 ADD SWAP1 POP PUSH2 0x72E JUMP JUMPDEST PUSH0 DUP5 DUP5 ADD MSTORE POP POP POP POP JUMP JUMPDEST PUSH0 PUSH1 0x1F NOT PUSH1 0x1F DUP4 ADD AND SWAP1 POP SWAP2 SWAP1 POP JUMP JUMPDEST PUSH0 PUSH2 0x76E DUP3 PUSH2 0x712 JUMP JUMPDEST PUSH2 0x778 DUP2 DUP6 PUSH2 0x71C JUMP JUMPDEST SWAP4 POP PUSH2 0x788 DUP2 DUP6 PUSH1 0x20 DUP7 ADD PUSH2 0x72C JUMP JUMPDEST PUSH2 0x791 DUP2 PUSH2 0x754 JUMP JUMPDEST DUP5 ADD SWAP2 POP POP SWAP3 SWAP2 POP POP JUMP JUMPDEST PUSH0 PUSH1 0x20 DUP3 ADD SWAP1 POP DUP2 DUP2 SUB PUSH0 DUP4 ADD MSTORE PUSH2 0x7B4 DUP2 DUP5 PUSH2 0x764 JUMP JUMPDEST SWAP1 POP SWAP3 SWAP2 POP POP JUMP JUMPDEST PUSH0 PUSH20 0xFFFFFFFFFFFFFFFFFFFFFFFFFFFFFFFFFFFFFFFF DUP3 AND SWAP1 POP SWAP2 SWAP1 POP JUMP JUMPDEST PUSH0 PUSH2 0x7E5 DUP3 PUSH2 0x7BC JUMP JUMPDEST SWAP1 POP SWAP2 SWAP1 POP JUMP JUMPDEST PUSH2 0x7F5 DUP2 PUSH2 0x7DB JUMP JUMPDEST DUP3 MSTORE POP POP JUMP JUMPDEST PUSH0 PUSH1 0x20 DUP3 ADD SWAP1 POP PUSH2 0x80E PUSH0 DUP4 ADD DUP5 PUSH2 0x7EC JUMP JUMPDEST SWAP3 SWAP2 POP POP JUMP JUMPDEST PUSH0 PUSH1 0x4 SWAP1 POP SWAP2 SWAP1 POP JUMP JUMPDEST PUSH0 DUP2 SWAP1 POP SWAP3 SWAP2 POP POP JUMP JUMPDEST PUSH0 DUP2 SWAP1 POP SWAP2 SWAP1 POP JUMP JUMPDEST PUSH2 0x83A DUP2 PUSH2 0x7DB JUMP JUMPDEST DUP3 MSTORE POP POP JUMP JUMPDEST PUSH0 PUSH2 0x84B DUP4 DUP4 PUSH2 0x831 JUMP JUMPDEST PUSH1 0x20 DUP4 ADD SWAP1 POP SWAP3 SWAP2 POP POP JUMP JUMPDEST PUSH0 PUSH1 0x20 DUP3 ADD SWAP1 POP SWAP2 SWAP1 POP JUMP JUMPDEST PUSH2 0x86C DUP2 PUSH2 0x814 JUMP JUMPDEST PUSH2 0x876 DUP2 DUP5 PUSH2 0x81E JUMP JUMPDEST SWAP3 POP PUSH2 0x881 DUP3 PUSH2 0x828 JUMP JUMPDEST DUP1 PUSH0 JUMPDEST DUP4 DUP2 LT ISZERO PUSH2 0x8B1 JUMPI DUP2 MLOAD PUSH2 0x898 DUP8 DUP3 PUSH2 0x840 JUMP JUMPDEST SWAP7 POP PUSH2 0x8A3 DUP4 PUSH2 0x857 JUMP JUMPDEST SWAP3 POP POP PUSH1 0x1 DUP2 ADD SWAP1 POP PUSH2 0x884 JUMP JUMPDEST POP POP POP POP POP POP JUMP JUMPDEST PUSH0 PUSH1 0x80 DUP3 ADD SWAP1 POP PUSH2 0x8CC PUSH0 DUP4 ADD DUP5 PUSH2 0x863 JUMP JUMPDEST SWAP3 SWAP2 POP POP JUMP JUMPDEST PUSH0 PUSH1 0x3 SWAP1 POP SWAP2 SWAP1 POP JUMP JUMPDEST PUSH0 DUP2 SWAP1 POP SWAP3 SWAP2 POP POP JUMP JUMPDEST PUSH0 DUP2 SWAP1 POP SWAP2 SWAP1 POP JUMP JUMPDEST PUSH0 DUP3 DUP3 MSTORE PUSH1 0x20 DUP3 ADD SWAP1 POP SWAP3 SWAP2 POP POP JUMP JUMPDEST PUSH0 PUSH2 0x909 DUP3 PUSH2 0x712 JUMP JUMPDEST PUSH2 0x913 DUP2 DUP6 PUSH2 0x8EF JUMP JUMPDEST SWAP4 POP PUSH2 0x923 DUP2 DUP6 PUSH1 0x20 DUP7 ADD PUSH2 0x72C JUMP JUMPDEST PUSH2 0x92C DUP2 PUSH2 0x754 JUMP JUMPDEST DUP5 ADD SWAP2 POP POP SWAP3 SWAP2 POP POP JUMP JUMPDEST PUSH0 PUSH2 0x942 DUP4 DUP4 PUSH2 0x8FF JUMP JUMPDEST SWAP1 POP SWAP3 SWAP2 POP POP JUMP JUMPDEST PUSH0 PUSH1 0x20 DUP3 ADD SWAP1 POP SWAP2 SWAP1 POP JUMP JUMPDEST PUSH0 PUSH2 0x960 DUP3 PUSH2 0x8D2 JUMP JUMPDEST PUSH2 0x96A DUP2 DUP6 PUSH2 0x8DC JUMP JUMPDEST SWAP4 POP DUP4 PUSH1 0x20 DUP3 MUL DUP6 ADD PUSH2 0x97C DUP6 PUSH2 0x8E6 JUMP JUMPDEST DUP1 PUSH0 JUMPDEST DUP6 DUP2 LT ISZERO PUSH2 0x9B7 JUMPI DUP5 DUP5 SUB DUP10 MSTORE DUP2 MLOAD PUSH2 0x998 DUP6 DUP3 PUSH2 0x937 JUMP JUMPDEST SWAP5 POP PUSH2 0x9A3 DUP4 PUSH2 0x94A JUMP JUMPDEST SWAP3 POP PUSH1 0x20 DUP11 ADD SWAP10 POP POP PUSH1 0x1 DUP2 ADD SWAP1 POP PUSH2 0x97F JUMP JUMPDEST POP DUP3 SWAP8 POP DUP8 SWAP6 POP POP POP POP POP POP SWAP3 SWAP2 POP POP JUMP JUMPDEST PUSH0 PUSH1 0x20 DUP3 ADD SWAP1 POP DUP2 DUP2 SUB PUSH0 DUP4 ADD MSTORE PUSH2 0x9E1 DUP2 DUP5 PUSH2 0x956 JUMP JUMPDEST SWAP1 POP SWAP3 SWAP2 POP POP JUMP JUMPDEST PUSH32 0x4E487B7100000000000000000000000000000000000000000000000000000000 PUSH0 MSTORE PUSH1 0x22 PUSH1 0x4 MSTORE PUSH1 0x24 PUSH0 REVERT JUMPDEST PUSH0 PUSH1 0x2 DUP3 DIV SWAP1 POP PUSH1 0x1 DUP3 AND DUP1 PUSH2 0xA2D JUMPI PUSH1 0x7F DUP3 AND SWAP2 POP JUMPDEST PUSH1 0x20 DUP3 LT DUP2 SUB PUSH2 0xA40 JUMPI PUSH2 0xA3F PUSH2 0x9E9 JUMP JUMPDEST JUMPDEST POP SWAP2 SWAP1 POP JUMP INVALID LOG2 PUSH5 0x6970667358 0x22 SLT KECCAK256 PC MULMOD 0xD8 SWAP1 SHL SWAP1 PUSH0 PUSH25 0x43D6EE6DEC3925B5D70DBE947E7802833B006167F03A9D0E64 PUSH20 0x6F6C634300081600330000000000000000000000 "
				},
				"gasEstimates": {
					"creation": {
						"codeDepositCost": "536800",
						"executionCost": "infinite",
						"totalCost": "infinite"
					},
					"external": {
						"ad(uint256)": "2795",
						"arr(uint256)": "infinite",
						"arr2(uint256)": "infinite",
						"get()": "infinite",
						"get1()": "infinite",
						"get2()": "infinite",
						"get3()": "infinite",
						"str(uint256)": "infinite"
					}
				},
				"methodIdentifiers": {
					"ad(uint256)": "737e3c57",
					"arr(uint256)": "71e5ee5f",
					"arr2(uint256)": "edf0099b",
					"get()": "6d4ce63c",
					"get1()": "054c1a75",
					"get2()": "d2178b08",
					"get3()": "8321045c",
					"str(uint256)": "72511838"
				}
			},
			"storageLayout": {
				"storage": [
					{
						"astId": 5,
						"contract": "Arrays/ArrayIntro.sol:Arrays_Intro",
						"label": "arr",
						"offset": 0,
						"slot": "0",
						"type": "t_array(t_uint256)4_storage"
					},
					{
						"astId": 16,
						"contract": "Arrays/ArrayIntro.sol:Arrays_Intro",
						"label": "arr2",
						"offset": 0,
						"slot": "4",
						"type": "t_array(t_uint256)7_storage"
					},
					{
						"astId": 24,
						"contract": "Arrays/ArrayIntro.sol:Arrays_Intro",
						"label": "str",
						"offset": 0,
						"slot": "11",
						"type": "t_array(t_string_storage)3_storage"
					},
					{
						"astId": 28,
						"contract": "Arrays/ArrayIntro.sol:Arrays_Intro",
						"label": "ad",
						"offset": 0,
						"slot": "14",
						"type": "t_array(t_address)4_storage"
					}
				],
				"types": {
					"t_address": {
						"encoding": "inplace",
						"label": "address",
						"numberOfBytes": "20"
					},
					"t_array(t_address)4_storage": {
						"base": "t_address",
						"encoding": "inplace",
						"label": "address[4]",
						"numberOfBytes": "128"
					},
					"t_array(t_string_storage)3_storage": {
						"base": "t_string_storage",
						"encoding": "inplace",
						"label": "string[3]",
						"numberOfBytes": "96"
					},
					"t_array(t_uint256)4_storage": {
						"base": "t_uint256",
						"encoding": "inplace",
						"label": "uint256[4]",
						"numberOfBytes": "128"
					},
					"t_array(t_uint256)7_storage": {
						"base": "t_uint256",
						"encoding": "inplace",
						"label": "uint256[7]",
						"numberOfBytes": "224"
					},
					"t_string_storage": {
						"encoding": "bytes",
						"label": "string",
						"numberOfBytes": "32"
					},
					"t_uint256": {
						"encoding": "inplace",
						"label": "uint256",
						"numberOfBytes": "32"
					}
				}
			},
			"userdoc": {
				"kind": "user",
				"methods": {},
				"version": 1
			}
		}
	}
}