{
	"Arrays/STtaticArrays.sol": {
		"ArrayInfun": {
			"abi": [
				{
					"inputs": [
						{
							"internalType": "uint256[4]",
							"name": "arr",
							"type": "uint256[4]"
						}
					],
					"name": "set",
					"outputs": [
						{
							"internalType": "uint256[4]",
							"name": "",
							"type": "uint256[4]"
						}
					],
					"stateMutability": "pure",
					"type": "function"
				},
				{
					"inputs": [],
					"name": "set2",
					"outputs": [
						{
							"internalType": "uint256[]",
							"name": "",
							"type": "uint256[]"
						}
					],
					"stateMutability": "pure",
					"type": "function"
				}
			],
			"devdoc": {
				"kind": "dev",
				"methods": {},
				"version": 1
			},
			"evm": {
				"assembly": "    /* \"Arrays/STtaticArrays.sol\":776:1072  contract ArrayInfun... */\n  mstore(0x40, 0x80)\n  callvalue\n  dup1\n  iszero\n  tag_1\n  jumpi\n  0x00\n  dup1\n  revert\ntag_1:\n  pop\n  dataSize(sub_0)\n  dup1\n  dataOffset(sub_0)\n  0x00\n  codecopy\n  0x00\n  return\nstop\n\nsub_0: assembly {\n        /* \"Arrays/STtaticArrays.sol\":776:1072  contract ArrayInfun... */\n      mstore(0x40, 0x80)\n      callvalue\n      dup1\n      iszero\n      tag_1\n      jumpi\n      0x00\n      dup1\n      revert\n    tag_1:\n      pop\n      jumpi(tag_2, lt(calldatasize, 0x04))\n      shr(0xe0, calldataload(0x00))\n      dup1\n      0x4e0d489f\n      eq\n      tag_3\n      jumpi\n      dup1\n      0x6f315638\n      eq\n      tag_4\n      jumpi\n    tag_2:\n      0x00\n      dup1\n      revert\n        /* \"Arrays/STtaticArrays.sol\":818:922  function set(uint[4]  memory arr) public pure returns(uint[4] memory)... */\n    tag_3:\n      tag_5\n      0x04\n      dup1\n      calldatasize\n      sub\n      dup2\n      add\n      swap1\n      tag_6\n      swap2\n      swap1\n      tag_7\n      jump\t// in\n    tag_6:\n      tag_8\n      jump\t// in\n    tag_5:\n      mload(0x40)\n      tag_9\n      swap2\n      swap1\n      tag_10\n      jump\t// in\n    tag_9:\n      mload(0x40)\n      dup1\n      swap2\n      sub\n      swap1\n      return\n        /* \"Arrays/STtaticArrays.sol\":935:1068  function set2() public pure returns(uint[] memory)... */\n    tag_4:\n      tag_11\n      tag_12\n      jump\t// in\n    tag_11:\n      mload(0x40)\n      tag_13\n      swap2\n      swap1\n      tag_14\n      jump\t// in\n    tag_13:\n      mload(0x40)\n      dup1\n      swap2\n      sub\n      swap1\n      return\n        /* \"Arrays/STtaticArrays.sol\":818:922  function set(uint[4]  memory arr) public pure returns(uint[4] memory)... */\n    tag_8:\n        /* \"Arrays/STtaticArrays.sol\":872:886  uint[4] memory */\n      tag_15\n      tag_16\n      jump\t// in\n    tag_15:\n        /* \"Arrays/STtaticArrays.sol\":911:914  arr */\n      dup2\n        /* \"Arrays/STtaticArrays.sol\":904:914  return arr */\n      swap1\n      pop\n        /* \"Arrays/STtaticArrays.sol\":818:922  function set(uint[4]  memory arr) public pure returns(uint[4] memory)... */\n      swap2\n      swap1\n      pop\n      jump\t// out\n        /* \"Arrays/STtaticArrays.sol\":935:1068  function set2() public pure returns(uint[] memory)... */\n    tag_12:\n        /* \"Arrays/STtaticArrays.sol\":971:984  uint[] memory */\n      0x60\n        /* \"Arrays/STtaticArrays.sol\":1004:1022  uint[] memory temp */\n      0x00\n        /* \"Arrays/STtaticArrays.sol\":1035:1036  4 */\n      0x04\n        /* \"Arrays/STtaticArrays.sol\":1024:1037  new uint[](4) */\n      0xffffffffffffffff\n      dup2\n      gt\n      iszero\n      tag_19\n      jumpi\n      tag_20\n      tag_21\n      jump\t// in\n    tag_20:\n    tag_19:\n      mload(0x40)\n      swap1\n      dup1\n      dup3\n      mstore\n      dup1\n      0x20\n      mul\n      0x20\n      add\n      dup3\n      add\n      0x40\n      mstore\n      dup1\n      iszero\n      tag_22\n      jumpi\n      dup2\n      0x20\n      add\n      0x20\n      dup3\n      mul\n      dup1\n      calldatasize\n      dup4\n      calldatacopy\n      dup1\n      dup3\n      add\n      swap2\n      pop\n      pop\n      swap1\n      pop\n    tag_22:\n      pop\n        /* \"Arrays/STtaticArrays.sol\":1004:1037  uint[] memory temp =new uint[](4) */\n      swap1\n      pop\n        /* \"Arrays/STtaticArrays.sol\":1056:1060  temp */\n      dup1\n        /* \"Arrays/STtaticArrays.sol\":1049:1060  return temp */\n      swap2\n      pop\n      pop\n        /* \"Arrays/STtaticArrays.sol\":935:1068  function set2() public pure returns(uint[] memory)... */\n      swap1\n      jump\t// out\n    tag_16:\n      mload(0x40)\n      dup1\n      0x80\n      add\n      0x40\n      mstore\n      dup1\n      0x04\n      swap1\n      0x20\n      dup3\n      mul\n      dup1\n      calldatasize\n      dup4\n      calldatacopy\n      dup1\n      dup3\n      add\n      swap2\n      pop\n      pop\n      swap1\n      pop\n      pop\n      swap1\n      jump\t// out\n        /* \"#utility.yul\":7:82   */\n    tag_23:\n        /* \"#utility.yul\":40:46   */\n      0x00\n        /* \"#utility.yul\":73:75   */\n      0x40\n        /* \"#utility.yul\":67:76   */\n      mload\n        /* \"#utility.yul\":57:76   */\n      swap1\n      pop\n        /* \"#utility.yul\":7:82   */\n      swap1\n      jump\t// out\n        /* \"#utility.yul\":88:205   */\n    tag_24:\n        /* \"#utility.yul\":197:198   */\n      0x00\n        /* \"#utility.yul\":194:195   */\n      dup1\n        /* \"#utility.yul\":187:199   */\n      revert\n        /* \"#utility.yul\":334:451   */\n    tag_26:\n        /* \"#utility.yul\":443:444   */\n      0x00\n        /* \"#utility.yul\":440:441   */\n      dup1\n        /* \"#utility.yul\":433:445   */\n      revert\n        /* \"#utility.yul\":457:559   */\n    tag_27:\n        /* \"#utility.yul\":498:504   */\n      0x00\n        /* \"#utility.yul\":549:551   */\n      0x1f\n        /* \"#utility.yul\":545:552   */\n      not\n        /* \"#utility.yul\":540:542   */\n      0x1f\n        /* \"#utility.yul\":533:538   */\n      dup4\n        /* \"#utility.yul\":529:543   */\n      add\n        /* \"#utility.yul\":525:553   */\n      and\n        /* \"#utility.yul\":515:553   */\n      swap1\n      pop\n        /* \"#utility.yul\":457:559   */\n      swap2\n      swap1\n      pop\n      jump\t// out\n        /* \"#utility.yul\":565:745   */\n    tag_21:\n        /* \"#utility.yul\":613:690   */\n      0x4e487b7100000000000000000000000000000000000000000000000000000000\n        /* \"#utility.yul\":610:611   */\n      0x00\n        /* \"#utility.yul\":603:691   */\n      mstore\n        /* \"#utility.yul\":710:714   */\n      0x41\n        /* \"#utility.yul\":707:708   */\n      0x04\n        /* \"#utility.yul\":700:715   */\n      mstore\n        /* \"#utility.yul\":734:738   */\n      0x24\n        /* \"#utility.yul\":731:732   */\n      0x00\n        /* \"#utility.yul\":724:739   */\n      revert\n        /* \"#utility.yul\":751:1032   */\n    tag_28:\n        /* \"#utility.yul\":834:861   */\n      tag_57\n        /* \"#utility.yul\":856:860   */\n      dup3\n        /* \"#utility.yul\":834:861   */\n      tag_27\n      jump\t// in\n    tag_57:\n        /* \"#utility.yul\":826:832   */\n      dup2\n        /* \"#utility.yul\":822:862   */\n      add\n        /* \"#utility.yul\":964:970   */\n      dup2\n        /* \"#utility.yul\":952:962   */\n      dup2\n        /* \"#utility.yul\":949:971   */\n      lt\n        /* \"#utility.yul\":928:946   */\n      0xffffffffffffffff\n        /* \"#utility.yul\":916:926   */\n      dup3\n        /* \"#utility.yul\":913:947   */\n      gt\n        /* \"#utility.yul\":910:972   */\n      or\n        /* \"#utility.yul\":907:995   */\n      iszero\n      tag_58\n      jumpi\n        /* \"#utility.yul\":975:993   */\n      tag_59\n      tag_21\n      jump\t// in\n    tag_59:\n        /* \"#utility.yul\":907:995   */\n    tag_58:\n        /* \"#utility.yul\":1015:1025   */\n      dup1\n        /* \"#utility.yul\":1011:1013   */\n      0x40\n        /* \"#utility.yul\":1004:1026   */\n      mstore\n        /* \"#utility.yul\":794:1032   */\n      pop\n        /* \"#utility.yul\":751:1032   */\n      pop\n      pop\n      jump\t// out\n        /* \"#utility.yul\":1038:1167   */\n    tag_29:\n        /* \"#utility.yul\":1072:1078   */\n      0x00\n        /* \"#utility.yul\":1099:1119   */\n      tag_61\n      tag_23\n      jump\t// in\n    tag_61:\n        /* \"#utility.yul\":1089:1119   */\n      swap1\n      pop\n        /* \"#utility.yul\":1128:1161   */\n      tag_62\n        /* \"#utility.yul\":1156:1160   */\n      dup3\n        /* \"#utility.yul\":1148:1154   */\n      dup3\n        /* \"#utility.yul\":1128:1161   */\n      tag_28\n      jump\t// in\n    tag_62:\n        /* \"#utility.yul\":1038:1167   */\n      swap2\n      swap1\n      pop\n      jump\t// out\n        /* \"#utility.yul\":1173:1422   */\n    tag_30:\n        /* \"#utility.yul\":1248:1252   */\n      0x00\n        /* \"#utility.yul\":1338:1356   */\n      0xffffffffffffffff\n        /* \"#utility.yul\":1330:1336   */\n      dup3\n        /* \"#utility.yul\":1327:1357   */\n      gt\n        /* \"#utility.yul\":1324:1380   */\n      iszero\n      tag_64\n      jumpi\n        /* \"#utility.yul\":1360:1378   */\n      tag_65\n      tag_21\n      jump\t// in\n    tag_65:\n        /* \"#utility.yul\":1324:1380   */\n    tag_64:\n        /* \"#utility.yul\":1410:1414   */\n      0x20\n        /* \"#utility.yul\":1402:1408   */\n      dup3\n        /* \"#utility.yul\":1398:1415   */\n      mul\n        /* \"#utility.yul\":1390:1415   */\n      swap1\n      pop\n        /* \"#utility.yul\":1173:1422   */\n      swap2\n      swap1\n      pop\n      jump\t// out\n        /* \"#utility.yul\":1428:1545   */\n    tag_31:\n        /* \"#utility.yul\":1537:1538   */\n      0x00\n        /* \"#utility.yul\":1534:1535   */\n      dup1\n        /* \"#utility.yul\":1527:1539   */\n      revert\n        /* \"#utility.yul\":1551:1628   */\n    tag_32:\n        /* \"#utility.yul\":1588:1595   */\n      0x00\n        /* \"#utility.yul\":1617:1622   */\n      dup2\n        /* \"#utility.yul\":1606:1622   */\n      swap1\n      pop\n        /* \"#utility.yul\":1551:1628   */\n      swap2\n      swap1\n      pop\n      jump\t// out\n        /* \"#utility.yul\":1634:1756   */\n    tag_33:\n        /* \"#utility.yul\":1707:1731   */\n      tag_69\n        /* \"#utility.yul\":1725:1730   */\n      dup2\n        /* \"#utility.yul\":1707:1731   */\n      tag_32\n      jump\t// in\n    tag_69:\n        /* \"#utility.yul\":1700:1705   */\n      dup2\n        /* \"#utility.yul\":1697:1732   */\n      eq\n        /* \"#utility.yul\":1687:1750   */\n      tag_70\n      jumpi\n        /* \"#utility.yul\":1746:1747   */\n      0x00\n        /* \"#utility.yul\":1743:1744   */\n      dup1\n        /* \"#utility.yul\":1736:1748   */\n      revert\n        /* \"#utility.yul\":1687:1750   */\n    tag_70:\n        /* \"#utility.yul\":1634:1756   */\n      pop\n      jump\t// out\n        /* \"#utility.yul\":1762:1901   */\n    tag_34:\n        /* \"#utility.yul\":1808:1813   */\n      0x00\n        /* \"#utility.yul\":1846:1852   */\n      dup2\n        /* \"#utility.yul\":1833:1853   */\n      calldataload\n        /* \"#utility.yul\":1824:1853   */\n      swap1\n      pop\n        /* \"#utility.yul\":1862:1895   */\n      tag_72\n        /* \"#utility.yul\":1889:1894   */\n      dup2\n        /* \"#utility.yul\":1862:1895   */\n      tag_33\n      jump\t// in\n    tag_72:\n        /* \"#utility.yul\":1762:1901   */\n      swap3\n      swap2\n      pop\n      pop\n      jump\t// out\n        /* \"#utility.yul\":1925:2568   */\n    tag_35:\n        /* \"#utility.yul\":2019:2024   */\n      0x00\n        /* \"#utility.yul\":2044:2123   */\n      tag_74\n        /* \"#utility.yul\":2060:2122   */\n      tag_75\n        /* \"#utility.yul\":2115:2121   */\n      dup5\n        /* \"#utility.yul\":2060:2122   */\n      tag_30\n      jump\t// in\n    tag_75:\n        /* \"#utility.yul\":2044:2123   */\n      tag_29\n      jump\t// in\n    tag_74:\n        /* \"#utility.yul\":2035:2123   */\n      swap1\n      pop\n        /* \"#utility.yul\":2143:2148   */\n      dup1\n        /* \"#utility.yul\":2196:2200   */\n      0x20\n        /* \"#utility.yul\":2188:2194   */\n      dup5\n        /* \"#utility.yul\":2184:2201   */\n      mul\n        /* \"#utility.yul\":2176:2182   */\n      dup4\n        /* \"#utility.yul\":2172:2202   */\n      add\n        /* \"#utility.yul\":2225:2228   */\n      dup6\n        /* \"#utility.yul\":2217:2223   */\n      dup2\n        /* \"#utility.yul\":2214:2229   */\n      gt\n        /* \"#utility.yul\":2211:2333   */\n      iszero\n      tag_76\n      jumpi\n        /* \"#utility.yul\":2244:2323   */\n      tag_77\n      tag_31\n      jump\t// in\n    tag_77:\n        /* \"#utility.yul\":2211:2333   */\n    tag_76:\n        /* \"#utility.yul\":2359:2365   */\n      dup4\n        /* \"#utility.yul\":2342:2562   */\n    tag_78:\n        /* \"#utility.yul\":2376:2382   */\n      dup2\n        /* \"#utility.yul\":2371:2374   */\n      dup2\n        /* \"#utility.yul\":2368:2383   */\n      lt\n        /* \"#utility.yul\":2342:2562   */\n      iszero\n      tag_80\n      jumpi\n        /* \"#utility.yul\":2451:2454   */\n      dup1\n        /* \"#utility.yul\":2480:2517   */\n      tag_81\n        /* \"#utility.yul\":2513:2516   */\n      dup9\n        /* \"#utility.yul\":2501:2511   */\n      dup3\n        /* \"#utility.yul\":2480:2517   */\n      tag_34\n      jump\t// in\n    tag_81:\n        /* \"#utility.yul\":2475:2478   */\n      dup5\n        /* \"#utility.yul\":2468:2518   */\n      mstore\n        /* \"#utility.yul\":2547:2551   */\n      0x20\n        /* \"#utility.yul\":2542:2545   */\n      dup5\n        /* \"#utility.yul\":2538:2552   */\n      add\n        /* \"#utility.yul\":2531:2552   */\n      swap4\n      pop\n        /* \"#utility.yul\":2418:2562   */\n      pop\n        /* \"#utility.yul\":2402:2406   */\n      0x20\n        /* \"#utility.yul\":2397:2400   */\n      dup2\n        /* \"#utility.yul\":2393:2407   */\n      add\n        /* \"#utility.yul\":2386:2407   */\n      swap1\n      pop\n        /* \"#utility.yul\":2342:2562   */\n      jump(tag_78)\n    tag_80:\n        /* \"#utility.yul\":2346:2367   */\n      pop\n        /* \"#utility.yul\":2025:2568   */\n      pop\n      pop\n        /* \"#utility.yul\":1925:2568   */\n      swap4\n      swap3\n      pop\n      pop\n      pop\n      jump\t// out\n        /* \"#utility.yul\":2592:2931   */\n    tag_36:\n        /* \"#utility.yul\":2661:2666   */\n      0x00\n        /* \"#utility.yul\":2710:2713   */\n      dup3\n        /* \"#utility.yul\":2703:2707   */\n      0x1f\n        /* \"#utility.yul\":2695:2701   */\n      dup4\n        /* \"#utility.yul\":2691:2708   */\n      add\n        /* \"#utility.yul\":2687:2714   */\n      slt\n        /* \"#utility.yul\":2677:2799   */\n      tag_83\n      jumpi\n        /* \"#utility.yul\":2718:2797   */\n      tag_84\n      tag_26\n      jump\t// in\n    tag_84:\n        /* \"#utility.yul\":2677:2799   */\n    tag_83:\n        /* \"#utility.yul\":2822:2826   */\n      0x04\n        /* \"#utility.yul\":2844:2925   */\n      tag_85\n        /* \"#utility.yul\":2921:2924   */\n      dup5\n        /* \"#utility.yul\":2913:2919   */\n      dup3\n        /* \"#utility.yul\":2905:2911   */\n      dup6\n        /* \"#utility.yul\":2844:2925   */\n      tag_35\n      jump\t// in\n    tag_85:\n        /* \"#utility.yul\":2835:2925   */\n      swap2\n      pop\n        /* \"#utility.yul\":2667:2931   */\n      pop\n        /* \"#utility.yul\":2592:2931   */\n      swap3\n      swap2\n      pop\n      pop\n      jump\t// out\n        /* \"#utility.yul\":2937:3313   */\n    tag_7:\n        /* \"#utility.yul\":3019:3025   */\n      0x00\n        /* \"#utility.yul\":3068:3071   */\n      0x80\n        /* \"#utility.yul\":3056:3065   */\n      dup3\n        /* \"#utility.yul\":3047:3054   */\n      dup5\n        /* \"#utility.yul\":3043:3066   */\n      sub\n        /* \"#utility.yul\":3039:3072   */\n      slt\n        /* \"#utility.yul\":3036:3156   */\n      iszero\n      tag_87\n      jumpi\n        /* \"#utility.yul\":3075:3154   */\n      tag_88\n      tag_24\n      jump\t// in\n    tag_88:\n        /* \"#utility.yul\":3036:3156   */\n    tag_87:\n        /* \"#utility.yul\":3195:3196   */\n      0x00\n        /* \"#utility.yul\":3220:3296   */\n      tag_89\n        /* \"#utility.yul\":3288:3295   */\n      dup5\n        /* \"#utility.yul\":3279:3285   */\n      dup3\n        /* \"#utility.yul\":3268:3277   */\n      dup6\n        /* \"#utility.yul\":3264:3286   */\n      add\n        /* \"#utility.yul\":3220:3296   */\n      tag_36\n      jump\t// in\n    tag_89:\n        /* \"#utility.yul\":3210:3296   */\n      swap2\n      pop\n        /* \"#utility.yul\":3166:3306   */\n      pop\n        /* \"#utility.yul\":2937:3313   */\n      swap3\n      swap2\n      pop\n      pop\n      jump\t// out\n        /* \"#utility.yul\":3319:3423   */\n    tag_37:\n        /* \"#utility.yul\":3384:3390   */\n      0x00\n        /* \"#utility.yul\":3412:3416   */\n      0x04\n        /* \"#utility.yul\":3402:3416   */\n      swap1\n      pop\n        /* \"#utility.yul\":3319:3423   */\n      swap2\n      swap1\n      pop\n      jump\t// out\n        /* \"#utility.yul\":3429:3572   */\n    tag_38:\n        /* \"#utility.yul\":3526:3537   */\n      0x00\n        /* \"#utility.yul\":3563:3566   */\n      dup2\n        /* \"#utility.yul\":3548:3566   */\n      swap1\n      pop\n        /* \"#utility.yul\":3429:3572   */\n      swap3\n      swap2\n      pop\n      pop\n      jump\t// out\n        /* \"#utility.yul\":3578:3676   */\n    tag_39:\n        /* \"#utility.yul\":3643:3647   */\n      0x00\n        /* \"#utility.yul\":3666:3669   */\n      dup2\n        /* \"#utility.yul\":3658:3669   */\n      swap1\n      pop\n        /* \"#utility.yul\":3578:3676   */\n      swap2\n      swap1\n      pop\n      jump\t// out\n        /* \"#utility.yul\":3682:3790   */\n    tag_40:\n        /* \"#utility.yul\":3759:3783   */\n      tag_94\n        /* \"#utility.yul\":3777:3782   */\n      dup2\n        /* \"#utility.yul\":3759:3783   */\n      tag_32\n      jump\t// in\n    tag_94:\n        /* \"#utility.yul\":3754:3757   */\n      dup3\n        /* \"#utility.yul\":3747:3784   */\n      mstore\n        /* \"#utility.yul\":3682:3790   */\n      pop\n      pop\n      jump\t// out\n        /* \"#utility.yul\":3796:3975   */\n    tag_41:\n        /* \"#utility.yul\":3865:3875   */\n      0x00\n        /* \"#utility.yul\":3886:3932   */\n      tag_96\n        /* \"#utility.yul\":3928:3931   */\n      dup4\n        /* \"#utility.yul\":3920:3926   */\n      dup4\n        /* \"#utility.yul\":3886:3932   */\n      tag_40\n      jump\t// in\n    tag_96:\n        /* \"#utility.yul\":3964:3968   */\n      0x20\n        /* \"#utility.yul\":3959:3962   */\n      dup4\n        /* \"#utility.yul\":3955:3969   */\n      add\n        /* \"#utility.yul\":3941:3969   */\n      swap1\n      pop\n        /* \"#utility.yul\":3796:3975   */\n      swap3\n      swap2\n      pop\n      pop\n      jump\t// out\n        /* \"#utility.yul\":3981:4092   */\n    tag_42:\n        /* \"#utility.yul\":4049:4053   */\n      0x00\n        /* \"#utility.yul\":4081:4085   */\n      0x20\n        /* \"#utility.yul\":4076:4079   */\n      dup3\n        /* \"#utility.yul\":4072:4086   */\n      add\n        /* \"#utility.yul\":4064:4086   */\n      swap1\n      pop\n        /* \"#utility.yul\":3981:4092   */\n      swap2\n      swap1\n      pop\n      jump\t// out\n        /* \"#utility.yul\":4130:4824   */\n    tag_43:\n        /* \"#utility.yul\":4266:4318   */\n      tag_99\n        /* \"#utility.yul\":4312:4317   */\n      dup2\n        /* \"#utility.yul\":4266:4318   */\n      tag_37\n      jump\t// in\n    tag_99:\n        /* \"#utility.yul\":4334:4418   */\n      tag_100\n        /* \"#utility.yul\":4411:4417   */\n      dup2\n        /* \"#utility.yul\":4406:4409   */\n      dup5\n        /* \"#utility.yul\":4334:4418   */\n      tag_38\n      jump\t// in\n    tag_100:\n        /* \"#utility.yul\":4327:4418   */\n      swap3\n      pop\n        /* \"#utility.yul\":4442:4496   */\n      tag_101\n        /* \"#utility.yul\":4490:4495   */\n      dup3\n        /* \"#utility.yul\":4442:4496   */\n      tag_39\n      jump\t// in\n    tag_101:\n        /* \"#utility.yul\":4519:4526   */\n      dup1\n        /* \"#utility.yul\":4550:4551   */\n      0x00\n        /* \"#utility.yul\":4535:4817   */\n    tag_102:\n        /* \"#utility.yul\":4560:4566   */\n      dup4\n        /* \"#utility.yul\":4557:4558   */\n      dup2\n        /* \"#utility.yul\":4554:4567   */\n      lt\n        /* \"#utility.yul\":4535:4817   */\n      iszero\n      tag_104\n      jumpi\n        /* \"#utility.yul\":4636:4642   */\n      dup2\n        /* \"#utility.yul\":4630:4643   */\n      mload\n        /* \"#utility.yul\":4663:4726   */\n      tag_105\n        /* \"#utility.yul\":4722:4725   */\n      dup8\n        /* \"#utility.yul\":4707:4720   */\n      dup3\n        /* \"#utility.yul\":4663:4726   */\n      tag_41\n      jump\t// in\n    tag_105:\n        /* \"#utility.yul\":4656:4726   */\n      swap7\n      pop\n        /* \"#utility.yul\":4749:4807   */\n      tag_106\n        /* \"#utility.yul\":4800:4806   */\n      dup4\n        /* \"#utility.yul\":4749:4807   */\n      tag_42\n      jump\t// in\n    tag_106:\n        /* \"#utility.yul\":4739:4807   */\n      swap3\n      pop\n        /* \"#utility.yul\":4595:4817   */\n      pop\n        /* \"#utility.yul\":4582:4583   */\n      0x01\n        /* \"#utility.yul\":4579:4580   */\n      dup2\n        /* \"#utility.yul\":4575:4584   */\n      add\n        /* \"#utility.yul\":4570:4584   */\n      swap1\n      pop\n        /* \"#utility.yul\":4535:4817   */\n      jump(tag_102)\n    tag_104:\n        /* \"#utility.yul\":4539:4553   */\n      pop\n        /* \"#utility.yul\":4242:4824   */\n      pop\n      pop\n      pop\n        /* \"#utility.yul\":4130:4824   */\n      pop\n      pop\n      jump\t// out\n        /* \"#utility.yul\":4830:5145   */\n    tag_10:\n        /* \"#utility.yul\":4969:4973   */\n      0x00\n        /* \"#utility.yul\":5007:5010   */\n      0x80\n        /* \"#utility.yul\":4996:5005   */\n      dup3\n        /* \"#utility.yul\":4992:5011   */\n      add\n        /* \"#utility.yul\":4984:5011   */\n      swap1\n      pop\n        /* \"#utility.yul\":5021:5138   */\n      tag_108\n        /* \"#utility.yul\":5135:5136   */\n      0x00\n        /* \"#utility.yul\":5124:5133   */\n      dup4\n        /* \"#utility.yul\":5120:5137   */\n      add\n        /* \"#utility.yul\":5111:5117   */\n      dup5\n        /* \"#utility.yul\":5021:5138   */\n      tag_43\n      jump\t// in\n    tag_108:\n        /* \"#utility.yul\":4830:5145   */\n      swap3\n      swap2\n      pop\n      pop\n      jump\t// out\n        /* \"#utility.yul\":5151:5265   */\n    tag_44:\n        /* \"#utility.yul\":5218:5224   */\n      0x00\n        /* \"#utility.yul\":5252:5257   */\n      dup2\n        /* \"#utility.yul\":5246:5258   */\n      mload\n        /* \"#utility.yul\":5236:5258   */\n      swap1\n      pop\n        /* \"#utility.yul\":5151:5265   */\n      swap2\n      swap1\n      pop\n      jump\t// out\n        /* \"#utility.yul\":5271:5455   */\n    tag_45:\n        /* \"#utility.yul\":5370:5381   */\n      0x00\n        /* \"#utility.yul\":5404:5410   */\n      dup3\n        /* \"#utility.yul\":5399:5402   */\n      dup3\n        /* \"#utility.yul\":5392:5411   */\n      mstore\n        /* \"#utility.yul\":5444:5448   */\n      0x20\n        /* \"#utility.yul\":5439:5442   */\n      dup3\n        /* \"#utility.yul\":5435:5449   */\n      add\n        /* \"#utility.yul\":5420:5449   */\n      swap1\n      pop\n        /* \"#utility.yul\":5271:5455   */\n      swap3\n      swap2\n      pop\n      pop\n      jump\t// out\n        /* \"#utility.yul\":5461:5593   */\n    tag_46:\n        /* \"#utility.yul\":5528:5532   */\n      0x00\n        /* \"#utility.yul\":5551:5554   */\n      dup2\n        /* \"#utility.yul\":5543:5554   */\n      swap1\n      pop\n        /* \"#utility.yul\":5581:5585   */\n      0x20\n        /* \"#utility.yul\":5576:5579   */\n      dup3\n        /* \"#utility.yul\":5572:5586   */\n      add\n        /* \"#utility.yul\":5564:5586   */\n      swap1\n      pop\n        /* \"#utility.yul\":5461:5593   */\n      swap2\n      swap1\n      pop\n      jump\t// out\n        /* \"#utility.yul\":5599:5712   */\n    tag_47:\n        /* \"#utility.yul\":5669:5673   */\n      0x00\n        /* \"#utility.yul\":5701:5705   */\n      0x20\n        /* \"#utility.yul\":5696:5699   */\n      dup3\n        /* \"#utility.yul\":5692:5706   */\n      add\n        /* \"#utility.yul\":5684:5706   */\n      swap1\n      pop\n        /* \"#utility.yul\":5599:5712   */\n      swap2\n      swap1\n      pop\n      jump\t// out\n        /* \"#utility.yul\":5748:6480   */\n    tag_48:\n        /* \"#utility.yul\":5867:5870   */\n      0x00\n        /* \"#utility.yul\":5896:5950   */\n      tag_114\n        /* \"#utility.yul\":5944:5949   */\n      dup3\n        /* \"#utility.yul\":5896:5950   */\n      tag_44\n      jump\t// in\n    tag_114:\n        /* \"#utility.yul\":5966:6052   */\n      tag_115\n        /* \"#utility.yul\":6045:6051   */\n      dup2\n        /* \"#utility.yul\":6040:6043   */\n      dup6\n        /* \"#utility.yul\":5966:6052   */\n      tag_45\n      jump\t// in\n    tag_115:\n        /* \"#utility.yul\":5959:6052   */\n      swap4\n      pop\n        /* \"#utility.yul\":6076:6132   */\n      tag_116\n        /* \"#utility.yul\":6126:6131   */\n      dup4\n        /* \"#utility.yul\":6076:6132   */\n      tag_46\n      jump\t// in\n    tag_116:\n        /* \"#utility.yul\":6155:6162   */\n      dup1\n        /* \"#utility.yul\":6186:6187   */\n      0x00\n        /* \"#utility.yul\":6171:6455   */\n    tag_117:\n        /* \"#utility.yul\":6196:6202   */\n      dup4\n        /* \"#utility.yul\":6193:6194   */\n      dup2\n        /* \"#utility.yul\":6190:6203   */\n      lt\n        /* \"#utility.yul\":6171:6455   */\n      iszero\n      tag_119\n      jumpi\n        /* \"#utility.yul\":6272:6278   */\n      dup2\n        /* \"#utility.yul\":6266:6279   */\n      mload\n        /* \"#utility.yul\":6299:6362   */\n      tag_120\n        /* \"#utility.yul\":6358:6361   */\n      dup9\n        /* \"#utility.yul\":6343:6356   */\n      dup3\n        /* \"#utility.yul\":6299:6362   */\n      tag_41\n      jump\t// in\n    tag_120:\n        /* \"#utility.yul\":6292:6362   */\n      swap8\n      pop\n        /* \"#utility.yul\":6385:6445   */\n      tag_121\n        /* \"#utility.yul\":6438:6444   */\n      dup4\n        /* \"#utility.yul\":6385:6445   */\n      tag_47\n      jump\t// in\n    tag_121:\n        /* \"#utility.yul\":6375:6445   */\n      swap3\n      pop\n        /* \"#utility.yul\":6231:6455   */\n      pop\n        /* \"#utility.yul\":6218:6219   */\n      0x01\n        /* \"#utility.yul\":6215:6216   */\n      dup2\n        /* \"#utility.yul\":6211:6220   */\n      add\n        /* \"#utility.yul\":6206:6220   */\n      swap1\n      pop\n        /* \"#utility.yul\":6171:6455   */\n      jump(tag_117)\n    tag_119:\n        /* \"#utility.yul\":6175:6189   */\n      pop\n        /* \"#utility.yul\":6471:6474   */\n      dup6\n        /* \"#utility.yul\":6464:6474   */\n      swap4\n      pop\n        /* \"#utility.yul\":5872:6480   */\n      pop\n      pop\n      pop\n        /* \"#utility.yul\":5748:6480   */\n      swap3\n      swap2\n      pop\n      pop\n      jump\t// out\n        /* \"#utility.yul\":6486:6859   */\n    tag_14:\n        /* \"#utility.yul\":6629:6633   */\n      0x00\n        /* \"#utility.yul\":6667:6669   */\n      0x20\n        /* \"#utility.yul\":6656:6665   */\n      dup3\n        /* \"#utility.yul\":6652:6670   */\n      add\n        /* \"#utility.yul\":6644:6670   */\n      swap1\n      pop\n        /* \"#utility.yul\":6716:6725   */\n      dup2\n        /* \"#utility.yul\":6710:6714   */\n      dup2\n        /* \"#utility.yul\":6706:6726   */\n      sub\n        /* \"#utility.yul\":6702:6703   */\n      0x00\n        /* \"#utility.yul\":6691:6700   */\n      dup4\n        /* \"#utility.yul\":6687:6704   */\n      add\n        /* \"#utility.yul\":6680:6727   */\n      mstore\n        /* \"#utility.yul\":6744:6852   */\n      tag_123\n        /* \"#utility.yul\":6847:6851   */\n      dup2\n        /* \"#utility.yul\":6838:6844   */\n      dup5\n        /* \"#utility.yul\":6744:6852   */\n      tag_48\n      jump\t// in\n    tag_123:\n        /* \"#utility.yul\":6736:6852   */\n      swap1\n      pop\n        /* \"#utility.yul\":6486:6859   */\n      swap3\n      swap2\n      pop\n      pop\n      jump\t// out\n\n    auxdata: 0xa2646970667358221220cf03c54fa16eb58055f50eed6d32b7f821dde7983789cd84da5c3951ed2f8fd964736f6c63430008160033\n}\n",
				"bytecode": {
					"linkReferences": {},
					"object": "608060405234801561000f575f80fd5b5061045c8061001d5f395ff3fe608060405234801561000f575f80fd5b5060043610610034575f3560e01c80634e0d489f146100385780636f31563814610068575b5f80fd5b610052600480360381019061004d919061028c565b610086565b60405161005f919061035c565b60405180910390f35b610070610096565b60405161007d9190610406565b60405180910390f35b61008e6100ec565b819050919050565b60605f600467ffffffffffffffff8111156100b4576100b361012f565b5b6040519080825280602002602001820160405280156100e25781602001602082028036833780820191505090505b5090508091505090565b6040518060800160405280600490602082028036833780820191505090505090565b5f604051905090565b5f80fd5b5f80fd5b5f601f19601f8301169050919050565b7f4e487b71000000000000000000000000000000000000000000000000000000005f52604160045260245ffd5b6101658261011f565b810181811067ffffffffffffffff821117156101845761018361012f565b5b80604052505050565b5f61019661010e565b90506101a2828261015c565b919050565b5f67ffffffffffffffff8211156101c1576101c061012f565b5b602082029050919050565b5f80fd5b5f819050919050565b6101e2816101d0565b81146101ec575f80fd5b50565b5f813590506101fd816101d9565b92915050565b5f610215610210846101a7565b61018d565b9050806020840283018581111561022f5761022e6101cc565b5b835b81811015610258578061024488826101ef565b845260208401935050602081019050610231565b5050509392505050565b5f82601f8301126102765761027561011b565b5b6004610283848285610203565b91505092915050565b5f608082840312156102a1576102a0610117565b5b5f6102ae84828501610262565b91505092915050565b5f60049050919050565b5f81905092915050565b5f819050919050565b6102dd816101d0565b82525050565b5f6102ee83836102d4565b60208301905092915050565b5f602082019050919050565b61030f816102b7565b61031981846102c1565b9250610324826102cb565b805f5b8381101561035457815161033b87826102e3565b9650610346836102fa565b925050600181019050610327565b505050505050565b5f60808201905061036f5f830184610306565b92915050565b5f81519050919050565b5f82825260208201905092915050565b5f819050602082019050919050565b5f602082019050919050565b5f6103b482610375565b6103be818561037f565b93506103c98361038f565b805f5b838110156103f95781516103e088826102e3565b97506103eb8361039e565b9250506001810190506103cc565b5085935050505092915050565b5f6020820190508181035f83015261041e81846103aa565b90509291505056fea2646970667358221220cf03c54fa16eb58055f50eed6d32b7f821dde7983789cd84da5c3951ed2f8fd964736f6c63430008160033",
					"opcodes": "PUSH1 0x80 PUSH1 0x40 MSTORE CALLVALUE DUP1 ISZERO PUSH2 0xF JUMPI PUSH0 DUP1 REVERT JUMPDEST POP PUSH2 0x45C DUP1 PUSH2 0x1D PUSH0 CODECOPY PUSH0 RETURN INVALID PUSH1 0x80 PUSH1 0x40 MSTORE CALLVALUE DUP1 ISZERO PUSH2 0xF JUMPI PUSH0 DUP1 REVERT JUMPDEST POP PUSH1 0x4 CALLDATASIZE LT PUSH2 0x34 JUMPI PUSH0 CALLDATALOAD PUSH1 0xE0 SHR DUP1 PUSH4 0x4E0D489F EQ PUSH2 0x38 JUMPI DUP1 PUSH4 0x6F315638 EQ PUSH2 0x68 JUMPI JUMPDEST PUSH0 DUP1 REVERT JUMPDEST PUSH2 0x52 PUSH1 0x4 DUP1 CALLDATASIZE SUB DUP2 ADD SWAP1 PUSH2 0x4D SWAP2 SWAP1 PUSH2 0x28C JUMP JUMPDEST PUSH2 0x86 JUMP JUMPDEST PUSH1 0x40 MLOAD PUSH2 0x5F SWAP2 SWAP1 PUSH2 0x35C JUMP JUMPDEST PUSH1 0x40 MLOAD DUP1 SWAP2 SUB SWAP1 RETURN JUMPDEST PUSH2 0x70 PUSH2 0x96 JUMP JUMPDEST PUSH1 0x40 MLOAD PUSH2 0x7D SWAP2 SWAP1 PUSH2 0x406 JUMP JUMPDEST PUSH1 0x40 MLOAD DUP1 SWAP2 SUB SWAP1 RETURN JUMPDEST PUSH2 0x8E PUSH2 0xEC JUMP JUMPDEST DUP2 SWAP1 POP SWAP2 SWAP1 POP JUMP JUMPDEST PUSH1 0x60 PUSH0 PUSH1 0x4 PUSH8 0xFFFFFFFFFFFFFFFF DUP2 GT ISZERO PUSH2 0xB4 JUMPI PUSH2 0xB3 PUSH2 0x12F JUMP JUMPDEST JUMPDEST PUSH1 0x40 MLOAD SWAP1 DUP1 DUP3 MSTORE DUP1 PUSH1 0x20 MUL PUSH1 0x20 ADD DUP3 ADD PUSH1 0x40 MSTORE DUP1 ISZERO PUSH2 0xE2 JUMPI DUP2 PUSH1 0x20 ADD PUSH1 0x20 DUP3 MUL DUP1 CALLDATASIZE DUP4 CALLDATACOPY DUP1 DUP3 ADD SWAP2 POP POP SWAP1 POP JUMPDEST POP SWAP1 POP DUP1 SWAP2 POP POP SWAP1 JUMP JUMPDEST PUSH1 0x40 MLOAD DUP1 PUSH1 0x80 ADD PUSH1 0x40 MSTORE DUP1 PUSH1 0x4 SWAP1 PUSH1 0x20 DUP3 MUL DUP1 CALLDATASIZE DUP4 CALLDATACOPY DUP1 DUP3 ADD SWAP2 POP POP SWAP1 POP POP SWAP1 JUMP JUMPDEST PUSH0 PUSH1 0x40 MLOAD SWAP1 POP SWAP1 JUMP JUMPDEST PUSH0 DUP1 REVERT JUMPDEST PUSH0 DUP1 REVERT JUMPDEST PUSH0 PUSH1 0x1F NOT PUSH1 0x1F DUP4 ADD AND SWAP1 POP SWAP2 SWAP1 POP JUMP JUMPDEST PUSH32 0x4E487B7100000000000000000000000000000000000000000000000000000000 PUSH0 MSTORE PUSH1 0x41 PUSH1 0x4 MSTORE PUSH1 0x24 PUSH0 REVERT JUMPDEST PUSH2 0x165 DUP3 PUSH2 0x11F JUMP JUMPDEST DUP2 ADD DUP2 DUP2 LT PUSH8 0xFFFFFFFFFFFFFFFF DUP3 GT OR ISZERO PUSH2 0x184 JUMPI PUSH2 0x183 PUSH2 0x12F JUMP JUMPDEST JUMPDEST DUP1 PUSH1 0x40 MSTORE POP POP POP JUMP JUMPDEST PUSH0 PUSH2 0x196 PUSH2 0x10E JUMP JUMPDEST SWAP1 POP PUSH2 0x1A2 DUP3 DUP3 PUSH2 0x15C JUMP JUMPDEST SWAP2 SWAP1 POP JUMP JUMPDEST PUSH0 PUSH8 0xFFFFFFFFFFFFFFFF DUP3 GT ISZERO PUSH2 0x1C1 JUMPI PUSH2 0x1C0 PUSH2 0x12F JUMP JUMPDEST JUMPDEST PUSH1 0x20 DUP3 MUL SWAP1 POP SWAP2 SWAP1 POP JUMP JUMPDEST PUSH0 DUP1 REVERT JUMPDEST PUSH0 DUP2 SWAP1 POP SWAP2 SWAP1 POP JUMP JUMPDEST PUSH2 0x1E2 DUP2 PUSH2 0x1D0 JUMP JUMPDEST DUP2 EQ PUSH2 0x1EC JUMPI PUSH0 DUP1 REVERT JUMPDEST POP JUMP JUMPDEST PUSH0 DUP2 CALLDATALOAD SWAP1 POP PUSH2 0x1FD DUP2 PUSH2 0x1D9 JUMP JUMPDEST SWAP3 SWAP2 POP POP JUMP JUMPDEST PUSH0 PUSH2 0x215 PUSH2 0x210 DUP5 PUSH2 0x1A7 JUMP JUMPDEST PUSH2 0x18D JUMP JUMPDEST SWAP1 POP DUP1 PUSH1 0x20 DUP5 MUL DUP4 ADD DUP6 DUP2 GT ISZERO PUSH2 0x22F JUMPI PUSH2 0x22E PUSH2 0x1CC JUMP JUMPDEST JUMPDEST DUP4 JUMPDEST DUP2 DUP2 LT ISZERO PUSH2 0x258 JUMPI DUP1 PUSH2 0x244 DUP9 DUP3 PUSH2 0x1EF JUMP JUMPDEST DUP5 MSTORE PUSH1 0x20 DUP5 ADD SWAP4 POP POP PUSH1 0x20 DUP2 ADD SWAP1 POP PUSH2 0x231 JUMP JUMPDEST POP POP POP SWAP4 SWAP3 POP POP POP JUMP JUMPDEST PUSH0 DUP3 PUSH1 0x1F DUP4 ADD SLT PUSH2 0x276 JUMPI PUSH2 0x275 PUSH2 0x11B JUMP JUMPDEST JUMPDEST PUSH1 0x4 PUSH2 0x283 DUP5 DUP3 DUP6 PUSH2 0x203 JUMP JUMPDEST SWAP2 POP POP SWAP3 SWAP2 POP POP JUMP JUMPDEST PUSH0 PUSH1 0x80 DUP3 DUP5 SUB SLT ISZERO PUSH2 0x2A1 JUMPI PUSH2 0x2A0 PUSH2 0x117 JUMP JUMPDEST JUMPDEST PUSH0 PUSH2 0x2AE DUP5 DUP3 DUP6 ADD PUSH2 0x262 JUMP JUMPDEST SWAP2 POP POP SWAP3 SWAP2 POP POP JUMP JUMPDEST PUSH0 PUSH1 0x4 SWAP1 POP SWAP2 SWAP1 POP JUMP JUMPDEST PUSH0 DUP2 SWAP1 POP SWAP3 SWAP2 POP POP JUMP JUMPDEST PUSH0 DUP2 SWAP1 POP SWAP2 SWAP1 POP JUMP JUMPDEST PUSH2 0x2DD DUP2 PUSH2 0x1D0 JUMP JUMPDEST DUP3 MSTORE POP POP JUMP JUMPDEST PUSH0 PUSH2 0x2EE DUP4 DUP4 PUSH2 0x2D4 JUMP JUMPDEST PUSH1 0x20 DUP4 ADD SWAP1 POP SWAP3 SWAP2 POP POP JUMP JUMPDEST PUSH0 PUSH1 0x20 DUP3 ADD SWAP1 POP SWAP2 SWAP1 POP JUMP JUMPDEST PUSH2 0x30F DUP2 PUSH2 0x2B7 JUMP JUMPDEST PUSH2 0x319 DUP2 DUP5 PUSH2 0x2C1 JUMP JUMPDEST SWAP3 POP PUSH2 0x324 DUP3 PUSH2 0x2CB JUMP JUMPDEST DUP1 PUSH0 JUMPDEST DUP4 DUP2 LT ISZERO PUSH2 0x354 JUMPI DUP2 MLOAD PUSH2 0x33B DUP8 DUP3 PUSH2 0x2E3 JUMP JUMPDEST SWAP7 POP PUSH2 0x346 DUP4 PUSH2 0x2FA JUMP JUMPDEST SWAP3 POP POP PUSH1 0x1 DUP2 ADD SWAP1 POP PUSH2 0x327 JUMP JUMPDEST POP POP POP POP POP POP JUMP JUMPDEST PUSH0 PUSH1 0x80 DUP3 ADD SWAP1 POP PUSH2 0x36F PUSH0 DUP4 ADD DUP5 PUSH2 0x306 JUMP JUMPDEST SWAP3 SWAP2 POP POP JUMP JUMPDEST PUSH0 DUP2 MLOAD SWAP1 POP SWAP2 SWAP1 POP JUMP JUMPDEST PUSH0 DUP3 DUP3 MSTORE PUSH1 0x20 DUP3 ADD SWAP1 POP SWAP3 SWAP2 POP POP JUMP JUMPDEST PUSH0 DUP2 SWAP1 POP PUSH1 0x20 DUP3 ADD SWAP1 POP SWAP2 SWAP1 POP JUMP JUMPDEST PUSH0 PUSH1 0x20 DUP3 ADD SWAP1 POP SWAP2 SWAP1 POP JUMP JUMPDEST PUSH0 PUSH2 0x3B4 DUP3 PUSH2 0x375 JUMP JUMPDEST PUSH2 0x3BE DUP2 DUP6 PUSH2 0x37F JUMP JUMPDEST SWAP4 POP PUSH2 0x3C9 DUP4 PUSH2 0x38F JUMP JUMPDEST DUP1 PUSH0 JUMPDEST DUP4 DUP2 LT ISZERO PUSH2 0x3F9 JUMPI DUP2 MLOAD PUSH2 0x3E0 DUP9 DUP3 PUSH2 0x2E3 JUMP JUMPDEST SWAP8 POP PUSH2 0x3EB DUP4 PUSH2 0x39E JUMP JUMPDEST SWAP3 POP POP PUSH1 0x1 DUP2 ADD SWAP1 POP PUSH2 0x3CC JUMP JUMPDEST POP DUP6 SWAP4 POP POP POP POP SWAP3 SWAP2 POP POP JUMP JUMPDEST PUSH0 PUSH1 0x20 DUP3 ADD SWAP1 POP DUP2 DUP2 SUB PUSH0 DUP4 ADD MSTORE PUSH2 0x41E DUP2 DUP5 PUSH2 0x3AA JUMP JUMPDEST SWAP1 POP SWAP3 SWAP2 POP POP JUMP INVALID LOG2 PUSH5 0x6970667358 0x22 SLT KECCAK256 0xCF SUB 0xC5 0x4F LOG1 PUSH15 0xB58055F50EED6D32B7F821DDE79837 DUP10 0xCD DUP5 0xDA 0x5C CODECOPY MLOAD 0xED 0x2F DUP16 0xD9 PUSH5 0x736F6C6343 STOP ADDMOD AND STOP CALLER "
				},
				"gasEstimates": {
					"creation": {
						"codeDepositCost": "223200",
						"executionCost": "261",
						"totalCost": "223461"
					},
					"external": {
						"set(uint256[4])": "infinite",
						"set2()": "infinite"
					}
				},
				"methodIdentifiers": {
					"set(uint256[4])": "4e0d489f",
					"set2()": "6f315638"
				}
			},
			"storageLayout": {
				"storage": [],
				"types": null
			},
			"userdoc": {
				"kind": "user",
				"methods": {},
				"version": 1
			}
		}
	}
}